:020000041000EA
:1000000000B5324B212058609868022188439860DF
:10001000D860186158612E4B002199600221596106
:100020000121F02299502B49196001219960352056
:1000300000F044F80222904214D00621196600F024
:1000400034F8196E01211966002018661A6600F04E
:100050002CF8196E196E196E052000F02FF8012189
:100060000842F9D1002199601B49196000215960AB
:100070001A491B48016001219960EB211966A021F2
:10008000196600F012F800219960164914480160C1
:100090000121996001BC002800D000471248134993
:1000A000086003C880F30888084703B5996A0420EC
:1000B0000142FBD001200142F8D103BD02B5186610
:1000C0001866FFF7F2FF186E186E02BD00000240BE
:1000D000000000180000070000035F00212200005C
:1000E000F4000018222000A00001001008ED00E03C
:1000F00000000000000000000000000074B24E7A12
:1001000000200420F7010010CB010010CD010010E9
:10011000C9010010C9010010C9010010C901001077
:10012000C9010010C9010010C9010010CF01001061
:10013000C9010010C9010010D1010010D301001045
:10014000C1010010C1010010C1010010C101001067
:10015000C1010010C1010010C1010010C101001057
:10016000C1010010C1010010C1010010C101001047
:10017000C1010010C1010010C1010010C101001037
:10018000C1010010C1010010C1010010C101001027
:10019000C1010010C1010010C1010010C101001017
:1001A000C1010010C1010010C1010010C101001007
:1001B000C1010010C1010010C1010010C1010010F7
:1001C000EFF30580103800BE00BE00BE00BE00BECA
:1001D00000BE00BEF2EB88714C6A0010786A001015
:1001E0003802001090A31AE700201E49086006C8D4
:1001F00081F3088810471C480068002801D00020BF
:10020000F3E70DA40ECC002902D000F012F8F9E7B4
:100210001649174A002000E001C19142FCD115495E
:100220008847154988471549884700BEFDE701C939
:1002300001C29A42FBD37047786A0010C0000020C8
:10024000E0110020987B0010000004200000042032
:10025000987B001000100420001004200000000013
:100260007047000008ED00E0000000D0E011002021
:1002700024E00120B9200010A5050010B1200010D5
:10028000F0B5DE4657464E4645460023E0B59B4650
:10029000BF4BABB00093BF4B16AF0493BE4B05935F
:1002A00001E001239B44B42158468900B43001F099
:1002B000BDFDB4239B00C818190001F0B7FDB42997
:1002C00000DD38E1009B89005C58B4215846890064
:1002D00001F0ACFDB4239B00C818190001F0A6FD85
:1002E0000B00B42900DC13E1B4235B00994200DC6D
:1002F00030E187239B00994200DD36E16939FF39FF
:10030000009B89005B5899465E425B469D005D44B8
:100310002800B421B430890001F088FDB4239B008B
:10032000C818190001F082FDB42900DCFEE0B423F6
:100330005B00994200DCF8E087239B00994200DDD6
:1003400017E16939FF39009B89005B585B42984689
:10035000B4212800890001F069FDB4239B00C8186E
:10036000190001F063FDB42900DCD8E0B4235B0080
:10037000994200DCD2E087239B00994200DDF0E047
:100380006939FF39009B89005B589A465D424346B4
:100390004946D8175346C917DB17302201900391FD
:1003A00019A80021029301F053FE019B4246200050
:1003B000E11701F0F5FD0904000C0818C317420C01
:1003C000DB03D318C0031B04000C18185246029B11
:1003D0003860E117200001F0E3FD0904000C081863
:1003E000C317420CDB03D318C0031B04000C1818FE
:1003F000F317320C1B04D31836041A04360C961962
:100400001B14720CDB03D318F6031B04360C9E1965
:10041000EB172A0C1B04D3182D041A042D0C5519A4
:100420001B146A0CDB03D318ED031B042D0C5D19A0
:100430003D614546786001982A0C0304D3182A04CC
:100440001904120C8A181B14510CDB03CB18D203AD
:10045000039D1B04120C9A187A6103004246484619
:100460002900BE6001F09CFD0904000C0818C317A8
:10047000420CDB03D318C0031B04000C18185246AF
:10048000029B38622900484601F08AFD0904000CED
:100490000818C317420CDB03D318C0031B04000C5D
:1004A0001818E317220C1B04D31824041A04240C74
:1004B00014191B14620CDB03D318E4031B04240C73
:1004C0001C1980235B0239004022FB637862BC6206
:1004D00006A801F0C3FD314805F098F93B00049AE5
:1004E00013CA13C3012340223B7306A91AA801F0C3
:1004F000B5FD380005F0B0F9059805F045F9B423CD
:100500009B009B4500D0CCE6022202239346244C5C
:10051000009A9B00D65873429946F6E6591A009BFA
:1005200089005D586B429A4631E7591A009B890051
:100530005B5898460CE7B4235B00994225DD87237E
:100540009B00994219DC6939009BFF3989005C588E
:100550006442BAE6591A009B89005E587342994674
:10056000D3E6B4239B00591A0CE7B4239B00591A15
:10057000C6E6B4239B00591AE5E6B4239B00591A3A
:10058000009B89005C5864429FE6591A9AE6C0466F
:10059000D06000103068001030150020FFFF000010
:1005A000F6FF000010B505F04DFC002802D0012038
:1005B000404210BD04F04EFA0C4805F0B7F8642034
:1005C00005F022FC0A480B4B04005A881988074B97
:1005D00005F0F6F8054805F019F9200005F0D4F803
:1005E000FA20800005F0F4FBFFF74AFEFFFF000051
:1005F0003015002030D7012043468C464021084A60
:1006000008B483009A58C0005140C0220A400549EE
:100610005A50054BC0186346436008BC9846704763
:1006200004C0014004D0014000400140054B80005F
:10063000C358C90092000A435A400C231340024A8F
:100640008350704704C0014004D00140800000295D
:1006500004D0054BC018402303607047034BC018FB
:1006600040230360F9E7C04604E0014004F0014084
:100670000123D0228340120693629361074A8300CC
:1006800099584022514080320A400549C0005A50D2
:10069000044BC018052343607047C04604C00140A6
:1006A00004D00140004001408023DB051868000FA2
:1006B0007047C0460FB400B5084883B001F046FE4D
:1006C000049B002B07D005A91800019101F0D4FC70
:1006D000034801F03BFE012001F0E6FCA46300109A
:1006E0007865001070B58C461600EFF3108472B672
:1006F0000F490B68002BFCD0BFF35F8F6346DB080C
:10070000C5180722C05C63461A40012393401A00B3
:100710000240034207D118432870BFF35F8F0A607D
:1007200084F3108870BD61463000FFF7C3FFC046F8
:100730002C0100D0F8B5CE4647468C4680B51C004B
:10074000EFF3108872B61C490B68002BFCD0BFF386
:100750005F8FA24221D80723994602E001329442DA
:1007600018D34946012611408E40D308C718C35CF0
:100770001E42F3D1100033433B70BFF35F8F002262
:100780000D4B1A6088F3108800280EDBC0BCB946F8
:10079000B046F8BD01204042EFE7BFF35F8F002372
:1007A0000B6088F31088012040426346002BEDD097
:1007B0000898FFF77FFFC0462C0100D0044A10784C
:1007C000431CDBB2172B00D9102313707047C046AF
:1007D000D010002000B5054B83B001000093182213
:1007E0001F230348FFF7A6FF03B000BDB46300104A
:1007F0005CDA01200021044B044ABFF35F8F02C37F
:100800009342FAD17047C046000100D0800100D069
:10081000084B094A1360094A1360094A1360094AE0
:100820001360094A1360094A1360094A1360094AB0
:10083000136070478080808000E400E004E400E002
:1008400008E400E00CE400E010E400E014E400E060
:1008500018E400E01CE400E01F2318401E3B834026
:10086000002905D0C021044A490053501360704745
:10087000802201498B50FAE700E100E0012282402A
:10088000034B1B6813405A1E9341D8B27047C046B1
:1008900000E100E001238340014A13607047C04635
:1008A00000E200E0054B10309B688000C358044A0A
:1008B00000209B1A47229A424041704700ED00E019
:1008C000D410002010B5EFF3108C72B60F4A1368E5
:1008D000002BFCD0BFF35F8F0D4B10309B68800066
:1008E0001B580C4A934201D099420CD1084B9B688B
:1008F0001950BFF35F8FBFF35F8F0022034B1A6065
:100900008CF3108810BD01F067F9C046240100D0B7
:1009100000ED00E0C1010010F0B5DE4657464E463E
:100920004546E0B58B4685B0EFF3108872B61600E9
:100930005B4A1368002BFCD0B246BFF35F8F0025E3
:1009400058494D57002D00DAA8E06B00564A019334
:100950005B199B00D418A77910300F7053498000A1
:10096000896884460F58B91A472933D801203900BD
:100970008143CE79564500D86AE0A1465646039396
:1009800007E05800C01880001018C479B4424DD94F
:1009900001000623CB56002BF3DAB24602930B1D5F
:1009A0004C469946424B4E46043CA41B2405414EFE
:1009B000640D34438C808D71019949198900521856
:1009C0009380029B3C4993715346D3715B461160FF
:1009D000936017E039498F4260D139490127D152DC
:1009E00038490233D3180439CB1A324A1B055B0D40
:1009F00013436380344BE671A380FF23A3715B46EE
:100A00002743A3606246294B9B689F50BFF35F8FCB
:100A1000BFF35F8F0022224B1A6088F3108805B065
:100A2000F0BCBB46B246A946A046F0BDB2460E1D7C
:100A30004C46B14688880293039B40050015043359
:100A40004844D318C31A1B051A485B0D0343AAE791
:100A50009E1CB14691444E460F001C4DBF1A7F416B
:100A60007D432D0D164FA571D752164F0433043F09
:100A7000D318BF1BCB1A3F05043B7E0D1B050D4F42
:100A80005B0D3E431F435346E3715B46A3600A4B35
:100A9000A7806680044327000B60B3E701F09CF851
:100AA000240100D01DE00120D410002000ED00E062
:100AB00001BD000000E0FFFF01488047C1010010B8
:100AC00000A1FFFF1C11002001BDFFFFAAAA00002A
:100AD000F0B5DE4657464E464546E0B583B0EFF3E7
:100AE000108972B65D4A1368002BFCD0BFF35F8F8C
:100AF0005B4B5C4E9A68030010339C001259984679
:100B0000B2423BD08A424CD0574FBC46D71B472FEE
:100B100034D8564B1F271D680740AA460125BD4003
:100B200080270195DD51BFF35F8FEFF30585AB465D
:100B3000002D38D101231D00854028005546054071
:100B4000100098438768AA46B94208D17CE0730038
:100B50009B199B0063449F68B9422DD0180006265C
:100B60008657002EF3DAB9424CD05346002B1ED0E4
:100B7000C0213E4B0198490058501860384B9B6883
:100B80001A51BFF35F8FBFF35F8F0022334B1A60A0
:100B900089F3108803B0F0BCBB46B246A946A04614
:100BA000F0BD3200EAE7A845C4D001F015F8802373
:100BB0002E490198C850E1E70627DF57002F22DBB6
:100BC0007900C81985002E006644B0689860F079F5
:100BD000D871062030569871002826DB6046B6880A
:100BE000C01A76053615761980190005204E400D7D
:100BF00030439880CB191F499B0008786344987153
:100C00000F70B2E703005946002910D1FF318171FE
:100C100019498180174865460178997117495B1B0E
:100C20005B415943090D01709FE71348E1E71449FF
:100C30001448C91A08394E02760D3043988012487C
:100C400049080143D98090E70627C7570300002FC2
:100C5000B6DA59460029EAD13200DBE7240100D098
:100C600000ED00E0C1010010D410002000E100E020
:100C700000E0FFFF1DE0012001BDFFFFAAAA000068
:100C80002611002000F0FFFF00F8FFFF01230343BF
:100C900070B59C46EFF30581EFF3108572B6274AD5
:100CA0001368002BFCD0BFF35F8F254A0400254B4F
:100CB000A41A644163431B0D234C8900A6685BB2F0
:100CC0007658664524D006215156994224D01221E7
:100CD000515699422AD01E215156994228D02A2194
:100CE0005156994226D036215156994224D042215C
:100CF00051560524994210D0144A1178137081710D
:100D0000BFF35F8F00220D4B1A6085F3108870BD12
:100D1000A2680F4C5450EFE70024610009198900C4
:100D20005218FF2191710B499180E5E70124F4E706
:100D30000224F2E70324F0E70424EEE7240100D0C4
:100D4000D4100020AAAA000000ED00E01DE0012060
:100D5000C101001001BDFFFF00B5074B83B00100CA
:100D60000093002205230548FFF7E4FC002801DB7F
:100D70001F23181A03B000BDD063001021E001202A
:100D8000024BC918890001607047C046400000341A
:100D9000F8B5144C144EB44223D2013E361B002544
:100DA000FF27F6080EE0FFF709FD01002000FFF71E
:100DB000E7FF002327716371BFF35F8F0834B542EB
:100DC0000FD001352368002BEDD1FFF7F7FC0100B0
:100DD0002000FFF7D5FF2771BFF35F8F0834B542BE
:100DE000EFD1F8BDD8110020E011002010B50400AB
:100DF000FFF7E4FC01002000FFF7C2FFFF2323718F
:100E0000BFF35F8F10BDC04610B504000120FFF78F
:100E1000E1FC034BC01880002060BFF35F8F10BD62
:100E200040000034034BC91889000160BFF35F8F95
:100E30007047C046400000340A4B1968EFF3108039
:100E400072B60A68002AFCD0BFF35F8F1B68BFF33D
:100E50005F8F00221A6080F3108840BF00200021BD
:100E60007047C046F0DF0120F0B5DE4657464E46DB
:100E70004546E0B585B0EFF3058303221A40B84B31
:100E800091005F58012393409B4602925A46884640
:100E9000B44B1A60B44B03935B46B44843630823D6
:100EA000FE5E002E37DA0422BB5E002B00DBA4E0DE
:100EB000BB79002B00D0E4E00823F95E002920DB99
:100EC0004B007A695B18DB00D3189D68DC686B1CEB
:100ED00000D10AE1A54801004144826A0B69AE1ABB
:100EE0009B1A9E4215D30123026A029883401A423C
:100EF0000FD09E4800F0A4FB8C4202DCCCD185428E
:100F0000CAD940BF05B0F0BCBB46B246A946A04610
:100F1000F0BD0D61EDE77A69730091469B19DB0026
:100F200099444B469C68DD6800F08AFB8D42BADC30
:100F300000D104E1002D00DAE9E04A464B4652694F
:100F40001B699246039A934200D1DAE04A4608218F
:100F5000785E5288000451461043984700900191F2
:100F60000099019A0B00134300D1D0E013000A004E
:100F7000002B00DBE7E020002900801A99414B4656
:100F80009860D96000229B5E002B00DA8BE75D0041
:100F90007C69EA18D200A21800949468D268A2462C
:100FA0008A4200DD7FE702D1844200D97BE7082432
:100FB000A4463B81BC44009C00972F006546B44684
:100FC0003E0006E05E00F218D200A2189768D268D0
:100FD000BA468A4207DC00D1CAE0F318DB00E51804
:100FE000E35E002BEEDA4A466646009F13802E80B1
:100FF0000422BB5E002B00DA5AE73A69EFF3108156
:1010000072B61368002BFCD0BFF35F8F0423FE5E23
:1010100001235B42BB803B69BFF35F8F00221A60F4
:1010200081F31088002E00DA42E708239946BC4677
:101030007D69B94463467400A41908229A5EE400ED
:101040002C19002A55DBA7684946E068009706E09E
:1010500087423ED019000023CA5E002A06DB5300F7
:101060009B18DB00EB18DF688742F1DD0E80002360
:10107000E65E2280002EDDDA6746BB79002B00D1C8
:101080001AE70023BB710822BB5E5A1C00D138E767
:101090003D0008352E00786903E00E005A1C00D18F
:1010A0000AE71A005B009B18DB00C118C35E02252B
:1010B0004C5F002CF1DA01246442E5178C60CD60AE
:1010C00008257C5F9442E9D033803C890C803A81CA
:1010D000E4E79F68BA46009FBA45BBD90E8000235B
:1010E000E65E2280002EA5DAC6E7631C00D0F1E69A
:1010F000FFE649460E800023E65E2280002E99DA44
:10110000BAE7534650461B699847002823D14B46FF
:101110001B883A693B81EFF3108372B6116800298E
:10112000FCD0BFF35F8F49467A880A803A697E8097
:10113000BFF35F8F0021116083F31088B3E6844210
:1011400000D8F7E6AFE6094800F07AFA009B019C68
:10115000C018614113E753460CCB00920193FFE6A0
:10116000D4DE01203C700540690E001000400540AF
:10117000824500D831E736E770B52D4C2569002D42
:1011800004D00A212B48FFF7FBFD70BD2A4E032136
:10119000294800F04BFAE660FFF710FB274B0322CB
:1011A000C018D02322701B061B6801216370244BDA
:1011B0008000A3600F23206102206380636949429D
:1011C000A18019800231198647311D835852183188
:1011D0005A5275325C39995218320131995218328B
:1011E00001319952183201319952083518329D5205
:1011F00002311832995218320131995218320131A4
:1012000099521832013199521832013199521832DB
:10121000013199520B4B0C49DC6001303562FFF70C
:1012200051FB01210320FFF717FB084B1D60A8E7C6
:1012300040110020F0DF0120004005404000003454
:10124000FFFF1000D4DE0120690E00103860054059
:101250000048704740110020F8B51F0008AB1B780C
:1012600004001600002B07D100F0F2F932003B0019
:10127000121A8B41002B51DB2269EFF3108C72B6EE
:101280001368002BFCD0BFF35F8F0223E15E25695A
:1012900000293ADB4B0060695B18DB00C218C35AB7
:1012A0006380BFF35F8F00232B608CF31088069B55
:1012B0009660D7601361079B5361538801335B04C9
:1012C0005B0C181C002B1ED083B2508008041843FE
:1012D0002569EFF3108672B62B68002BFCD0BFF3A4
:1012E0005F8F0425635F1380A1802369BFF35F8F45
:1012F00000221A6086F31088237801329A40084948
:10130000E3685A50F8BD0120DEE7BFF35F8F00238A
:101310002B608CF3108801204042F3E70020F1E7B6
:101320003C20000070B582B0009201930100026978
:10133000EFF3108472B61368002BFCD0BFF35F8FFD
:101340000223C85E0D6900283FDB4A69430016008E
:101350001B18DB00D218F35A4B80BFF35F8F0023BA
:101360002B6084F31088069B1361079B5361009BDD
:10137000019C9360D460538801335B045B0C1D1C9B
:10138000002B20D0ACB20304558023430D69EFF34A
:10139000108C72B62C68002CFCD0BFF35F8F042534
:1013A0004C5F148088800A69BFF35F8F0020106053
:1013B0008CF310880A7801309040CA680749505071
:1013C000180002B070BD0125DCE7BFF35F8F00237A
:1013D0002B6084F31088013BF2E7C0463C200000FC
:1013E00010B543890A14934219DD53009B184269D2
:1013F000DB00D3180469EFF3108C72B62268002A60
:10140000FCD0BFF35F8F5A880904090C914208D0C1
:101410000369BFF35F8F00221A608CF310880020ED
:1014200010BD094A0A435A80012302698371BFF340
:101430005F8F002111608CF310880278034993407C
:10144000C26801205350EBE70080FFFF3C20000002
:1014500040787047F0B583B0040000F0F9F8FA2244
:1014600006000F00200000230021920000F098FDEC
:101470008019794104000D1E02DA01242C4D6442CA
:1014800006267642F71736196F41AF4212D80FD0B1
:1014900000F0DEF832003B00121A8B41002B13DC07
:1014A000002B41D02000290000F012F903B0F0BD5C
:1014B000A642EDD90026002700F0CAF832003B0012
:1014C000121A8B41002BEBDD00F0C2F832003B001A
:1014D000121A8B41002B0ADB00230193154B3200BB
:1014E000009315483B00FFF71DFF0130DAD03900AB
:1014F000124A1348536A994204D8976AB742D1D224
:101500009942CFD10768EFF3108C72B63B68002B7D
:10151000FCD0BFF35F8F0368BFF35F8F00271F60AE
:101520008CF3108820BFE5E7002ABBD0CCE7C0468B
:10153000FFFFFF7F390E00104011002000400540E2
:10154000F0DF0120F0B5CE46474680B504000D001F
:1015500085B0EFF305838946002B32D12F4E3368D7
:1015600083422AD02E4FFB683A789846180003929F
:1015700000F066F8039A131D42469B009B58220018
:101580001B1A9C462B00121A8B41190000231000D5
:101590008B421EDC1BD020BF224B586A484514D317
:1015A000401B9A6A431E98410023A2425B411843A4
:1015B00005B0C0BCB946B046F0BD73688B42D1D10E
:1015C000E9E7184B586A8842EAD20020F0E78445E0
:1015D000E1D900F03DF822002B00121A8B41002BBC
:1015E000DADB00230193104B2200009338002B001C
:1015F000FFF798FE0028CFDD0A4B30C65A6A4A45ED
:1016000009D39B6AA34204D301003800FFF7E8FE28
:10161000C2E74A45F8D120BFF6E7C046381100209E
:101620004011002000400540390E001010B5024A5C
:101630000248FFF757F810BDEC63001060DA012094
:101640000300416A0A00986A596A8A42FAD17047CF
:10165000034B596A0A00986A596A9142FAD1704755
:101660000040054070B505000E00184A536A190085
:10167000946A536A8B42FAD1200019002C0035007D
:1016800024184D41AB4216D813D0104B2A005B6A88
:101690009D4203D90D494B6A9342FCD3934207D133
:1016A0000A4A02E0516A994202D1916AA142F9D3F1
:1016B00070BDA042E9D9054B5B6A1C005A1CEFD0F3
:1016C000012201246442E5175242E3E7004005404D
:1016D000064A536A9942FCD807D1044B02E05A6A81
:1016E000914202D19A6A8242F9D370470040054084
:1016F000F8B5040006200D0000F064F9002843D07E
:10170000354B3649E3185A1E934180225B429B0DAC
:1017100012049B059B18324A1360324A136018006A
:101720000A689043FBD12C4B2F4AE31859424B4196
:1017300080215B0049000620995200F043F92900FE
:10174000C00000F09BFB0130C3091ED140270122DD
:101750006262A362266BF30722D4E36A234B06205E
:10176000E51800232B60266300F02CF93900800077
:1017700000F084FB7023E26A5A400E3313402B6062
:101780001B4B23630323A364F8BD1A4A93421CD95D
:101790000023194A194F6262A362266BF307DCD556
:1017A000134A174B0620E250656AA36AAD01ED1893
:1017B00000F008F9134900F061FB0100A80200F0F5
:1017C0005DFB0021FFF74EFFC7E740069A01800E40
:1017D00017181A000300BBE70080FCBF08C00040D8
:1017E00000E0004000F0004000E001202C1000006C
:1017F00001030000FEFF0000FFFF0000C0FF3F00EC
:10180000303000004E0E0000F8B5DE464E4645462C
:101810005746E0B505008B4618000A99914600F03E
:101820002DFB0A9B6C001E0264192E4BA400E418C9
:10183000636880469E4200D96660C0232F1FFAB2BB
:101840009B019246E318012A2BD98022264FAD0036
:10185000795912011A6000291AD14B4622685B019E
:101860005340E022134080225201A21813605346D5
:10187000012B2BD9802380229B011201E250434689
:1018800066607B51F0BCBB46B246A946A046F8BD97
:10189000786900F0F3FA013043001B18033BFDD2D6
:1018A000DBE75A46012AD0D102321A60023AA36815
:1018B0001A42FCD04A46236852015A40E0231340A2
:1018C00080225201A218084F1360AD00584603232E
:1018D000216841400B40136001228240A3681A42F4
:1018E000FCD0C7E70080004064DA0120F0B5D6469E
:1018F0004F464646440098462418304BA400E4184E
:1019000063688A469146C0B5FF2B02D880235B00EE
:101910006360C023061F9B01F6B2E318012E2BD98A
:101920008022274F8500795912011A6000291AD1A7
:101930004B4622685B015340E02213408022520153
:10194000A2181360012E2CD9802380229B01120142
:10195000E25080235B00636043467B51E0BCBA46A3
:10196000B146A846F0BD786900F088FA013043001E
:101970001B18033BFDD2DBE75246012AD0D10232CD
:101980001A60023AA3681A42FCD04A462368520100
:101990005A40E023134080225201A218084F1360DE
:1019A000850050460323216841400B40136001220B
:1019B0008240A3681A42FCD0C6E7C04600800040BF
:1019C00064DA0120014B8000C058704764DA0120BE
:1019D000F0B5C646040000B5224890461E000D0032
:1019E00000F04CFA0100404600F048FA069B84469D
:1019F0001A03236830041043002B22DB1A4BE21831
:101A0000531E9A4180235242120B9B011203D2189B
:101A1000164B1A60164B1A60164B160019688E4347
:101A2000FBD1634621222560A360134BE3181A60A3
:101A30002268002AFCDA0822E0601A6080BCB846FE
:101A4000F0BD3F2322681340AB42D7D1A3681B05EA
:101A50001B0D6345D2D1EE22E368D20213408342CC
:101A6000CCD1EBE7001BB7000040FDBF00E0004019
:101A700000F0004008C00040043000008C46802187
:101A80001B4BC905196000281BD0012319491843B5
:101A9000194BD961194941401962614659629862EE
:101AA0008021134BC9051960154816490860E021CB
:101AB000C9041960002A07D18022134B12061A604C
:101AC00070470D4BD861EBE753019B1A9B009A18A6
:101AD0000E4B12019A4209D813000D490B60064BB8
:101AE0005A608022084BD2051A60E9E71A00F4E731
:101AF00000B00540D3C007B0008005402D3FF84F2F
:101B0000FCFF01000820014000A00540FFFFFF008E
:101B1000C4DE01208023024A9B000B43D36270473E
:101B200000800540002310B50100988A1B8B984760
:101B300010BDC046002310B50100D88A1B8B984702
:101B400010BDC046F8B54746CE4680B50F1E18D02A
:101B500014239946043304000025012698464B4679
:101B60001888434621681B88984701C4431E984142
:101B700001350640AF42F2D13000C0BCB946B04694
:101B8000F8BD0126F8E7C046002370B504000D003B
:101B9000988A05491B8B984703000020002C01DB25
:101BA0000130A0402900984755420000AA23064A68
:101BB0001B0113608D235B00D3600449044B196043
:101BC0005368002BFCDA70470040024000B0FA0076
:101BD000006002407047C04610B50148FEF76AFD3C
:101BE0001064001070B5074D074EB54209D20024AD
:101BF000013E761BB608013608CD01349847B44241
:101C0000FAD170BD90600010CC600010054B064A00
:101C100006491A60064A074B1A6010000B68984381
:101C2000FBD1704700E00040BFCDFBFE08C0004084
:101C3000FE7F3C0000F00040044BDB6C002B03D126
:101C40008022034BD2021A607047C0460000115038
:101C50004C201150044A054B1A60054A1368DB01F9
:101C60008033FBD17047C046FFFFFF0100F000400A
:101C700008C000404022034B9A675A671A67DA6629
:101C80007047C04600F0014010B5FEF7B3FD10BD2F
:101C900070B52749274D284E6D1AAC082200302C0C
:101CA00000D930223000920000F0D8F92F2C3CD817
:101CB00023002A3B214A052B1CD9302075196D07BA
:101CC000A446001BEB0F002D03DAA1007250611C2B
:101CD0008C46C01AE31845089B00F318E900C918A0
:101CE0001A605A6008338B42FAD16D00A8421CD0AA
:101CF0002C006444A300F250631C2F2C15D09B00D1
:101D0000F250A31C2E2C10D09B00F250E31C2D2C63
:101D10000BD09B00F250231D2C2C06D09B00F250C0
:101D2000631D2B2C01D09B00F250054B9E6070BDB3
:101D300000010010C001001000000020C1010010CF
:101D400000ED00E0002310B5294C82B0A367FFF737
:101D50002DFF0122274B1A60636C012BFCD103225B
:101D6000254B1A60224A936B012BFCD1013300935F
:101D70000121224A22480433FFF72AFE05230121CC
:101D80000093204A2048FFF723FE0022022104206E
:101D90001E4BFFF7ABFD0022012105201C4BFFF776
:101DA000A5FD0022002107201A4BFFF79FFD00220E
:101DB00000210820174BFFF799FD8023DB000093DB
:101DC000002200210920134BFFF71EFD0022104BBB
:101DD00000210620FFF78AFD0420FFF7F3FD0E49DE
:101DE00000F04CF801000020FFF794FE02B010BD97
:101DF000008000403CB0004030B00040002F6859E7
:101E000000800240008C864700C00240001BB700E3
:101E100040597307006CDC0240420F000148042166
:101E2000014B184760110020451B0010124A936FA8
:101E30009B0815D29066D166002905D0FFE7FFE721
:101E4000FFE7516F106F704704B580210906C21774
:101E50005140002800D0C84304F00AF9002104BD15
:101E6000F0B5146E556E576F166FFFF7E3FF1466EB
:101E7000556657671667F0BD000000D0114A936F92
:101E80009B0813D210665166002905D0FFE7FFE7D3
:101E9000FFE7516F106F704704B5002801D0002094
:101EA000C04304F0E5F8002104BDC046F0B5146E4F
:101EB000556E576F166FFFF7E5FF14665566576747
:101EC0001667F0BD000000D010B50148FEF7F2FB28
:101ED0001C640010002370B5DD7C012D19D014DDC9
:101EE0001D48FFF727FE06001C48FFF723FE1C4C89
:101EF00080223100200000F0B1F8022D06D01948F0
:101F0000FFF710FE184B186070BD154C174BA364FB
:101F1000F5E7174B124C23606360A360E360236115
:101F20006361A361E36123626362A362E36223638B
:101F30006363A363E36323646364A364E36423656B
:101F40006365A365E36523666366A366E36623674B
:101F50006367A367E367D9E7534400005346000073
:101F6000301400204C330000ECDE0120751F0010FF
:101F7000C91E001007B5604601880A0A0230DF2A30
:101F8000FAD1C9B2820804D3028840880004104301
:101F900000E00068014A5050039007BD3014002053
:101FA00051434343C9188C46110C83B24B4310B4C0
:101FB000040C614392B280B2504362431C041B0C78
:101FC000001910BC59411304120CC018514161444E
:101FD0007047000010B50148FEF76CFB78650010F3
:101FE000002310B5DC7C1148FFF7A4FD012C0BD0B9
:101FF00004DD010080220E4800F030F80D48FFF7A4
:1020000091FD0D4B186010BD094C010054222000B9
:1020100000F024F822002000084980320368002BD9
:1020200000D1016004309042F8D1E7E75346000048
:10203000F0DE01204C330000ECDE0120D51F001043
:1020400001480421014B184770110020451B001066
:10205000014B1B681847000070110020014B5B68A2
:10206000184700007011002010B5002800D110BDE5
:1020700000F022F9FBE7C04610B5094A03001468D6
:1020800084B0002C08D0012200910648524203A9D6
:10209000A047012004B010BD00F058F90020F9E776
:1020A000C0DE01206920001000BEFDE77047C04679
:1020B00010B5FFF7F9FFC04670B5FFF793FD074D68
:1020C000074EB54209D20024013E761BB608013600
:1020D00008CD01349847B442FAD170BDCC600010ED
:1020E000D0600010030010B5080011001B6898476D
:1020F00010BDC046F8B5437D07000D001600002B4B
:102100002DD0002A1ADD0B780A2B2DD00020012EAD
:1021100009D0012421006B5C01340A2B0FD0A642A8
:10212000F8DC864203DD311A3B6828189847AD1960
:10213000013D2B780D3B5A4253413B75F8BD6B1E58
:102140005B5C0D2BEBD0884203DA091A3B68281838
:1021500098470B4802213B6898472000DFE7036857
:10216000110028009847E9E7037D002BCED102211A
:1021700003483B689847012ED9D00120C9E7C046E3
:10218000D0650010F0B54646D6464F46C0B582B081
:1021900090461C0006000D00FFF75AFA00232F4A54
:1021A00012184B41002B02DA01222D4B52422D49CD
:1021B00008008A4603F03CFF81466B1C03D13000C7
:1021C00003F0D4FE0500002C27D0274F274B1C68B6
:1021D000002C18D04346002B21D1254B984602E015
:1021E0002469002C0FD02368002BF9D043461B68CC
:1021F000002B01D09C42F3D120002A003100B847C7
:102200002469002CEFD14B46002B23D1280002B0CB
:10221000E0BCBA46B146A846F0BD164FD6E7144B0F
:10222000984602E02469002CEDD02368002BF9D0F9
:1022300043461B68002B01D0A342F3D12A00310092
:102240002000B8476B460A222000DA71D91D093AEE
:10225000B847E7E7504603F013FFD7E740420F00C7
:10226000FFFFFF7FD8110020F5200010B4DA012015
:10227000BCDA0120E52000100A4A1368002B05D1C2
:102280000CE01A001B691032002B07D09842F8D1DD
:10229000002902D103691360016170470029FCD055
:1022A0001060FAE7B4DA012010B500F035F900F05B
:1022B000EBFA012010BDC046F0B5CE46474680B5CA
:1022C00083B06B460600DD1D2870FFF7C1F90023BF
:1022D000194A12184B41002B02DA0122174B5242C5
:1022E00017490800894603F0A3FE164B80461C6878
:1022F000002C14D0144F02E02469002C0FD0236866
:10230000002BF9D03B68002B01D09C42F4D1200077
:1023100001222900FFF7EEFE2469002CEFD143468D
:10232000002B05D1300003B0C0BCB946B046F0BDAB
:10233000484603F0A5FEF5E740420F00FFFFFF7F90
:10234000D8110020B4DA0120BCDA012070B50400F5
:1023500003F00CFE01230100050001222000FFF71D
:1023600011FF084B1C68002C06D06368002B05D0B9
:1023700098472469002CF8D1280070BD2469002CEE
:10238000F3D1F9E7B4DA0120F0B5002915DD0E4BE1
:102390000D271A680D4B0E4CD3185D426B41451842
:1023A00020215B001E5F0478A64207D09369194282
:1023B000FCD101301460A842F5D1F0BD93691942F7
:1023C000FCD11760F2E7C04604E001200080FCBFAA
:1023D00000E001201E4B30B51B680D1E9C4629DD18
:1023E000441E102100201B4B1A689369194213D117
:1023F000013093691942FCD1136823548542F4D10A
:102400006346002B06D050239363516B183B0B405F
:1024100011495350280030BD6346002B06D050238D
:102420009363516B183B0B400B4953500028F2D17A
:102430000338F0E7002B08D05022064B1B689A6344
:10244000596B183A0A4004495A5003204042E2E7C7
:102450004CDA012004E0012034100000064B10B5D6
:102460001B68002B06D00021044A12689163044ABD
:102470001068984710BDC0464CDA012004E00120E6
:1024800054DA01200822034B19688B691A42FCD1E7
:102490007047C04604E0012070B5194E194A3368F0
:1024A0000400981842425041174D14302A68002CFD
:1024B00002D0002A0FD070BD002AFCD006009C6319
:1024C0000021FEF7C9F930001049FEF701FB104B5F
:1024D0002C601C60EFE72C6004000D4B19600B4969
:1024E000FEF7F0F901212000FEF7B6F9502233681B
:1024F0009A63596B183A0A4006495A50DBE7C046BE
:1025000004E001200080FCBF4CDA01205D240010B3
:1025100054DA0120341000000D4B10B51B780D4B20
:102520000D4C1B780D4B02211B780D4B00202360B6
:10253000FEF762F802210120FEF75EF8E121206833
:102540004902FFF7D5F801210648FFF795FE10BDB7
:10255000706A00106C6A001004E00120686A0010C4
:102560000040034080110020024B1860024B1960AC
:102570007047C04650DA012058DA012010B5024BEE
:102580001878FEF787F910BD1FE00120154B70B5D4
:102590001A68002A22D0EFF3108172B61068002862
:1025A000FCD0BFF35F8F00200F4A596010701B688A
:1025B000BFF35F8F186081F31088002400250B4E55
:1025C0003078FEF75BF9002804D1002400252900AB
:1025D000200070BD3078FEF75DF9F8E7FA24002599
:1025E000A400ECE7CCDE012020E001201FE0012068
:1025F00070B5050000200E0001F076FB002835D0F4
:10260000002001F089FB002830D0FFF721F80023DB
:10261000184A12184B41002B16DB174C200003F010
:1026200007FD002822D0002001F05EFB00280FD11A
:10263000012000210325404200F092FD6D42200060
:1026400003F01EFD280070BD01220C4B5242E4E74E
:10265000002001F061FB0028EAD0290032000020B0
:1026600001F064FB051EEAD1033DE8E703256D4256
:10267000E8E7C04640420F00F8DF0120FFFFFF7F80
:1026800010B5FEF7E5FF00230D4A12184B41002B51
:1026900002DA01220B4B52420B4803F0C9FC00281E
:1026A0000CD001200021404200F05AFD002001F032
:1026B00081FB0028F5D1044803F0E2FC10BDC046C0
:1026C00040420F00FFFFFF7FF8DF0120F8B5CE4644
:1026D000474680B505000C00FEF7BAFF0023344AD8
:1026E00012184B41002B02DA0122324B524232497E
:1026F0000800884603F09CFC002803D1C0BCB94602
:10270000B046F8BD002001F0EFFA002848D0002CB8
:1027100042DD2A4B0026994613E0A919002001F05A
:1027200085FB070001200021404200F019FD002038
:1027300001F040FBFEF78CFF204BF61903C3B442B7
:102740002ADD002001F090FBA71B0200B84200DD4B
:102750003A00002AE1D101200021404200F000FDB2
:10276000002001F027FB002001F0BEFA002813D062
:10277000002001F079FB0028E1D1FEF769FF4B460C
:102780000F000CCB002184460D4812184B419F428C
:1027900002D8D4D19445D2D9404603F071FCADE7BC
:1027A00000200021054B03C3404603F069FCA5E768
:1027B00040420F00FFFFFF7FF8DF012028140020B8
:1027C00020A1070030B5002185B0284803F000FCA7
:1027D00000281BD1264B1A68002A15D0EFF3108170
:1027E00072B610680028FCD0BFF35F8F0124214A25
:1027F000596010781B681470BFF35F8F00221A6055
:1028000081F31088002817D005B030BD01200021C9
:10281000404200F0A5FC002001F07EFA05001348BC
:1028200003F02EFC002DEFD0134B1B68002BEBD0D8
:10283000124A10689847E7E7FEF70AFD0400FEF722
:1028400007FFFA220023920012184B41002B02DAF4
:1028500001220B4B524201210291002101910949B1
:1028600020000091FEF7F8FCCEE7C046F8DF01201B
:10287000CCDE012020E0012050DA012058DA0120CE
:10288000FFFFFF7F8D250010D02330B51B0685B0DC
:102890001D68FEF7DDFCFEF7DBFD0024A84202D038
:1028A000200005B030BD294B002100201B7801F02D
:1028B00097FC27480368002B44D00120FEF74CFA10
:1028C000FF23244C244920701840FDF7FBFF20789B
:1028D0000121FDF7C1FF0520FDF7E4FF041E24D10F
:1028E000082200211D48FFF7B3FBFEF7B1FC0500ED
:1028F000FEF7AEFEFA220023920012184B41002B85
:1029000002DA0122164B524201210291002101916B
:10291000144928000091FEF79FFC0028C0DB01212C
:102920001148FFF7A9FC0124BAE70120FDF752FF87
:1029300001000A48FEF776FA002205200B49FDF750
:10294000EBFFECE7FEF752FAB7E7C046746A0010F7
:10295000F8DF01201FE00120C5270010CCDE012098
:10296000FFFFFF7F8D250010981100207D250010AE
:1029700000487047686600100048704714660010F1
:1029800010B5040016480378002B20D0002C06D187
:10299000144B15484380063BFF3B038010BD052CBC
:1029A0001CD8124BA400E4580F480123811C013CA1
:1029B00004E001330A800231142B0CD0E25C002ABF
:1029C000F7D1C022DBB25B0092001343E5E711218F
:1029D00000F016F8DAE7CA239B00DEE70020DDE707
:1029E00008E00120090400008CDA0120FC650010D9
:1029F00010B5024800F0F4F810BDC046E4DE012036
:102A000030B5012900D1BBE0744B01391A7812119D
:102A100014003034092A00DDB5E00470012900D12A
:102A2000DAE00F221C78224014003034092A00D941
:102A3000ACE04470022900D1CEE05A7894461211DD
:102A400014003034092A00DDA3E08470032900D18A
:102A5000C2E064460F22224014003034092A00D913
:102A60009AE0C470042900D1B6E09A789446121115
:102A700014003034092A00DD91E00471052900D1E9
:102A8000AAE064460F22224014003034092A00D9FB
:102A900088E04471062900D19EE03025AC46DC7800
:102AA00022119444092A00DD7FE0624682710729E1
:102AB00000D191E00F22224014003034092A00D9BD
:102AC00077E0C471082900D186E03025AC461C7936
:102AD00022119444092A00DD6EE06246027209293F
:102AE00000D179E00F22224014003034092A67D83F
:102AF00044720A2900D16FE03025AC465C7922117E
:102B00009444092A5FDC624682720B2964D00F224A
:102B1000224014003034092A59D8C4720C295BD0E1
:102B20003025AC469C7922119444092A02DD0735F0
:102B3000AC469444624602730D294DD00F222240C8
:102B400014003034092A01D93732140044730E2995
:102B500042D0DA7913111C003034092B01DD3733F0
:102B60001C0084730F2937D00F2313401A0037320B
:102B7000092B01D830331A00C27310292CD0103021
:102B80000023037030BD3732140046E7373214009B
:102B90004FE73732140058E73732140061E7373215
:102BA00014006AE73732140073E70735AC469444E3
:102BB0007BE73732140084E70735AC4694448CE752
:102BC0003732140094E70735AC4694449BE737321C
:102BD0001400C4720C29A3D14018D1E7E4DE01200F
:102BE00010B588B004000D2200216846FFF730FAC6
:102BF0000D22002104A8FFF72BFA6A464B236846F2
:102C0000137004A900230D2203F01AFA15210822DB
:102C100020006944FFF722FA08B010BD7047C04693
:102C20000022014B1A7070471EE001204B79FF2BE8
:102C300005D18B79002B02D1CB79012B01D000205B
:102C40007047082AFBD9024B8A7809201A70F7E7E7
:102C50001EE001200120704710B5012901D001209C
:102C600010BD14495379107909781B020343994226
:102C700001D00020F4E75378012B07D0022BF8D1C4
:102C8000642200210020FEF7F9FEE8E7D17893786E
:102C90000902194380230A005B001A40194206D03A
:102CA0000A06D20F480A03231940FEF76DFF0120E0
:102CB0004042F8E71EE001200048704724670010FA
:102CC0009446012310B501290AD15378012B06D16E
:102CD00013005B7912791B021343072B02D00023E8
:102CE000180010BD9F336146024A00F0E7FE030062
:102CF000F6E7C0467C660010012303700048704769
:102D0000486700104B780A781B0213438A7810B585
:102D100012041A43CB781B0613439622D200934227
:102D200000D010BD0022012011004042FEF72CFF10
:102D3000F8B500F03FF90C23194DFF22AB670520D1
:102D40001849FDF7E9FD184C402200212000FFF74B
:102D50007FF94027002301262121144A667027832A
:102D6000A260136063545F31618445396354104A33
:102D700010496360E2602787A1620B606362E262D0
:102D800003F036F980239B052E64EB6490230A4AF6
:102D90000120EA508022094B5202DA64F8BDC04695
:102DA00000001150C9040020C0DA01208400105036
:102DB000000110508000105010D001000020115070
:102DC00010B501210520FDF747FD10BD10B500220B
:102DD0000021024800F00EF910BDC046E0DA0120E3
:102DE000044B1970002904D080219023024A8902E3
:102DF000D15070471AE00120002011500B785B067B
:102E000000D070474B78052BFBD18A78014B1A60B4
:102E1000F7E7C04600001150F8B5CE464746CA78DD
:102E200080B59207930F1A00012B5CD04B790C7977
:102E30001B0223435B055E0D7F2388782F4D0340E3
:102E4000C409590089460919490169188870C043A5
:102E5000C0B2C009487000200E83C870CA7637001F
:102E6000D900012C2FD0264E89199E01B446AC44BE
:102E70006646B1600860002B2FD0D900214BC918DD
:102E800071603B003F339B09022A33D09B011E49EE
:102E900008688C464946091949016D186146C318EE
:102EA0000B601A49E8608B4226D8194B92064340C2
:102EB0001A4380231B0613436A6813600120C0BCB9
:102EC000B946B046F8BD134E89199E01B446AC44CC
:102ED0006646B1620860002B07D164012C1963605B
:102EE0000D4BE360EAE70020E9E7D900084BC91879
:102EF0007162C6E7DB01CAE7FEF76EFEC0DA0120A9
:102F00008400105004001050C8DE0120FF0F105044
:102F100000001050800010500001105010B503F058
:102F200067F810BD7F2010B508404000C90940185F
:102F30001100044A400180181A0000F05BF80120DB
:102F400010BDC046C0DA01207F23180000B508403C
:102F500083B00B4204D14B424B41084A0133936684
:102F60008022C9094000064B401840010021C018CA
:102F7000120103F045F803B000BDC0460020115017
:102F8000C0DA01207F22130010B50B400A4200D1A5
:102F900010BDC9095B005B1804485B01C018002321
:102FA00000220349C37003F02BF8F1E7C0DA0120D7
:102FB000FFF7FFFF80220A4B520410B51A60094B3D
:102FC00009491A6010000B689843FBD18022002148
:102FD00052010648FFF73CF80922054B5A6710BD1D
:102FE00000E0004000F0004008C000400000105029
:102FF00000001150002310B5C38201338282837612
:103000000161040002F0ECFF002804D0802190232D
:10301000074A8902D150200003F022F8002802D08C
:103020000123237710BD200002F0FAFFFAE7C04623
:10303000002011507047C0467047C04600207047BE
:10304000002070477047C0467047C0467047C04672
:103050007047C046024B5878431E9841C0B2704733
:1030600030D80120024B18784007C00F7047C04687
:1030700030D80120F0B5D6464F464646C0B52D4B58
:10308000814698461B788A460124FF2B3ED10029B1
:103090003BD0002154222848FEF7DAFF0022274CBB
:1030A000274B20001A70FDF7A1FE264B1C60264C12
:1030B0002000143CFDF7A8FE200001F05FFB234B2D
:1030C000234D1C60234B002B04D02800FFF714FE77
:1030D000214B186000242B78204F1F4E0DE03368E1
:1030E00062019B18002B10D05B68002B0DD0984715
:1030F00001342B78E4B2A3420ED3A342EFD8E31AF3
:103100005B01DB195B68002BF1D100242000E0BCDF
:10311000BA46B146A846F0BD42464B4651464846DF
:103120001370FFF705FE041EF0D04846FFF748FE77
:10313000ECE7C046CC11002030D8012028D801206F
:103140001BE0012084D80120C411002088D8012070
:1031500019E00120F92C001048D701201068001058
:10316000F0B5DE4657464E464546E0B5C14B91B0F8
:1031700003931B78FF2B00D137E1BF4BBF4E98461E
:10318000BF4B0DAC0293BF4B019335686A69EFF3F7
:10319000108172B61368002BFCD0BFF35F8FA9615A
:1031A0002800210001F03CF96A69AB69BFF35F8F29
:1031B0000021116083F31088002800D115E16378A5
:1031C000082BE2D842469B00D3589F466368002BE9
:1031D000DBD0A0689847D8E77F222179A84D0A4024
:1031E0005300C809EB181B18180001273030057967
:1031F000BD43057105790337BD430571002A00D130
:10320000FAE0A14A1B7D1278934200D3EBE09F4A7B
:103210005B011568ED18002D00D1E6E0A368627926
:103220002078AD69A847B0E7994B1A78002A00D1F9
:10323000DBE01A78013A1A701B78002BA5D1012225
:103240008F4D01212B78042013432B703423EA5C2B
:103250008A43EA54EA5C8243EA540133EA5C8A43D3
:10326000EA54EA5C8243EA54237800209B4600F04B
:103270007FFC602223791A40602A00D1E4E0402AD2
:1032800000D1EAE0DB06DB0E012B00D108E1022BC6
:1032900000D1BEE0002B00D0D6E0202A00D103E20E
:1032A0006379092B00D9CFE07A4A9B00D3589F4617
:1032B000734D2B78DB0700D467E7FFF7C9FE64E79F
:1032C000029BDB78DB0700D45FE76068FFF7B4FEA2
:1032D0005BE76B4D2B78DB0700D456E728780007B7
:1032E000C00FFFF7B3FE50E7664A674F2378934657
:1032F000664A994692463A003B7800254F46B146C9
:1033000016000EE053461B686A019B18002B00D183
:103310007AE0DB683800984701353378EDB2AB428C
:103320000CD39D42EED3EB1A5B015B44DB683800A3
:10333000984701353378EDB2AB42F2D2504D54226A
:1033400000212800FEF784FE1022FF21281DFEF731
:103350007FFE28002022FF2114304E46FEF778FE23
:1033600000F0FCFB2379AB700FE72378464F9946BA
:10337000464AB3463B783E00002592464F460DE054
:1033800053461B686A019B18002B3BD0DB68380052
:10339000984701353378EDB2AB420DD39D42EFD360
:1033A000019AEB1A5B01D318DB68380098470135A6
:1033B0003378EDB2AB42F1D2029D542200212800B5
:1033C000FEF746FE1022FF213348FEF741FE28009B
:1033D0002022FF2114305E46FEF73AFE00F0BEFBCD
:1033E000FFF732FED1E6934211D011B0F0BCBB46DC
:1033F000B246A946A046F0BDA3686279207800F0E5
:10340000CBFBC2E65E46E9E74E461D4DA8E71D4DE3
:1034100004E77023217A0B4216D17F27CB099A4605
:103420000F407F001848EB1953441B7D00788342FE
:103430006BD216485B01006881469944002A00D18E
:1034400054E14B46002B68D120780021FFF77CFD2A
:1034500080212078FFF778FD97E6104800F088FB80
:10346000012158460EAAFFF72BFC002800D08CE65D
:10347000EAE7C046CC1100206867001088D8012018
:1034800030D801201068001019E0012048D7012031
:103490001BE001208C67001034D80120C12C0010E3
:1034A000237A22890F2BCFD8FF231340CE4AEB1863
:1034B0001B791278934221D3C6D1CC4D686900F0B4
:1034C00057FB012158466B690EAA9847002800D087
:1034D0005BE66022150023791D401A42B4D163795E
:1034E0000A3B012BB0D800F043FB63790A2B00D1D3
:1034F00084E158460EA900F0CBFA46E6BC4A5B01CF
:103500001568ED18002DD9D19EE7834200D0E8E080
:10351000B64B9946002A00D1E8E04B46586900F0C6
:1035200027FB4B46012158465B690EAA98479CE74A
:10353000A37999466B789945DBD06B78002B00D046
:103540006DE14B466B70002B00D165E148460138B8
:10355000C0B2FFF711FA002800D1B3E14378079316
:10356000022B00D0AEE10122C179A9468B1149118D
:1035700013400A40302112015B0113432A788A4329
:1035800013432B7009239A4682445546B246C378AA
:1035900082781B021343C3180593934B0493934BF8
:1035A0000893934B0993934B0A93059BAB4200D826
:1035B0008BE16B7801220B2B03D12B78EA78ED1885
:1035C0006B78042B00D07BE1059B00265B1B9BB234
:1035D0000693049B0B921F7819E0099A73011768F0
:1035E000FF18002F00D16BE1290058463B69069A6D
:1035F00098478446082803D9069A824200D34CE1B2
:10360000049B01361F78F6B2B74200D258E1BE42A1
:10361000E3D3089BF71B7F01DF19E5E76B780CAA62
:1036200002321370584601230EA900F047FAACE5A8
:10363000E088030AC0B20F2B00D905E76E499A0053
:103640008A5897460EA800F099FA5846A179FFF7D4
:10365000BDFB02222B7813432B7096E5E388012BE8
:1036600000D0F1E608222B7813432B7041E7E38862
:10367000012B00D0E8E608222B78584693430EA988
:103680002B7000F005FA80E5022029780CAB9A1C1B
:103690008B068908DB0F01400B4313805846022339
:1036A0000EA900F00BFA70E5237A22890F2B00D9BE
:1036B000CAE6FF2313404C4AEB181B791278934259
:1036C00027D24B4A5B011568ED18002D00D1BBE6EF
:1036D000686900F04DFA012158466B690EAA9847B7
:1036E000C3E6002A00D0AFE60023994662790220A3
:1036F000130004928343012B10D0002A00D0A3E6CC
:10370000EB19534430331B790CAA9B07DB0F0232B1
:10371000C3E7934200D097E6344DD9E7E388002B06
:1037200011D1039B1878049B012B22D0FFF70CFCCE
:103730000221EB19534430331A790A4301211A71DB
:103740001A790A431A714B46002B00D11DE55869BE
:1037500000F00EFA4B4601215B690EAA58469847C5
:10376000002000F005FA3523EB5CDB0700D50CE503
:10377000BFE6FFF707FC0221EB19534430331A79F7
:103780008A431A711A7904998A431A71DBE7FFF7A1
:1037900055FC021E00D157E6584613780EA900F0DA
:1037A0008DF962E62189FFF7EBF8021EF4D14BE6B2
:1037B000022B00D1A1E0FFF743FC021E00D143E63B
:1037C000D37891781B020B4358460EA900F076F986
:1037D0004BE6FFF7CDF8021E00D135E6122358461E
:1037E0000EA900F06BF940E619E001201068001006
:1037F00048D7012044D80120B46700100CAB9A1CB4
:10380000584601230EA9157000F058F9BDE4FFF7E2
:1038100053FA021ED4D117E6FFF716FC69E6002121
:103820005846FFF7DDFA5846FFF778FB002292462C
:10383000364AAB780592364A364F06922A000493F0
:1038400055463B7892460DE0069B6A011B689B1823
:10385000002B58D0DB685846984701353B78EDB2CD
:10386000AB4206D39D42EFD3059AEB1A5B01D31806
:10387000F0E75546542200212800FEF7E9FB10220C
:10388000FF21281DFEF7E4FB28002022FF21143031
:10389000FEF7DEFB049BAB7053E60B9A012A26D0A1
:1038A000002A16D00023A87804E00133DBB20E71A1
:1038B00093420ED2C118C9B249440F79FF2FF4D0F8
:1038C00056464D4600236B70BEE55646FFF7BAFBE1
:1038D0000FE66746330029003A000A9800F024FDFD
:1038E000049BED191B78B34200D35EE6E8E70A4B70
:1038F00039699942D6D1079AD4E7FFF73DF8021EFD
:1039000000D05DE7A0E55546C4E7C046106800104A
:1039100048D7012019E00120593F0010F0B54F466B
:103920004646D646C0B50C0016001F0082B0002ADD
:103930003CD0702398461E4B002599461D4B9A4655
:103940006378052B18D1E3789B079B0FBB4213D1FB
:103950004246A3781A420FD14B461B7820000193B0
:103960005346997800F0A6FC002807D102B0E0BCCD
:10397000BA46B146A846F0BD0020F7E721000198FD
:10398000FFF74AFA0028F1D0A378DA09012A07D014
:103990000A9A01351370B542E8DA2378E418CFE7C4
:1039A0000B9A01351370B542F7DBDFE70120DDE745
:1039B000CC11002030D80120702270B58B780C001B
:1039C00000201A4200D070BD064B20001D78064B27
:1039D000997800F06FFC0028F5D021002800FFF74F
:1039E0001BFAF0E7CC11002030D801207F20074BD4
:1039F00010B51A680840CB0934334000C018044B96
:103A00001100C01800F012FC10BDC04684D801207F
:103A100030D801207F20074B10B51A680840CB0929
:103A200034334000C018044B1100C01800F026FCCD
:103A300010BDC04684D8012030D8012070B57F2445
:103A4000C80984460C4010486400041964443034AA
:103A5000207905000020ED0700D570BD0B48012539
:103A6000007884462079284320716046FFF75AFA8F
:103A70000028F2D101222379934323712379033261
:103A800093432371E9E7C04630D80120CC110020D0
:103A900070B5094C0600082220000D00FEF7DEFA82
:103AA00000238021E360A3602B783000994300223B
:103AB0000023FFF7C3FF70BD10D80120F0B5C64644
:103AC000244C170080460822200000B50D001E007F
:103AD000FEF7C4FA0023A760E381EB79AA791B0201
:103AE00013431A1CB34200D9321C96B2A281002B98
:103AF0000CD0002E15D0002F2AD0402E1AD82378B3
:103B000096B27F2B1BD80021134A0EE080212B7820
:103B10000022994340460023FFF790FF80BCB8463F
:103B2000F0BD7F2300222178994333004046FFF700
:103B300085FFF3E74022237896B27F2BE3D9064C2A
:103B4000320039002000FEF789FA80212200ECE7DC
:103B50000020E3E710D80120D0D7012010B51422AF
:103B600000210248FEF774FA10BDC04610D80120AB
:103B7000014B18617047C04610D8012010B5054CA4
:103B8000010008222000FEF769FA0023A360E36029
:103B900010BDC04610D8012070B5364C1D002378EA
:103BA0000600DA09C9098A420FD0002D01D0002091
:103BB00070BD2100FFF722F92369002B03D02200FA
:103BC0000321300098470120F2E77F2B06D8A06838
:103BD0000028ECD02A002849FEF740FAE289A168C3
:103BE0005219E38892B24919E281A160934214D03C
:103BF0003F2D12D9A389981A051C80B2402828D8D5
:103C00002078ADB27F2826D800219A4230D01A4AB7
:103C10002B003000FFF712FFCAE72369002B05D005
:103C20002200022130009847002808D08021237804
:103C30000022994330000023FFF700FFB8E700217E
:103C40003000FFF781F930008021FFF77DF9012076
:103C5000AEE74025D4E79A4207D0074C2A0020005F
:103C6000FEF7FCF980212200D2E780210022CFE775
:103C70000022CDE710D80120D0D7012070B5040074
:103C8000FFF7E8F9002800D170BDFFF7EBF9002835
:103C9000FAD1C8236343124A2500D418E1780029D9
:103CA000F2D010339E18300000F0A8FB3F28EBD96B
:103CB0000020E178FFF79AFE0028E5D0300000F000
:103CC0009DFBE1783F2807D9064BEA01D218002076
:103CD0004023FFF7B3FED7E70020FFF79BFED3E7B3
:103CE000E01100204CD7012010B50400FFF7B2F915
:103CF000002800D110BDFFF7B5F903000020002B0C
:103D0000F8D1C8226243034B01309B181B7918403D
:103D1000F0E7C046E0110020C82310B54343024835
:103D2000181800F051FB10BDF0110020F8B5C823A1
:103D300043431D4D1033EE181C4B04009A4200D92A
:103D40001A00300092B200F0B5FB0700FFF782F9CD
:103D5000002801D13800F8BDFFF784F90028F9D117
:103D6000C8236343ED18EB78002BF3D0300000F04C
:103D700045FB3F28EED90020E978FFF737FE002801
:103D8000E8D0300000F03AFBE9783F2807D9084B2B
:103D9000E201D21800204023FFF750FEDAE70020AE
:103DA000FFF738FED6E7C046E0110020FFFF000015
:103DB0004CD70120F8B50400FFF74CF9002801D1D9
:103DC0000020F8BDFFF74EF90028F9D1C8232500DF
:103DD0005D432B00134E2433F718380000F0F4FA3B
:103DE0000028EDD075190020A978FFF7FFFD002805
:103DF000E6D00D4AE3019C1821004022380000F073
:103E000059FBA9780300051E07D022000020FFF708
:103E100015FE0028D4D02800D3E70020FFF7FAFDD4
:103E2000CEE7C046E01100208CD7012070B5C82431
:103E300044430B4B0500E4180A4B9A4200D91A0080
:103E4000200092B200F0F8FB0600200000F0BCFA5F
:103E50003F2801D8300070BD2800FFF7ABFFF9E71D
:103E600004120020FFFF0000C82310B5434302489E
:103E7000181800F0C3FA10BD04120020F0B5002598
:103E8000184C83B0C82200212000FEF7E1F8164B41
:103E900021001D70FF236371E1235B02A3602000FA
:103EA00008234022A37338310095073B103000F0FF
:103EB00055FA2700012321002000260040227831F6
:103EC0000093B837243000F049FAC0363800FCF7C8
:103ED0008DFF3000FCF78AFFE5612762266365638A
:103EE00003B0F0BDE0110020CCD70120074B1A6AC7
:103EF000196B002A02D00022DA611A62002903D06D
:103F0000002000211863596301207047E011002050
:103F100070B5052200210D48FEF79AF80C4D2B785C
:103F2000DA0707D50B4C9B070CD50121200000F0C8
:103F300045FC70BD0548103000F020FC2B78054C86
:103F40009B07F2D4200000F019FCEEE7E0110020FE
:103F5000CCD7012004120020F0B54B79070083B0C4
:103F6000022B02D18B79022B03D00024200003B056
:103F7000F0BD214B1E009B78002BF6D18B780924D5
:103F800033700D784D1969780B00242907D00DE0A6
:103F90002B78ED181C196B78A4B2242B05D1A24202
:103FA000F6D20020FFF76AFEE0E71900052B15D0D6
:103FB0000429F6D16B790A2BF3D1104B2E7801939B
:103FC00001330093022202233800A919FFF7A6FC4F
:103FD0000028CAD00E34A419A4B2E2E729003800A0
:103FE000FFF7EAFC0028C0D0AB7873702B781C195F
:103FF000ED186978A4B2DBE7E0110020E21100209F
:1040000060238C461100127870B51340202B07D125
:10401000304A4B790C7915781B0223439D4201D01D
:10402000002070BD4B78222B1CD008D8202B38D014
:10403000212BF5D16346012B42D00120F1E7232B40
:10404000EED16346012B41D0032BF6D1224B002B3E
:10405000F3D08B78C97800200902194300E000BF33
:104060000120DEE76346012B30D0032BE5D101258B
:104070008878CB7801211B0203431D401371243241
:10408000100069401C0000F099FB144B002BD4D0A9
:1040900001236208002029001A4000E000BF01202F
:1040A000BFE76346012B0BD0032BC6D10C4B002B73
:1040B000C3D0083200201100FEF724FE0120B0E733
:1040C0000723084AFFF7FAFC0120AAE7FFF7E0FC04
:1040D0000120A6E7E0110020000000000000000021
:1040E000052D0010E8110020F8B54746CE4680B5F2
:1040F000344C1F00E37880460D008B423BD0A37800
:104100008B4213D000242000C0BCB946B046F8BD95
:104110002D4B002B04D02D4800F068F900284ED01C
:104120000020FFF7ABFDA378AB420AD1284B002B50
:1041300002D0002000E000BF0020FFF73BFE002877
:1041400001D00124DFE7234D280000F03DF90028CD
:10415000F7D1002FF5D0BB06F3D1243D4046A97816
:10416000FFF744FC041EECD0002300224046A9784F
:10417000FFF764FCC7E7184E14483100BAB200F0EC
:104180005BFA164B002BC3D06379FF2BC0D0002FF6
:10419000BED0BC46B444E14603E00136B145B7D0D9
:1041A000637932789A42F8D1084800F01FF9002864
:1041B000F3D1064B103B597900E000BFEDE700E07A
:1041C00000BFADE7E011002000000000F01100206A
:1041D00000000000041200204CD701200000000065
:1041E00000B5030083B0002910D001280BD80A784D
:1041F000002A08D00C48C2540120012A04D118001A
:10420000FEF738FF00E0002003B000BD01236A463E
:10421000002001A99380FEF72DFF0028F4D0012291
:10422000014B1A70F0E7C04624D8012070B5040095
:1042300023780800DB070E00DD0F002B16D1237852
:104240005B0701D5280070BD0121494201F000FF44
:104250002378DB07DD0F002B0AD123785B0708D416
:104260000422237801251343237002E00025E9E7A7
:104270000025300001F004FFE4E7C04670B50C00F3
:10428000012105004942200001F0E2FE2B785B0786
:10429000DE0F002B04DB200001F0F2FE300070BDC9
:1042A0002B78DB0704D404222B7893432B70F2E79E
:1042B0000026F0E7437902791B021343C2785B05BD
:1042C00092075B0D920F022A1AD0032A0BD000200E
:1042D000012A07D102394A425141104A89189942AC
:1042E0004041C0B2704702394A1E91410C4A4942CE
:1042F000114080220020D200891899424041F1E704
:10430000022904D0002040229A424041EAE7054AAF
:10431000981843425841C0B2E4E7C046FF0300008A
:1043200040FCFFFF00FEFFFF8446881830B51C00EC
:10433000814206D24A78052A04D00A788918884230
:10434000F8D830BD7F228B781A4052006244DB09D6
:10435000D4540A7889188842ECD8F2E7F0B5C646FA
:1043600000B598466B461E7E802304000F001500A2
:104370001B029A4226D8C068002803D00121494276
:1043800001F066FE2069002803D00121494201F0B6
:104390005FFE42465204F303520C1343E3800023B2
:1043A000E06863812760A5802381002801D001F0A7
:1043B00067FE2069002801D001F062FE012080BC68
:1043C000B846F0BD0020FAE70389418982888B4214
:1043D00007D35B1A9BB2101C9A4200D9181C80B2FA
:1043E00070475000411A5B189BB2F4E7038940897B
:1043F000181A42425041C0B27047C04603894189F1
:1044000082888B4207D35B1A9BB200209A4201D963
:10441000D21A90B270475000411A5B189BB2F4E771
:1044200070B5040000690D00002803D00121494245
:1044300001F00EFE20896189A388884231D3421A97
:1044400092B2002A27D0934208D298422ED3C01AA3
:1044500081B261818B4203D8C91A89B28B42FBD9E0
:10446000E28823685204520C514328005918FDF782
:10447000F5FD618901254A1C92B2A38891420CD9AD
:1044800000225B00D21A20696281002801D001F06D
:10449000F7FD280070BD002562895B009A42F2DBBF
:1044A000F0E75A00521A821892B2CAE7C01881B2D5
:1044B0006181CFE7F0B5D6464F464646C0B5070006
:1044C00000698A46904682B0002803D00121494203
:1044D00001F0BEFD3B897C89BD88A34254D31E1BDD
:1044E000B6B2002E4BD0B54205D2AB4251D25B19C9
:1044F0009CB22E007C814346B0453ED89EB2A54278
:1045000003D8641BA4B2A542FBD9FA8839685204C7
:10451000500C020062432B1B9BB2891801900200D1
:104520009E4225D943439BB21A0050469946FDF757
:1045300095FD5046019A751B6419544339684844E7
:10454000A2B2FDF78BFD7989BD888B199BB26A00F9
:10455000994215D99B1A38697B81002801D001F056
:104560008FFD300002B0E0BCBA46B146A846F0BDAF
:1045700050467243FDF772FDE5E7331CBEE77B89C9
:104580006A009342E7DBE5E76E00361B9E19B6B280
:10459000A7E75B1B9CB2ACE7F8B50400C0680F004E
:1045A000002803D00121494201F052FD25892289CA
:1045B0006189A3888A4228D3521A92B2934209D8B9
:1045C000E679F60906D1E068002801D001F058FD2F
:1045D0003000F8BD9D421DD32800C01A80B2984219
:1045E000FBD2E28823685204520C50433900181859
:1045F000FDF734FD6B1C9BB2A2889D4217D90023A6
:1046000052009B1A01262381DDE75800411A5218F7
:1046100092B2D3E72B00E28820685204520C534335
:104620003900C018FDF71AFD0135A288ABB252005F
:104630009342E7DBE5E7C046F0B546464F46D6462F
:10464000C0B588460700160082B0002A5AD0C0685C
:10465000002803D00121494201F0FAFC3989FB7995
:1046600089467A89BD88DB0934D1914252D26B00E8
:104670009B1A4B449BB2AB4250D2EB1A1A1C9BB212
:10468000B34200D9321C96B2731B9A46FB884C4643
:10469000AC4203D3641BA4B2AC42FBD25B045A0C01
:1046A0001300634338682D1BADB20192C018B542A8
:1046B0003ED341467243FDF7D1FC4946BA88731890
:1046C0009BB252004B4501D3934200DB9B1A35004D
:1046D0003B8127E0AE4223D2914239D38B1A9BB261
:1046E0006900701B9B1982468B4209DB53199B1B87
:1046F0009BB299469A4230D94B46591A8BB2994689
:10470000FB88C4E70025280002B0E0BCBA46B146E9
:10471000A846F0BD8B1A9BB2AB42AED3002501E098
:10472000002D1DD1F8680028EDD001F0A9FCEAE7C2
:104730005543ADB22A004146FDF790FC019B54441D
:104740005C4343463868A2B25919FDF787FCB4E7C9
:1047500069008B1A4B449BB2C3E79942CCDDCFE78B
:10476000C44691460022FB88761B5904490C7143CC
:104770008C44E0462E00924689E7C04610B50400FE
:10478000C068002803D00121494201F061FC206982
:10479000002803D00121494201F05AFC0023E068BF
:1047A00063812381002801D001F06AFC2069002880
:1047B00001D001F065FC012010BDC04670B50400B9
:1047C000C0680D00002803D00121494201F040FCDF
:1047D0002069002803D00121494201F039FC7F21E2
:1047E000E279EB011140E0681943E171002801D042
:1047F00001F046FC2069002801D001F041FC0120B5
:1048000070BDC046F0B5454680463C4B4E464344DD
:104810005A1E9341DE4657468022E0B55B421B0C90
:1048200092021B049B18364A83B01360354A8946AE
:10483000354913601D000A689543FBD10620FDF73A
:10484000C1F843465A6802231A4000922F4A802634
:10485000424413604B468246D90D580201920B0028
:1048600002000224760006E0924506D302341218B4
:104870004B41B44201D0002BF6D080272602361BD4
:104880007F0002E0361B012F36D031005046BB4678
:10489000013FFDF7F3FA8145F4D2594661433D02E9
:1048A00043461C611B68FF226B40802512026D018C
:1048B00013404544164A2B60009B4244136002207B
:1048C0004346019C5B682060444626680724664096
:1048D000C83434402C600324034013600D4B434420
:1048E0001C6010605046FDF7C9FA03B0F0BCBB462F
:1048F000B246A946A046F0BD2100D1E70000FCBFAA
:1049000000E0004000F0004008C00040043000001B
:104910000420000024200000F0B5D6464F4646464D
:104920008146C0B505200F00FDF74CF8040078085B
:1049300039000019FDF7A2FA4600361805000521D6
:104940003000FDF79BFA2B1A98461B4B82466000FD
:1049500000199F422AD81949FDF790FA01304B46B9
:1049600000221B68DA6619680432514002320A409C
:10497000802149015A5042465146DA6101221962AA
:104980004F2E00D90A09A0215A50DA6F2900504051
:1049900000040B4A000C985001222000DA66FDF753
:1049A0006DFAE0BCBA46B146A846F0BD0549FDF730
:1049B00065FA0130D3E7C0463F420F008096980069
:1049C0007C10000040787D01104A70B5821A531E99
:1049D0009A41072352429A430D4B10321A600D4BF5
:1049E0000D4C1A60150023689D432B1EFAD16624D6
:1049F0000268FF340571D5661460633C8833FF3C60
:104A0000D5639563D450FFF787FF70BDD0110020A8
:104A100000E0004000F0004008C0004001230121F8
:104A2000084A1360084A1360084A0800136898434C
:104A3000FBD1074A11608021490013680B42FCD06A
:104A40007047C04600E0004000F0004008C0004051
:104A500000C0044010B5040001210D2001F0BCF994
:104A6000642001F0B5F900210D2001F0B5F96420B2
:104A700001F0AEF901210D2001F0AEF9002109206D
:104A800001F0AAF9642001F0A3F9FE4B00211C718A
:104A9000621E94415F2264429443FB4A08201A60DC
:104AA00001F09AF93621F94801F0A0F9C834012142
:104AB000082001F091F92100F44801F097F9002154
:104AC000082001F089F9EF21F04801F08FF9002169
:104AD000082001F081F9EB21EC4801F087F9012170
:104AE000082001F079F91421E84801F07FF900214C
:104AF000082001F071F9FE21E44801F077F9002166
:104B0000082001F069F9EF21E04801F06FF9002178
:104B1000082001F061F9EB21DC4801F067F901217F
:104B2000082001F059F91421D84801F05FF900215B
:104B3000082001F051F98421D44801F057F90121EE
:104B4000082001F049F94021D04801F04FF9002137
:104B5000082001F041F98521CC4801F047F90121F5
:104B6000082001F039F9FF21C84801F03FF9002180
:104B7000082001F031F98621C44801F037F90121FC
:104B8000082001F029F9FF21C04801F02FF9002188
:104B9000082001F021F98721BC4801F027F9012103
:104BA000082001F019F9FF21B84801F01FF9002190
:104BB000082001F011F98821B44801F017F901210A
:104BC000082001F009F90A21B04801F00FF900218D
:104BD000082001F001F98921AC4801F007F9012111
:104BE000082001F0F9F82121A84801F0FFF8002180
:104BF000082001F0F1F88A21A44801F0F7F801211A
:104C0000082001F0E9F80021A04801F0EFF80021A8
:104C1000082001F0E1F88B219C4801F0E7F8012120
:104C2000082001F0D9F88021984801F0DFF8002130
:104C3000082001F0D1F88C21944801F0D7F8012127
:104C4000082001F0C9F80121904801F0CFF80021B7
:104C5000082001F0C1F88D218C4801F0C7F801212E
:104C6000082001F0B9F80121884801F0BFF80021BF
:104C7000082001F0B1F88E21844801F0B7F8012135
:104C8000082001F0A9F8FF21804801F0AFF80021C9
:104C9000082001F0A1F88F217C4801F0A7F801213C
:104CA000082001F099F8FF21784801F09FF80021D1
:104CB000082001F091F8B621744801F097F801211D
:104CC000082001F089F80021704801F08FF80121D7
:104CD000082001F081F820216C4801F087F80021BC
:104CE000082001F079F83621684801F07FF80121A9
:104CF000082001F071F80821644801F077F80021DC
:104D0000082001F069F83A21604801F06FF80121AC
:104D1000082001F061F805215C4801F067F80021E6
:104D2000082001F059F89021584801F05FF801215E
:104D3000082001F051F80821544801F057F80121EA
:104D4000082001F049F80821504801F04FF80121EE
:104D5000082001F041F808214C4801F047F80121F2
:104D6000082001F039F80821484801F03FF80021F7
:104D7000082001F031F8BD21444801F037F8012145
:104D8000082001F029F80621404801F02FF8002101
:104D9000082001F021F8BC213C4801F027F801214E
:104DA000082001F019F80021384801F01FF800210F
:104DB000082001F011F8FF21344801F017F8012113
:104DC000082001F009F86021304801F00FF80121B6
:104DD000082001F001F801212C4801F007F8012119
:104DE000082000F0F9FF0421284800F0FFFF00210F
:104DF000082000F0F1FFC321244800F0F7FF012153
:104E0000082000F0E9FF1321204800F0EFFF002107
:104E1000082000F0E1FFC4211C4800F0E7FF012159
:104E2000082000F0D9FF1321184800F0DFFF00210F
:104E3000082000F0D1FFC921144800F0D7FF01215C
:104E4000082000F0C9FF2221104800F0CFFF002108
:104E5000082000F0C1FFBE210C4800F0C7FF01216F
:104E6000082000F0B9FF1121084800F0BFFF002121
:104E7000082000F0B1FFE121044800F0B7FF012154
:104E8000082005E030D70120F000F00000000440C9
:104E900000F0A2FF1021FE4800F0A8FF0121082029
:104EA00000F09AFF0E21FA4800F0A0FF0021082030
:104EB00000F092FFDF21F64800F098FF0121082062
:104EC00000F08AFF2121F24800F090FF0121082024
:104ED00000F082FF0C21EE4800F088FF012108203D
:104EE00000F07AFF0221EA4800F080FF002108204C
:104EF00000F072FFF021E64800F078FF0121082061
:104F000000F06AFF4521E24800F070FF012108200F
:104F100000F062FF0921DE4800F068FF012108204F
:104F200000F05AFF0821DA4800F060FF0121082054
:104F300000F052FF0821D64800F058FF0121082058
:104F400000F04AFF2621D24800F050FF012108203E
:104F500000F042FF2A21CE4800F048FF002108203F
:104F600000F03AFFF121CA4800F040FF012108207B
:104F700000F032FF4321C64800F038FF012108202D
:104F800000F02AFF7021C24800F030FF0121082004
:104F900000F022FF7221BE4800F028FF0121082006
:104FA00000F01AFF3621BA4800F020FF0121082046
:104FB00000F012FF3721B64800F018FF0121082049
:104FC00000F00AFF6F21B24800F010FF0021082016
:104FD00000F002FFF221AE4800F008FF0121082096
:104FE00000F0FAFE4521AA4800F000FF0121082048
:104FF00000F0F2FE0921A64800F0F8FE0121082089
:1050000000F0EAFE0821A24800F0F0FE012108208D
:1050100000F0E2FE08219E4800F0E8FE0121082091
:1050200000F0DAFE26219A4800F0E0FE0121082077
:1050300000F0D2FE2A21964800F0D8FE0021082078
:1050400000F0CAFEF321924800F0D0FE01210820B2
:1050500000F0C2FE43218E4800F0C8FE0121082066
:1050600000F0BAFE70218A4800F0C0FE012108203D
:1050700000F0B2FE7221864800F0B8FE012108203F
:1050800000F0AAFE3621824800F0B0FE012108207F
:1050900000F0A2FE37217E4800F0A8FE0121082082
:1050A00000F09AFE6F217A4800F0A0FE002108204F
:1050B00000F092FEED21764800F098FE01210820D4
:1050C00000F08AFE1B21724800F090FE01210820AA
:1050D00000F082FE0B216E4800F088FE00210820BF
:1050E00000F07AFEAE216A4800F080FE012108201F
:1050F00000F072FE7721664800F078FE002108205B
:1051000000F06AFECD21624800F070FE0121082007
:1051100000F062FE63215E4800F068FE0021082076
:1051200000F05AFE70215A4800F060FE012108206C
:1051300000F052FE0721564800F058FE01210820D9
:1051400000F04AFE0721524800F050FE01210820DD
:1051500000F042FE04214E4800F048FE01210820E4
:1051600000F03AFE0E214A4800F040FE01210820DE
:1051700000F032FE0F21464800F038FE01210820E1
:1051800000F02AFE0921424800F030FE01210820EB
:1051900000F022FE07213E4800F028FE01210820F1
:1051A00000F01AFE08213A4800F020FE01210820F4
:1051B00000F012FE0321364800F018FE00210820FE
:1051C00000F00AFEE821324800F010FE012108201C
:1051D00000F002FE34212E4800F008FE00210820D5
:1051E00000F0FAFD62212A4800F000FE01210820AB
:1051F00000F0F2FD1821264800F0F8FD01210820FA
:1052000000F0EAFD0D21224800F0F0FD0121082008
:1052100000F0E2FD71211E4800F0E8FD01210820A8
:1052200000F0DAFDED211A4800F0E0FD0121082030
:1052300000F0D2FD7021164800F0D8FD01210820B1
:1052400000F0CAFD7021124800F0D0FD01210820B5
:1052500000F0C2FD18210E4800F0C8FD0121082011
:1052600000F0BAFD0F210A4800F0C0FD012108201E
:1052700000F0B2FD7121064800F0B8FD01210820C0
:1052800000F0AAFDEF21024800F0B0FD012101E08D
:1052900000000440082000F09FFD7021F04800F05D
:1052A000A5FD0121082000F097FD7021EC4800F0D9
:1052B0009DFD0021082000F08FFD6321E84800F0EB
:1052C00095FD0121082000F087FD1821E44800F039
:1052D0008DFD0121082000F07FFD1121E04800F044
:1052E00085FD0121082000F077FD7121DC4800F0E8
:1052F0007DFD0121082000F06FFDF121D84800F06C
:1053000075FD0121082000F067FD7021D44800F0F0
:105310006DFD0121082000F05FFD7021D04800F0F4
:1053200065FD0121082000F057FD1821CC4800F050
:105330005DFD0121082000F04FFD1321C84800F059
:1053400055FD0121082000F047FD7121C44800F0FF
:105350004DFD0121082000F03FFDF321C04800F081
:1053600045FD0121082000F037FD7021BC4800F008
:105370003DFD0121082000F02FFD7021B84800F00C
:1053800035FD0021082000F027FD6421B44800F01D
:105390002DFD0121082000F01FFD2821B04800F05C
:1053A00025FD0121082000F017FD2921AC4800F05F
:1053B0001DFD0121082000F00FFDF121A84800F09B
:1053C00015FD0121082000F007FD0121A44800F08F
:1053D0000DFD0121082000F0FFFCF121A04800F0A4
:1053E00005FD0121082000F0F7FC00219C4800F099
:1053F000FDFC0121082000F0EFFC0721984800F097
:10540000F5FC0021082000F0E7FC6621944800F03C
:10541000EDFC0121082000F0DFFC3C21904800F069
:10542000E5FC0121082000F0D7FC00218C4800F0A9
:10543000DDFC0121082000F0CFFCCD21884800F0E0
:10544000D5FC0121082000F0C7FC6721844800F04A
:10545000CDFC0121082000F0BFFC4521804800F070
:10546000C5FC0121082000F0B7FC45217C4800F074
:10547000BDFC0121082000F0AFFC1021784800F0AD
:10548000B5FC0121082000F0A7FC0021744800F0C1
:10549000ADFC0121082000F09FFC0021704800F0C5
:1054A000A5FC0121082000F097FC00216C4800F0C9
:1054B0009DFC0021082000F08FFC6721684800F067
:1054C00095FC0121082000F087FC0021644800F0D1
:1054D0008DFC0121082000F07FFC3C21604800F099
:1054E00085FC0121082000F077FC00215C4800F0D9
:1054F0007DFC0121082000F06FFC0021584800F0DD
:1055000075FC0121082000F067FC0021544800F0E0
:105510006DFC0121082000F05FFC0121504800F0E3
:1055200065FC0121082000F057FC54214C4800F094
:105530005DFC0121082000F04FFC1021484800F0DC
:1055400055FC0121082000F047FC3221444800F0BE
:105550004DFC0121082000F03FFC9821404800F05C
:1055600045FC0021082000F037FC74213C4800F085
:105570003DFC0121082000F02FFC1021384800F0EC
:1055800035FC0121082000F027FC8521344800F07B
:105590002DFC0121082000F01FFC8021304800F084
:1055A00025FC0121082000F017FC00212C4800F008
:1055B0001DFC0121082000F00FFC0021284800F00C
:1055C00015FC0121082000F007FC4E21244800F0C2
:1055D0000DFC0121082000F0FFFB0021204800F015
:1055E00005FC0021082000F0F7FB98211C4800F082
:1055F000FDFB0121082000F0EFFB3E21184800F0E0
:10560000F5FB0121082000F0E7FB0721144800F01A
:10561000EDFB0021082000F0DFFB3521104800F0F1
:10562000E5FB0021082000F0D7FB21210C4800F009
:10563000DDFB0021082000F0CFFB1121084800F01D
:10564000D5FB782000F0C4FB0021082000F0C4FB4B
:105650002921034800F0CAFB142000F0B9FB10BD5B
:1056600000000440F8B505000F001E0000210820CE
:10567000541E00F0B1FB2A212B4800F0B7FB01219A
:10568000082000F0A9FB0021274800F0AFFB012112
:10569000082000F0A1FBE9B22348251200F0A6FB88
:1056A000EDB20121082000F097FB29001E4800F010
:1056B0009DFB0121082000F08FFBE1B21A4800F0A9
:1056C00095FB0021082000F087FB2B21164800F0F5
:1056D0008DFB0121082000F07FFB0021124800F023
:1056E00085FB0121082000F077FBF9B20E4800F09D
:1056F0007DFB0121082000F06FFB29000A4800F023
:1057000075FB0121082000F067FB711E0648C9B235
:1057100000F06CFB0021082000F05EFB2C21024809
:1057200000F064FBF8BDC0460000044010B543BA69
:10573000134C1B04A5441A0C1A436C466B46E1211A
:10574000490204C369448B42F9D100210020F023AF
:10575000F022FFF787FF0121082000F03DFBF02237
:1057600021000848520000F04BFBE123E1345B02CA
:10577000FF346B449C42F2D1E1235B029D4410BD97
:10578000003EFEFF0000044070B5F0230400F0224C
:1057900000210020FFF766FF0121082000F01CFB1C
:1057A000E1235B02E518F0222100E13403485200B6
:1057B000FF3400F025FBAC42F5D170BD0000044081
:1057C0009C46054B1860604699804900DA80188134
:1057D00059819A817047C04638D701200A4B9446B8
:1057E0009A8882420ED3DA888A420BD35A894000C3
:1057F0005143091860461A68000A505462461B68F3
:105800005B185A707047C04638D70120F0B5114A6E
:1058100005009389002B1CD0938800240027060ADA
:10582000002B16D000215389480063431B181068D1
:105830000131C6541068C3185D70938888B28342E2
:10584000F1D801379189BFB2B94202D90134002B96
:10585000E8D1F0BD38D70120F0B54E46DE465746B8
:105860004546E0B58368A1B006001F93022B00D81F
:1058700086E2002300241B93023371681B9A0134D3
:10588000002905D09200A4009B008A580C595B584F
:105890001201934635681B01AB44E8180290584644
:1058A0005B46406819688046C0171C905846CB1765
:1058B000149373692401DA170892B2690193D71718
:1058C000F369099787680392F8171A0C1B041D9057
:1058D000180C8446120494446346A246306A12931C
:1058E000C2170A92726A0490D0170B90B06A0592A0
:1058F000C3171E93F36AAA441A0C1B041B0C994687
:1059000053461B6812049144DA17159252460C93C1
:10591000534652680090D01734690D9216909868DB
:10592000E517C3170E900298179303681391DA17BF
:105930000F930300189242680694D0171990986844
:105940001092C3170A001190290020001A93149B8B
:105950000795FCF725FB1C9D0904040C42462B000F
:1059600001980C190899FCF71BFB0904000C081896
:105970003A00FB17099924180398FCF711FB090456
:10598000000C129A08182418A41823011B1B049A4F
:105990001398DC0014990A9B1C94FCF701FB090482
:1059A000040C059A0B9B40460C192900FCF7F8FAE9
:1059B0000904000C0818009D24181E982A0080462F
:1059C00003001D993800FCF7EBFA0904000C0818D5
:1059D00024184C4423011B1BDF00069A079B0C98DC
:1059E00015991397FCF7DCFA0904070C019A089B38
:1059F000CF190D981699FCF7D3FA0904040C039AF1
:105A0000099B0E980C191799FCF7CAFA0904000CA7
:105A100008183C19129F2418E41923011B1B049A2F
:105A20000C981599DF000A9BFCF7BAFA0904040CDC
:105A3000059A0B9B0D980C191699FCF7B1FA2A00E0
:105A400045460904000C08182B00179924180E98D5
:105A5000FCF7A6FA0904000C081824184C4423018A
:105A60001B1BD900069A079B88460F981899FCF7CC
:105A700097FA0904040C019A089B0C1910981999BB
:105A8000FCF78EFA0904000C0818039A099B1A996E
:105A900024181198FCF784FA0904000C129B0818CA
:105AA0002418E41823011B1B049ADC000F980A9B9E
:105AB00018990394FCF774FA0904040C059A0B9BDB
:105AC00010980C191999FCF76BFA0904000C0818C6
:105AD0002B00009A1A9924181198FCF761FAF12208
