:020000041000EA
:1000000000B5324B212058609868022188439860DF
:10001000D860186158612E4B002199600221596106
:100020000121F02299502B49196001219960352056
:1000300000F044F80222904214D00621196600F024
:1000400034F8196E01211966002018661A6600F04E
:100050002CF8196E196E196E052000F02FF8012189
:100060000842F9D1002199601B49196000215960AB
:100070001A491B48016001219960EB211966A021F2
:10008000196600F012F800219960164914480160C1
:100090000121996001BC002800D000471248134993
:1000A000086003C880F30888084703B5996A0420EC
:1000B0000142FBD001200142F8D103BD02B5186610
:1000C0001866FFF7F2FF186E186E02BD00000240BE
:1000D000000000180000070000035F00212200005C
:1000E000F4000018222000A00001001008ED00E03C
:1000F00000000000000000000000000074B24E7A12
:1001000000200420F7010010CB010010CD010010E9
:10011000C9010010C9010010C9010010C901001077
:10012000C9010010C9010010C9010010CF01001061
:10013000C9010010C9010010D1010010D301001045
:10014000C1010010C1010010C1010010C101001067
:10015000C1010010C1010010C1010010C101001057
:10016000C1010010C1010010C1010010C101001047
:10017000C1010010C1010010C1010010C101001037
:10018000C1010010C1010010C1010010C101001027
:10019000C1010010C1010010C1010010C101001017
:1001A000C1010010C1010010C1010010C101001007
:1001B000C1010010C1010010C1010010C1010010F7
:1001C000EFF30580103800BE00BE00BE00BE00BECA
:1001D00000BE00BEF2EB8871E89000101491001090
:1001E0003802001090A31AE700201E49086006C8D4
:1001F00081F3088810471C480068002801D00020BF
:10020000F3E70DA40ECC002902D000F012F8F9E7B4
:100210001649174A002000E001C19142FCD115495E
:100220008847154988471549884700BEFDE701C939
:1002300001C29A42FBD3704714910010C000002005
:10024000000D0020549D0010000004200000042038
:10025000549D001000100420001004200000000035
:100260007047000008ED00E0000000D0000D002005
:10027000C0690120753800107D0400103738001067
:1002800010B5B421890001F0F9FDB4239B00C81812
:10029000190001F0F3FDB4290EDDB4235B0099428F
:1002A0000EDD87239B0099420FDC6939FF390B4B28
:1002B0008900C858404202E0084B8900C85810BD68
:1002C0005B1A064A9B009858F9E7B4239B005B1A17
:1002D000024A9B0098584042F1E7C046107800104F
:1002E000F0B5D6464F464646C0B507008A46914609
:1002F0004022002102F0A2F90023984621E0434663
:100300009C0063199B0052469A58AB009B199B00B6
:1003100049465858D317C11702F06EF90904000C6A
:100320000818A419A400E3591B18E3510135032D43
:10033000E5DD0136032E01DC0025F8E701239C46AC
:10034000E0444346032B01DC0026F3E73800E0BC21
:10035000BA46B146A846F0BD70B504000E000800CC
:10036000B430FFF78DFF05003000FFF789FF4342EF
:10037000256063600023A360E36020616561A36181
:10038000E3612362636280225202A262E36223631A
:100390006363A363E263200070BD70B504000E00C8
:1003A0000800B430FFF76CFF05003000FFF768FF6E
:1003B0004142256000236360A060E36023618022E6
:1003C00052026261A361E36121626362A562E3623A
:1003D00023636363A363E263200070BDF0B5E5B0FF
:1003E000002500E0013529006846FFF7D6FFA90087
:1003F000491910A8FFF7B0FF8021090220910022BF
:100400002192229223922492259126922792289239
:1004100029922A912B922C922D922E928022520276
:100420002F9230AC10AA69462000FFF759FF40AE6A
:10043000220020A93000FFF753FF0D4806F0B4FC5E
:1004400050AC0C4B220083CB83C201232373402288
:10045000310054A802F0F8F8200006F0C7FD064865
:1004600006F03EFCB4239B009D42BBD10125B9E7B9
:10047000FF0F0000CC8E0010880E002010B507F092
:100480008FF8002802D00120404210BD06F0BCFBCE
:10049000124806F0F1FB642007F062F8104B5A880E
:1004A000198810480D4B040006F038FC0B4806F084
:1004B0007BFC200006F014FCFA20800007F001F815
:1004C000F020000106F070FC200006F009FCFA2084
:1004D000800006F0F6FFFFF781FFC046FF0F000027
:1004E00008600120880E0020434608B48C46830033
:1004F000094A9A18126840215140C0220A4007490F
:10050000884643441A60C000054B98464044634601
:10051000436008BC9846704704C0014004D00140C5
:100520000040014080000B4B9C46604400290ED0E7
:100530000823002A00D004221343026853400C22EF
:1005400013408022520194466044036070470023A8
:10055000EFE7C04604C00140002906D08000064BEA
:100560009C4660444023036070478000034B9C46D8
:10057000604440230360F7E704E0014004F00140D9
:1005800010B501238340D0221206936293610521A6
:10059000FFF7AAFF10BD000010B58023DB05186827
:1005A00003051B0D0B4A934207D10B4B03408022DE
:1005B0009201934207D1000F10BD084B084A094829
:1005C000132103F03BF9084B054A0648142103F0B8
:1005D00035F9C0462709000000F0FF0FE47A00104B
:1005E00014880010087B0010587B00100FB400B571
:1005F00083B0084803F061FA049B002B07D005A9DB
:100600000191180003F068FA034803F056FA01203C
:1006100003F00EF96C7B001010880010EFF31080CF
:1006200072B6034B1B68002BFBD0BFF35F8F704784
:100630002C0100D0BFF35F8F024B00221A6080F3C1
:10064000108870472C0100D070B505000C00160012
:10065000FFF7E4FFE308EA189446E95C072222402A
:10066000012393400B4206D1DBB20B436246137069
:10067000FFF7E0FF70BD21003000FFF7B7FFF0B5D6
:1006800083B00500019114001E00FFF7C7FF00E0D2
:100690000134B4420CD8E308EF18EB5C0721214089
:1006A00001228A401A42F3D1D2B21A433A7001E0D1
:1006B00001246442FFF7BEFF002C02DB200003B0E0
:1006C000F0BD019B002BF9D00898FFF78FFF0000C9
:1006D000054A1078431CDBB21370172B02D91300A4
:1006E00010221A707047C046F00B002000B583B08E
:1006F00001000448044B00931F231822FFF7BFFF9B
:1007000003B000BDFC6301207C7B0010002307E0E8
:10071000054A9A189200BFF35F8F002111600133E0
:100720001F2BF5D97047C04640000034074B9B682B
:10073000103080001950BFF35F8FBFF35F8F044B01
:100740000021196082F310887047C04600ED00E078
:10075000240100D00048704700E400E010B5FFF726
:10076000F9FF002302E0034A04C00133072BFAD942
:1007700010BDC0468080808010B50388DA0A1C2A2C
:1007800005D15B055B1502335B00C01810BD034B40
:10079000034A34210348FF3103F050F8987B0010DE
:1007A00074880010B07B001010B5091A0B1F0A4A9C
:1007B00088180A4A904208D8C90706D45B105B051E
:1007C0005B0D0748184380B210BD064B064A262130
:1007D0000648FF3103F032F8FC070000FE0F00006E
:1007E00000E0FFFF007C001068880010B07B001064
:1007F00010B5091A04394A08090B08D14905490DF1
:10080000064B0B430380064B1343438010BD054B3F
:10081000054A2E210548FF3103F010F800F0FFFFD4
:1008200000F8FFFF307C001044880010B07B0010FF
:1008300001238340034A10681840431E9841C0B208
:100840007047C04600E100E0002A05D0044BC022FA
:100850005200995019607047014A8023D150FAE73D
:1008600000E100E010B50A001F2303400121994078
:100870004009FFF7E9FF10BD01238340014A1360DF
:100880007047C04600E200E0024B9B6810308000D9
:10089000C058704700ED00E010B5FFF7F5FF044BBE
:1008A000C31A002047229A424041C0B210BDC04640
:1008B000F40B002070B505000E00EFF3108472B643
:1008C0000D4B1B68002BFBD0BFF35F8F2800FFF799
:1008D000DBFF0A4B984201D0B04205D12200310023
:1008E0002800FFF723FF70BD054B064A822106480A
:1008F000490002F0A3FFC046240100D0C10100104E
:10090000407C00109C880010B07B0010F0B5DE46E3
:1009100057464E464546E0B589B0814601911500DF
:10092000EFF3108372B69A466E4B1B68002BFBD018
:10093000BFF35F8F6C4B00269E57002E40DB740088
:10094000A419A400694823189B4606229A56664BB0
:100950001A70674B9A684B4610339B00D7583B1A66
:10096000472B3BD9634B9F4231D105AF624B3B8054
:10097000624973000293981980005C4C00190230A0
:10098000FFF712FF78805E4BBB80FF23BB71FD71C8
:10099000019A0792029B9B199B00E31807CF07C39C
:1009A00001275B463B431F00524639004846FFF78C
:1009B000BDFE09B0F0BCBB46B246A946A046F0BD9C
:1009C000504B514A94215148FF3102F037FF504BB0
:1009D0004D4ACD214D48490002F030FF01233A0035
:1009E0009A439046101A0C2101F070FA00290FD199
:1009F00043460024DA79AA4212D906215956002921
:100A00000DDB4A005218920038491C008B18F1E7A0
:100A1000404B3D4AAC213D48FF3102F00FFF1C0026
:100A2000002C2DD005AB3C4A1A80813A5A8006230F
:100A3000E3569846002B16DA384804AB1881424634
:100A40009A72DD72019B0793201D5946FFF7ACFE99
:100A5000A080A671254B7200921992009B1805AADE
:100A600013CA13C3A0E7201DFFF786FE0100700024
:100A7000801980001D4BC0180430FFF795FEDCE79D
:100A800005AF1D4B3B801D49730002939B199B00D2
:100A9000164C1800A446604403900230FFF784FE11
:100AA0007880039A101D4146FFF77EFEB8801C4BEC
:100AB0004246121B524153431B0DBB71FD710199FC
:100AC0000791029B9B199B00A446634407CF07C371
:100AD000114B42461380813B538001275B463B43C9
:100AE0001F0061E7240100D0B9690120F40B002048
:100AF00000ED00E0C101001000A1FFFF3C0C002050
:100B000001BDFFFF787C001084880010B07B0010CE
:100B1000A07C0010C87C00100148000001BD00004E
:100B2000AAAA0000F0B5CE46474680B583B08046FD
:100B30000C00EFF3108772B64E4B1B68002BFBD0F6
:100B4000BFF35F8F4C4B9A6845461035AB00D658C3
:100B50004A4B9E4207D0A64200D189E00196484BFD
:100B6000F31A472B09D93A0031004046FFF7DEFD62
:100B700003B0C0BCB946B046F0BD4046FFF758FED2
:100B8000814600214046FFF76DFEBFF35F8FEFF314
:100B90000581002901D08D4211D10123019D9D4382
:100BA0000020AB689C4211D00622AA56002A0CDB1A
:100BB00053009B189B00324A2800D518F1E7314BAF
:100BC000314A3248324902F039FE28009C4249D16C
:100BD00006242C57002C2BDB294B620012199200A3
:100BE0009B189A68AA60DA79EA719B795BB2AB715B
:100BF000002B0FDA2748A880214B620012199200BF
:100C00009B18254A11789971147049464046FFF7A0
:100C100029FEA8E7600000198000194BC0180430B5
:100C2000FFF7AAFD01002B1D1800FFF7BDFDE2E74D
:100C3000002912D100280ED0FF238371174B838027
:100C400015490B78AB710E4A154BAD1A6D416B43CC
:100C50001B0D0B70D9E7094EF2E71249281DFFF76B
:100C6000C7FDD2E7104B084A0848104902F0E6FDDC
:100C7000024E78E7240100D000ED00E0C101001031
:100C8000F40B00204C7D001054880010B07B001045
:100C90001902000001BD0000B969012001BDFFFF7C
:100CA000AAAA0000460C0020807D00105B02000014
:100CB00070B5012202432D4BD31A472B29D8EFF3ED
:100CC0000583002B2BD0EFF3108172B68C46284998
:100CD00009680029FBD0BFF35F8F2449254C05002C
:100CE0006D1A6D416C43240D64B2234989689B00E1
:100CF000C958914219D00021052930D81B4B4A0010
:100D0000521892009B189B795BB2A3421DD001310F
:100D1000F2E71A4B1A4A1B481B4902F08FFD1B4B86
:100D2000174A18481A4902F089FD134A926819496E
:100D3000D150194B1A7882711C70BFF35F8F0C4B26
:100D400000221A608CF3108870BD084B4A005518B9
:100D5000AD005D19FF26AE71104AAA80E9E7104B7D
:100D6000074A08480F4902F069FDC046F40B00200D
:100D7000240100D0AAAA000000ED00E0887D001048
:100D800028880010B07B001096020000B07D001093
:100D900099020000C1010010B969012001BDFFFFE7
:100DA000BC7D0010AA02000000B583B00100064817
:100DB000064B009305230022FFF761FC002801DBAE
:100DC0001F23181A03B000BDBD690120C47D0010A7
:100DD000024B9C466144890001607047400000342A
:100DE00010B50400FFF774FC01002000FFF7F0FFCE
:100DF000FF232371BFF35F8F10BD10B50400FFF711
:100E000067FC01002000FFF7E3FFFF2323710023AD
:100E10006371BFF35F8F10BD10B50D4C09E00D4B32
:100E20000D4A0E481A2102F009FD2000FFF7D8FFF5
:100E300008340B4B9C4209D22368002BF5D0012BC0
:100E4000EDD12000FFF7D9FF0834F2E710BDC0460E
:100E5000F80C0020E07D0010DC880010007E0010FF
:100E6000000D0020034B9C46614489000160BFF3E4
:100E70005F8F70474000003410B504000120FFF779
:100E800035FC01002000FFF7EDFF10BD30B5836A8F
:100E90009C46D41A0B1D9B001B5865465B1B9C424D
:100EA00004D3046A01238B40234202D10431890018
:100EB0000A5030BD00040843704700000A4B19680F
:100EC000EFF3108372B60A68002AFCD0BFF35F8F7D
:100ED000054A1268BFF35F8F0021116083F3108809
:100EE00040BF0020002170478C690120F0B5DE462C
:100EF00057464E464546E0B583B0EFF305830322DF
:100F00001A4011000192AD4B9200D35898461B78BD
:100F10008B4207D10123019A93409A46A84B52462F
:100F20001A601AE1A74BA84AA8489C2102F086FC47
:100F300043465A694B465B004B44DB0093469B4457
:100F40005B469E68DF68A24800F0B6FB801BB94193
:100F5000002900DA0BE1002F5DDB5B461C699D4B2D
:100F60009C4243D043460820185E5B465988FFF7F1
:100F7000A1FF5B465969A04704000D0023002B43E5
:100F800049D0002D3BDA30003900001BA9415B46F7
:100F90009860D96000241C5F002C00DAE7E043462B
:100FA0005B699C4663001B19DB0063449A68DB683D
:100FB00005000E00AD1A9E41002E00DAD7E0434630
:100FC0001C81474608370097002C1EDB65002D1951
:100FD000ED006544AA68EB6806000F00B61A9F4151
:100FE000002F12DB00950023EC5EEDE75B465C69A9
:100FF00023692000984700280DD030CCBEE7744804
:1010000000F05AFB00196941C1E75B461C804B4662
:10101000009A1380ABE05B4600229B5E4246138140
:101020001269EFF3108372B611680029FCD0BFF388
:101030005F8F42460221525E59460A804246494627
:1010400051801269BFF35F8F0021116083F3108814
:101050008DE043461969EFF3108372B60A68002ADF
:10106000FCD0BFF35F8F42460421525E91460122BD
:10107000524241468A800A69BFF35F8F00211160A6
:1010800083F310881CE05B46009300269E5F002ED1
:101090000DDB73009B19DB009B46BB445B469868E5
:1010A000D96822002B00121A8B41002BEBDA4B4639
:1010B000009A1380634600229B5E994663461E8019
:1010C0004B46002B59DB43465F694B465B004B4464
:1010D000DB009C46BC4463469C68DD68424608329F
:1010E0000092434608269E5FD1E700234246937153
:1010F0004146083143460820185E11E00122524261
:10110000D317A260E360434608229B5E834206D069
:101110000D80434608229B5E2380434618812800A9
:10112000431C2ED043465A6943001B18DB00D418D9
:10113000D55E0222A35E002BE0DB2100EFE7220058
:101140002B0001992248FFF7A1FE214800F0B4FAD4
:10115000241A8D41002D28DC25D01D4B52465A63A0
:10116000434608229B5E9946002B00DBE0E643469F
:1011700004229B5E002B00DB6BE743469B79002B30
:10118000B3D1434608229A5E002A0EDB43465969D2
:1011900053009B18DB00CB189C68DD68631CCED124
:1011A0006B1CD2D0CBE7002CD7D040BF03B0F0BC33
:1011B000BB46B246A946A046F0BDC04670680120B5
:1011C0003C700540A07E001008890010CC7E001005
:1011D00000400540ED0E001070B504000D00110038
:1011E0000126AE4006622800FFF764FB01212800BB
:1011F000FFF738FB024B9C466444266070BDC04636
:1012000038200000F8B504000F0016001D00C16072
:10121000FFF75EFA124B9C46604480002061267006
:10122000ABB26381D0221206127862700122524260
:101230002281A2809B186380002306E0581E61690A
:101240005A00D218D20088520133AB42F6D3054B74
:10125000B200D450044A31003800FFF7BDFFF8BD9A
:101260004000003470680120ED0E001010B5064BF0
:101270001B69002B01D0044810BD044B044A0548EB
:10128000652102F0DBFAC046600C0020147F0010DC
:10129000F0880010CC7E0010F8B504000569EFF36B
:1012A000108072B629680029FCD0BFF35F8F02213D
:1012B000665E656971008919C9006D18002E02DB30
:1012C0000027E95F61802169BFF35F8F00270F600E
:1012D00080F31088002E2DDB06992961079969613A
:1012E000AA60EB606B8801335B04590C002B00D1C2
:1012F000012169803000FFF7DDFD2169EFF31083E4
:1013000072B60A68002AFCD0BFF35F8F0421625EC8
:101310002A80A6802269BFF35F8F0021116083F3CA
:101320001088E368217801228A4004498C4663448E
:101330001A60F8BD01204042FBE7C0463C20000097
:1013400070B582B0060014001D0008AB1B78002B9E
:1013500007D100F0DDF922002B00121A8B41002B7F
:101360000ADB079B0193069B009322002B003000B1
:10137000FFF792FF02B070BD0020FBE7F0B5C64654
:1013800000B584B080460F0016001D000AAB1C7823
:10139000FFF76CFF02940195009642463B00FFF771
:1013A000CFFF04B080BCB846F0BD000010B503000C
:1013B00008145A8990422DDA5C6942001218D20052
:1013C000A2181C69EFF3108072B6844620680028CA
:1013D000FCD0BFF35F8F50880904090C814212D002
:1013E00000201A69BFF35F8F002111608CF3108811
:1013F000002810D0DA681B7801319940064B9C46D2
:101400006244116007E005490143518001229A714D
:101410000120E6E7002010BD3C2000000080FFFF17
:1014200010B50400FFF722FF2100FFF7BFFF10BD3A
:1014300040787047F0B583B006000F00EFF30583E6
:10144000002B1AD106246442E517A4197D418D4270
:1014500002D803D1844201D90024002500F058F9B4
:1014600022002B00121A8B41002B0BDC08D030001D
:10147000390000F05FF903B0F0BD1648FFF7B6F889
:10148000002AF4D0144A0023009320002900FFF71B
:1014900075FF002813DAEAE7104B1968EFF31083A1
:1014A00072B60A68002AFCD0BFF35F8F0B4A12683D
:1014B000BFF35F8F0021116083F3108820BF084BBA
:1014C0005B6A9D42E8D80649896AA142CFD29D4213
:1014D000CDD1E1E7387F0010BD0E00108C690120EE
:1014E0000040054070B504000D0000F011F9220025
:1014F0002B0012184B411000191E02DBFFF79AFF58
:1015000070BD012040420149F8E7C046FFFFFF7F60
:1015100010B5FA2292000023002101F06DF8FFF7C8
:10152000E1FF10BDF0B5C64600B584B0804603911A
:10153000EFF30583002B2BD1474B1A685B6882427F
:1015400039D0FFF793FEC3681F00067842461400A7
:10155000039A1500180000F0AFF802000B00A41A5F
:101560009D412200311D8900C959091A0020A84255
:1015700027DC24D020BF039A384B5B6A9A424BD8B1
:101580003649896A41454CD29A4243D0012044E011
:101590000B00324A526A8A4209D33049896A88422A
:1015A00007D99A4201D0012037E0002035E0002021
:1015B00033E0012031E0039A9342C2D1DAE791424D
:1015C000D8D9274A0023009345462800039C2100D0
:1015D000FFF7D4FE002826DD1F4B1D6003995960DC
:1015E0000D001E4B5B6A994205D81C4A926A42451F
:1015F00002D2994200D120BFFFF712FF174B5B6A5E
:101600009D4224D8154A926A424522D29D421CD05E
:10161000012002E0002000E0002004B080BCB846B9
:10162000F0BD0120F9E70D4B5B6A9C4209D80B49DC
:10163000896A414507D29C4201D00120EDE7002094
:10164000EBE70020E9E70120E7E70020E5E70020DD
:10165000E3E70120E1E7C046580C002000400540C8
:10166000BD0E0010004870470040054010B50B4B00
:101670001B69002B04D00A480A21FFF7A9FB10BD03
:10168000FFF7F0FF0400032100F00CF803481023DB
:1016900003222100FFF7B6FDEDE7C046600C0020F5
:1016A0008C69012010B5024A0248FEF7CDFF10BD3B
:1016B000887F0010006401200200436A906A1900CC
:1016C000536A9942FAD17047416A00E0416A9942EF
:1016D000FCD300E0416A994202D1816A9142F9D378
:1016E000704770B5060014001D00FFF7E5FF2200EB
:1016F0002B0012184B41994202D804D1904202D9D2
:1017000001225242D3173000FFF7DEFF70BD000008
:1017100010B50248FFF7D0FF10BDC046004005409D
:1017200010B502000B000248FFF7DBFF10BDC046FA
:101730000040054010B502000B000248FFF7C4FF4F
:1017400010BDC04600400540074B98420AD0162302
:1017500001229A40054B1A60054B1B681100994302
:10176000FAD170471723F3E70080034000F00040F0
:1017700008C0004070B5046BE30701D4200070BDC1
:101780000B4BC3180B4A1A60436A826A9B019B1871
:101790009D02062000F018F9074900F097FB0100B0
:1017A000280000F093FB0021FFF7BAFFE6E7C046F0
:1017B00030300000010300004E0E000070B5040040
:1017C0000E001500FFF7D6FFE16A33004B40190009
:1017D0002B000B401900024BE3181960206370BD09
:1017E0002C10000070B505000C00062000F0ECF88D
:1017F000C000210000F06AFB0130C60907D00E4B83
:101800009E4215D8400834003F26064000E00124DF
:101810006C62AE62002200212800FFF7CFFF062095
:1018200000F0D2F88000A101891900F04FFB70BDD3
:101830000026024CECE7C046FEFF0000FFFF000060
:10184000002909D00A22064B9C4660444342584175
:10185000044B4000C252704780225200F3E7C0465A
:101860000080FCBF9C69012070B504000D000620BB
:1018700000F0AAF800281ED0104B9C421CD0162263
:10188000012393400E4A13602000FFF75DFF002103
:101890002000FFF7D5FF29002000FFF7A3FFE26A31
:1018A00070235A400E331340064AA2181360064BA9
:1018B00023630323A36470BD1722E1E70080034084
:1018C00000E000402C10000001030000F8B5CE46F7
:1018D000474680B505000E009046994644002418FE
:1018E000A400284B9C4664446368089A934200D243
:1018F00062602F1FFFB2012F2ED980221201C02358
:101900009B01E3181A60204BAA00D158002907D088
:10191000586900F0DBFA013043001B18033BFDD28D
:1019200043465B0122685340E0221340802252016B
:10193000A2181360012F1AD980239B01E31880227B
:1019400012011A60089B63600F4BAD004A46EA50D3
:10195000C0BCB946B046F8BD012ECED10322C0238B
:101960009B01E3181A60A368DB07FCD5D8E7216860
:10197000714003230B401360A3680122B2401A4256
:10198000FAD0D9E7008000400464012070B582B02D
:1019900006000D0014001800069900F097FA0300E5
:1019A000069A11020091220029003000FFF78EFFF5
:1019B00002B070BD10B582B0802464000094FFF7BF
:1019C00085FF02B010BD0000014B8000C058704779
:1019D00004640120F0B5C64600B504000E001700EF
:1019E0001D00374800F072FA8046364BFA18364B25
:1019F0009A4239D80100380000F068FA0200103A23
:101A000098235B009A4235D86B1E062B38D8069B6C
:101A1000013B062B34D83F09474537D32D04069B9D
:101A20001B031D432368002B36DB284B9C4244D00C
:101A30000C2201239340264A1360264A1360264A4B
:101A40001268190091430A1EF9D12660A060234B49
:101A5000E31821321A602268002AFCDAE5600822C5
:101A60001A6080BCB846F0BD1D4B1E4A1E481121AD
:101A700001F0E4FE1D4B1B4A1B48192101F0DEFE5C
:101A80001B4B184A18481C2101F0D8FE194B154A67
:101A90001548232101F0D2FE22683F231340B342B0
:101AA000C3D1A3681B051B0D8342BED1E368EE22A0
:101AB000D2021340AB42B8D1D3E70D22B9E7C046FA
:101AC000001BB70080E84BD380F8A93200C0024069
:101AD00000E0004000F0004008C00040043000007A
:101AE000AC7F001020890010FC7F00104C8000109B
:101AF00068800010B4800010024B1A68024B5A60D4
:101B00007047C046606801200080054010B5164B44
:101B10008022D2051A60154B154A1A6000290AD096
:101B2000144BE022D2041A60002809D1114B802204
:101B300012061A6010BD0C4BE022D2041A60F3E7C3
:101B400043011B1A9B00181800010B4B18600B4B2C
:101B5000984202D9084B094A1A60FFF7CDFF054B9E
:101B60008022D2051A60E5E700B005400820014058
:101B7000FCFF010000A0054060680120FFFFFF009E
:101B800010B503000C0010000B4A8021C90511603C
:101B9000002B0DD001221343084A0949D16109499C
:101BA00059401162546293620021FFF7AFFF10BDEC
:101BB000024B0022DA61F7E700B0054000800540E3
:101BC000D3C007B02D3FF84F80239B000B43014A41
:101BD000D36270470080054010B5010018231B88B0
:101BE00014221088984710BD10B5010018231B88D7
:101BF00016221088984710BDF0B5C64600B50700FC
:101C00000E0000250123984600E00135B5420AD2B6
:101C1000AC003C192068FFF7DFFF20600028F4D1FA
:101C200000239846F1E7404680BCB846F0BD00006E
:101C300070B504000D000648FFF7CEFF0300002C2E
:101C400003DB0120A040290098470020FBE7C046A5
:101C500055420000074BAA2212011A608D22520041
:101C6000DA60054B054A1A60024B5B68002BFBDA11
:101C70007047C046004002400060024000B0FA00D9
:101C800010B5040001E008CC9847024B9C42FAD3FF
:101C900010BDC046087800107047000010B502481B
:101CA000FFF7EEFF10BDC046D0770010054B064A87
:101CB0001A60064B064A1A60064B1A68044B934397
:101CC000FAD1704700E00040BFCDFBFE00F00040BD
:101CD000FE7F3C0008C00040044BDB6C002B03D1AE
:101CE000034B8022D2021A607047C0460000115098
:101CF0004C201150044B054A1A60054B1B68DB430E
:101D0000DB01FAD17047C04600F00040FFFFFF0141
:101D100008C00040034B40229A675A671A67DA6688
:101D20007047C04600F0014010B5FEF7EFFC10BD53
:101D300010B50C4C0C4BE41AA4082200302C00D92E
:101D4000302292000948084900F07EFC04E0084A6D
:101D5000064BA100CA5001342F2CF8D9034B054A79
:101D6000936010BDC00100100001001000000020B1
:101D7000C101001000ED00E070B50420FFF724FE63
:101D8000064900F0A3F805000024002C00DD70BD1A
:101D9000E0B22900FFF718FF0134F6E740420F00D8
:101DA00030B583B0274B00229A67FFF753FF264BCD
:101DB00001221A60234B5B6C012BFBD1234B0322C6
:101DC0001A60204B9B6B012BFBD101330093043332
:101DD0001F4A01211F48FFF7FDFD052300931E4AFE
:101DE00001211E48FFF7F6FD1D4B002202210420B1
:101DF000FFF7E0FD1B4D2B00002201210520FFF71E
:101E0000D9FD194C2300002200210720FFF7D2FD45
:101E10002300002200210820FFF7CCFD8023DB00F7
:101E200000932300002200210920FFF7AFFD2B00C3
:101E3000002200210620FFF7BDFDFFF79DFF03B044
:101E400030BDC046008000403CB0004030B0004093
:101E5000002F685900800240008C864700C0024075
:101E6000001BB70040597307006CDC0201480421D5
:101E7000014B1847800C0020F91B0010124A936F89
:101E80009B0815D29066D166002905D0FFE7FFE7D1
:101E9000FFE7516F106F704704B580210906C21724
:101EA0005140002800D0C84305F05AFC002104BD71
:101EB000F0B5146E556E576F166FFFF7E3FF14669B
:101EC000556657671667F0BD000000D0114A936F42
:101ED0009B0813D210665166002905D0FFE7FFE783
:101EE000FFE7516F106F704704B5002801D0002044
:101EF000C04305F035FC002104BDC046F0B5146EAA
:101F0000556E576F166FFFF7E5FF146655665767F6
:101F10001667F0BD000000D094464A4A926F9208BE
:101F2000624601D228E0C046F0B5464E346E756E6A
:101F3000776F366F00F020F89446424A1466556673
:101F4000576716676246F0BD94463E4A926F920804
:101F5000624601D254E0C046F0B53A4E346E756E1A
:101F6000776F366F00F04CF89446364A1466556623
:101F7000576716676246F0BD002B24DB11D000299D
:101F80003EDA00B5C943404200D1013100F038F8D3
:101F9000C943404200D10131DB43524200D10133F9
:101FA00000BD002AEBD1002801D1002905D0002076
:101FB000C90FC90701D1C043410800B505F0C0FBF6
:101FC0000022002300BD00B500290ADBDB4352429A
:101FD00000D1013300F014F8C943404200D101316F
:101FE00000BDC943404200D10131DB43524200D120
:101FF000013300F005F8DB43524200D1013300BD4C
:10200000002923D1002B18D1002A0CD0BC460D4F3B
:1020100038667A6600210023FFE7FFE7FFE77A6F63
:10202000386F67467047002801D00748010000B5A7
:1020300005F086FB0022002300BD02000B000020FB
:1020400000217047000000D0FFFFFFFF002B00D0F1
:10205000BFE0130C28D1002AE7D080B4114F3966B5
:102060007A66FFE7FFE730B4040C7B6F396F1B041F
:1020700023433B667A66FFE7FFE7FFE7C04684B28B
:102080007B6F3D6F1B0423433B667A66FFE7FFE7E8
:10209000C04600232C042D0C7A6F386F001969415B
:1020A000B0BC7047000000D0F0B594460025140E77
:1020B00001D112020835140F01D112010435940F19
:1020C00001D192000235D40F01D152000135D40B59
:1020D0000134254F7C66254C3C660E0C93B2FFE71D
:1020E000FFE7FFE73C6F6643360C7703BE4673435A
:1020F000DF0B5B04C01AB941130C7343DB18C91A18
:10210000CE086643360CB64493B273431F0F1B01CF
:10211000C01AB941130C73431F0B1B05C01AB941F8
:10212000860D8F023E436643360C092D24DB520A8E
:102130007243801A7703460A6643360C16235B1BEC
:10214000DE40DF40BF1964466643821B704604359B
:1021500006330100D940A840C01900D30131A24282
:1021600006D20023F0BD0000000000D0FFFFFFFFFB
:10217000121B0130F3D3F1E709277F1BFE406446B1
:10218000A2B27243801A00D20139220C7243130C9E
:102190001204821A99410B0070460435133701006E
:1021A000F940A840801900D30131002B02D1A2428E
:1021B0000AD2F0BD013000D30131121BFAD2013B2B
:1021C000F8D1A24200D2F0BD013000D30131121B80
:1021D000F7E7F0B51C0C00D080E00CB400251C0A19
:1021E00004D11B02160E3343120208351C0B04D116
:1021F0001B01160F3343120104359C0B04D19B00C5
:10220000960F334392000235DC0B02D192185B41EA
:1022100001351C00971864410134464F7C66464CDA
:102220003C660E0CFFE7FFE7FFE7C0463C6F6643E6
:10223000360C7703BE4697B27743C01B00D20139F4
:10224000C01B00D201399FB27743C91BC91B170CB1
:1022500077437E04FF0B801BB941CE086643360CE2
:102260000C2D33DBB644120B1F053A431B0B97B200
:102270007743C01B00D201399FB27743C91B170CAB
:1022800077433E043F0C801BB941860D8F023E43CD
:10229000664329277F1BFE400C3D7746AF40BF19A0
:1022A00030BCA2B2ABB272437343801A9941220C84
:1022B0007243130C1204801A994102000B0001377B
:1022C000001BA941F9D2781E0021F0BD0C277F1B0D
:1022D000FE4077467F0BAF40FF19E0E700245D1C0E
:1022E00007D0144F7D663966FFE7FFE7FFE7FFE79A
:1022F0003C6F95B29EB265436643401BB141150CDD
:102300001E0C6543664336042F0C3E432D04401BD0
:10231000B141994204D202000B0020000021F0BD1F
:1023200001D19042F7D3801A994101349942F2D3F6
:10233000F6E70000000000D0FFFFFFFF48404140EB
:10234000484018B4134B5B68019308BD18B4114B97
:102350001B68019308BD94460F4A926F920805D2FC
:10236000624618B40B4BDB68019308BD0A4AF0B50E
:10237000146E556E576F166F6246FFF7F2FF064AEE
:102380001466556657671667F0BD18B4014B9B6815
:10239000019308BD88680120000000D0FFB55040BF
:1023A0004240504059404B40594000E0FFB5154F66
:1023B0004C00640D03D0BC4204D10C0314D800209F
:1023C000090D09055C00640D03D0BC4204D11C0357
:1023D0000AD800221B0D1B0501264B4009D44B4097
:1023E00003D58B4200D18242FFBD9942FCD190427D
:1023F000FFBD0B43DB1803431343F5D0C943491812
:10240000FFBD0000FF07000000B5FFF7CFFF8041D0
:1024100000BDC04600B5FFF7C9FF01D9002000BDCF
:10242000012000BD00B5FFF7B9FF01D9002000BDB4
:10243000012000BD00B5FFF7B1FF804100BD0120C4
:1024400040054A00121804D85A00121801D800207A
:1024500070470120704700000021002805D1704717
:10246000C1174840401AFAD0C90713B5064B1B687C
:1024700098470CBC441CA2401005120B0349091BD1
:1024800009051943114310BD886901201F0400008C
:1024900010B54C00620D8023D218DB00D21A5B0508
:1024A0007E2A10DD9E3A13DACC1709034908194336
:1024B0005242D140640001341532202A05DAD0405E
:1024C0000843604310BD002010BD0846604310BDA6
:1024D000C80FC018013810BD18B4024B5B6A0193D5
:1024E00008BD00008868012010B50148FEF77EF89D
:1024F000D080001070B513231C78012C12D0012C51
:1025000012DC214B214A93642148FFF765FB214BE4
:10251000186070BD20491D4A9800815001331F2B5F
:10252000F8D9ECE70023FAE71C48FFF75DFB05004C
:102530001B48FFF759FB023803789B007F2B09DD0E
:1025400012488022290000F07FF8022C08D0022CCB
:10255000DADCD6E7134B144A1448342101F06EF943
:10256000134B1A88B5231B029A4209D1114B1A88C2
:10257000114B9A4204D1114B1A88114B9A42E6D062
:102580000020FEF733F8C046C525001088680120FA
:102590004C33000088690120E924001053440000F6
:1025A00053460000E88000102C8900102C81001098
:1025B00054380000D8380000494600009C3800001C
:1025C0005946000007B56046002800D100BE0188CA
:1025D0000A0A0230DF2AFAD1C9B2820804D302887B
:1025E00040880004104300E00068024A5050039005
:1025F00007BD00008868012051434343C9188C4639
:10260000110C83B24B4310B4040C614392B280B2FC
:10261000504362431C041B0C001910BC59411304A5
:10262000120CC01851416144704700000148042158
:10263000014B1847900C0020F91B0010014B1B6840
:1026400018470000900C0020014B5B681847000001
:10265000900C0020704710B5002802D00B68496824
:10266000984710BD0100002007E083001B185B00A5
:10267000501C08601078C01830380A681378303B56
:10268000DBB2092BF1D97047F0B5D6464F46464626
:10269000C0B505000E0091461F00099C0B9B02224D
:1026A000110019408A461A4201D1DB0716D54A4665
:1026B000B84637002E001FE0551C3300414620204D
:1026C000B84701342A000A9B9C42F5D33D003700ED
:1026D0004646099CB84637002E000DE04A46B046F3
:1026E0003E0007000994EEE7013C551C089B185D6D
:1026F00043463900B0472A00002CF5D135003E0092
:1027000047465346002B11D11000E0BCBA46B146F3
:10271000A846F0BD541C330029002020B8472200F1
:102720004B46D31A0A998B42F4D3EDE73B002F00B6
:1027300035001E00F4E7F0B5CE46474680B585B0BB
:1027400006000F00904699460C9A0D9B0EA9097839
:102750008C46109D119C129988071CD4002C0CD01B
:10276000C8070AD56046002802D10C30084204D0C0
:10277000013C02E03020D0540133AB4201D21F2B88
:10278000F8D9C80707D5A34205D21F2B03D830209C
:10279000D0540133F5E7C80612D5480505D4002BFF
:1027A00003D0AB4223D0A34221D00F98102831D0C0
:1027B0000F98022838D01F2B0AD83020D05401336C
:1027C0001F2B05D86046002834D02D20D05401336B
:1027D00003910294019300924B4642463900300027
:1027E000FFF752FF05B0C0BCB946B046F0BD581E59
:1027F000012B17D00F9D102D0BD003000F98102820
:10280000D6D18806D4D51F2BD2D85820D054013326
:10281000D1E7023B8806F1D41F2BEFD87820D054A3
:102820000133C8E70300C0E71F2BD1D86030D05474
:102830000133C0E7480703D52B20D0540133C7E745
:102840000807C5D52020D0540133C1E7F0B5DE46D6
:1028500057464E464546E0B593B080468946924677
:102860009B461CAB10CB1B7809931E9D002C03D1FB
:102870001023219A9A4321928023DB00219E1E403F
:10288000219A1A4218D0002C22D0002614E0219A56
:1028900092061BD54121C918C9B20A39C9B2771CA1
:1028A0000AAB995529002000FFF710FBAC4210D36A
:1028B0001F2F0ED83E00040029002000FFF706FB62
:1028C000CBB2092BE3D83033D9B2E8E76121E2E794
:1028D0002700219B0693209B05931F9B0493039540
:1028E000099B029301970AAB00935B465246494607
:1028F0004046FFF720FF13B0F0BCBB46B246A946E6
:10290000A046F0BDF0B5DE4657464E464546E0B51A
:1029100095B08346089109920A931E9B99461F9F82
:1029200020AB1B780B93229B9846239C4B463B4342
:1029300003D11033269A9A4326928023DB00269DEA
:102940001D40269A1A4208D04B463B4339D00025F9
:102950004E4623002C001D001FE04E4623002C0095
:102960001D001AE0269A920623D54122D218D2B22F
:102970000A3AD2B2631C9A460CAB1A5542462B0057
:1029800030003900FFF7E0FABD421CD813D053469F
:102990001F2B14D8544606000F0042462B0030006F
:1029A0003900FFF7D1FAD3B2092BDBD83033DAB2D2
:1029B000E0E76122DAE7B045E9D9564604E0564639
:1029C00002E0002600E05646269B0693259B0593D1
:1029D000249B0493434603930B9B029301960CABF9
:1029E00000930A9B099A08995846FFF7A4FE15B070
:1029F000F0BCBB46B246A946A046F0BDF0B5DE46E7
:102A000057464E464546E0B595B004008A46934683
:102A100099461E9E1F9F32003B0030003900FFF791
:102A20000EFD002800D0FBE001225242D64B3000C0
:102A30003900FFF7FFFC002800D0F1E001225242EC
:102A4000D24B30003900FFF7DFFC002800D0E7E070
:102A50000022002330003900FFF7D6FC002800D008
:102A6000F3E0069607978023DB00229A1A40119222
:102A7000229A1A4201D10623209306980799020050
:102A80000B000A920B9303000A00024300D1E8E016
:102A9000080D4005400DBE4DAC466044050007984A
:102AA0000203120B00200021089009910893B94BF2
:102AB000134309932800FFF7D3FCB74AB74BFFF73E
:102AC00064FCB74AB74BFFF741FC0A900B91002218
:102AD000B54B08980999FFF734FCB44AB44BFFF79B
:102AE00054FC02000B000A980B99FFF72FFCFFF72C
:102AF000CFFC80460890FFF7B3FCAE4AAE4B0A907D
:102B00000B91FFF742FC0022AC4BFFF71FFCFFF7D5
:102B1000BFFC0500AA4AAB4B0A980B99FFF735FC9E
:102B20000A900B912800FFF79BFCA74AA74BFFF7E1
:102B30002CFC02000B000A980B99FFF702FC020024
:102B40000B000A900B91FFF720FC0E900F912B00C9
:102B50009F4DAC466344002100220C910D921B0551
:102B60000D9300230C930A980B9902000B00FFF7BA
:102B7000EDFB129013910A9A0B9B00208021C9054E
:102B8000FFF7DFFB0A900B910022924B0E980F99F2
:102B9000FFF7E1FB0022904BFFF7D8FB02000B0090
:102BA0000E980F99FFF7D7FB00228C4BFFF7CEFB57
:102BB00002000B000E980F99FFF7CDFB02000B00EF
:102BC0000A980B99FFF7C2FB02000B0012981399A9
:102BD000FFF7C1FB00226F4BFFF7B8FB0C9A0D9B70
:102BE000FFF7D3FB02000B000A920B93069A079B98
:102BF0000C900D91FFF71EFC00280AD04346013BC4
:102C000008930022744B0C980D99FFF7A4FB0A90CF
:102C10000B91089B6333C62B49D804231D0024E085
:102C2000229B0493219B0393209B02930096019780
:102C30004B465A465146200000F004F915B0F0BC4E
:102C4000BB46B246A946A046F0BD0021002206912F
:102C50000792069680231B069C46BC446346079356
:102C600001E70023089304331D00229B1B052BD58D
:102C70000A9A0B9B1900114311D0594A594B0698D7
:102C80000799FFF7CFFB002800D1B1E00022564B97
:102C900006980799FFF7B8FB002800D1A8E0209A12
:102CA000089B9A4206DDD31A013B209304E00523DA
:102CB0001D00DAE7002320938023DB00229A1A43C9
:102CC000229200231D000893219A954200D39BE095
:102CD000531B98460223229A1A400C92229A1342BE
:102CE00003D0002D01D000239846089B002B07D06D
:102CF0000A9A0B9B06980799FFF72DFB0690079100
:102D00000022002330003900FFF77EFB002800D0AE
:102D10007DE0364B229A1340049343460393209B55
:102D20000293069A079B009201934B465A465146DE
:102D3000200000F087F8002D00D17FE7229B9B0642
:102D400071D54527461C4B46020051463800A04726
:102D50000898C317C2185A4005230593013D0495EE
:102D6000002303930A330293C30F019300924B464F
:102D7000320051462000FFF769FD0C9B002B00D16B
:102D80005CE70200219F56E0FFFFEF7FFFFFEFFFB0
:102D900001FCFFFF0000F03FFB799F501344D33F3D
:102DA000B3C8608B288AC63F0000F83F61436F6359
:102DB000A787D23F71A379094F930A400000E03FF3
:102DC0001655B5BBB16B0240EF39FAFE422EE63F15
:102DD000FF03000000002C400000244000001840C9
:102DE0002D431CEBE2361A3F80842E41FFF7FFFF94
:102DF000209B002B00D167E7119B002B00D163E7DC
:102E0000209B013B20935FE70023984662E7069EE4
:102E1000079F3200390080200006844661440B0081
:102E20000692079375E765278CE7561C4B4651467B
:102E30002020A04732005B46D31ABB42F5D31000D6
:102E4000FCE6C046F0B5DE4657464E464546E0B580
:102E500095B081468A4693460A93209F1E9A1F9BEF
:102E600010001900FFF7EBFA002831D1012252427D
:102E7000BA4B1E981F99FFF7C7FA002837D10122D5
:102E80005242B74B1E981F99FFF7D4FA00283DD144
:102E90000022B44B1E981F99FFF7CCFA00284AD1A4
:102EA0000022B14B1E981F99FFF7AEFA002842D1BD
:102EB000002200231E981F99FFF7A6FA00284AD186
:102EC00000230B93229B5B0500D4AFE0002452E06B
:102ED000229B0393219B029303230193A34B009313
:102EE0000A9B5A4651464846FFF7CEFB1FE1229BFC
:102EF0000393219B0293042301939D4B00930A9B10
:102F00005A4651464846FFF7BFFB10E1229B5B073C
:102F10000ED5984B04222299039121990291019296
:102F200000930A9B5A4651464846FFF7ADFBFEE028
:102F3000914B0322EFE7229B0493219B039302977B
:102F40001E9B1F9C009301940A9B5A46514648467B
:102F5000FFF754FDEBE01E9A1F9B00200021FFF7B6
:102F6000F0F91E901F9101230B93ABE70CAB3022BD
:102F70001A55013F01341F2C01D8092FF6D81E988D
:102F80001F99FFF785FA0500FFF76AFA02000B00A8
:102F90001E981F99FFF7D5F9784BFA009B180CCBB8
:102FA00008920993FFF7F1F906900791FFF794FA59
:102FB0000600FFF751FA02000B0006980799FFF789
:102FC000C0F90690079100226D4BFFF733FA0028F5
:102FD0002ED001363000FFF73FFA02000B000898B0
:102FE0000999FFF717FA002801D001350026002FB4
:102FF0002CD12800FFF734FA02000B001E981F990D
:10300000FFF79FF906000F0000225D4BFFF7FCF968
:10301000002846D100225A4B30003900FFF70AFA47
:1030200000283ED1EB073CD501353AE006274DE7B5
:103030000022534B06980799FFF7E6F90028D6D1EE
:10304000002E01D0F307D2D50136D0E7A8461F2CB9
:1030500011D8013F0A213000FEF738FF651C3031DE
:103060000CAB19550A213000FEF730FF092E0ED99E
:1030700006002C00EBE745461F2C0CD87B1E002FCA
:1030800009D00CAA302111551F000134F4E72B00A0
:1030900045461C00F0E71F2C03D80CAB2E221A5516
:1030A00001341F2C10D80A212800FEF7E7FE661C09
:1030B00030310CAB19550A212800FEF7DFFE051E42
:1030C00001D03400EDE73400229B9B0719D4229BEA
:1030D000DB0716D5219B002B0ED00B9B002B03D1B9
:1030E0000C33229A134207D0219B013B219303E02A
:1030F0000CAB30221A550134219B9C4201D21F2C6B
:10310000F6D91F2C06D80B9B002B17D00CAB2D2209
:103110001A550134229B0393219B029301940CAB1B
:1031200000930A9B5A4651464846FFF7ADFA15B040
:10313000F0BCBB46B246A946A046F0BD229B5B0749
:1031400004D50CAB2B221A550134E3E7229B1B0755
:10315000E0D50CAB20221A550134DBE7FFFFEFFF6F
:10316000FFFFEF7F65CDCD4165CDCDC1EC81001076
:10317000F0810010E0810010E8810010288A001022
:103180000000E03FF0B5DE4657464E464546E0B506
:103190008FB00700894690460D93002900D11DE3AA
:1031A000002508E06C1C43462A004946B8470D9BA1
:1031B00001330D9325000D9B1878002800D10FE3F3
:1031C0002528EFD101330D93002420E001231C4377
:1031D00001320D92012618E002231C4301320D92A8
:1031E000012612E004231C4301320D9201260CE05B
:1031F00008231C4301320D92012606E010231C43D4
:1032000001320D92012600E00026002E09D00D9A11
:103210001378203BD9B21029F6D88B00BD49CB5882
:103220009F460D9B1A781300303BDBB2092B10D957
:103230002A2A13D00B960D9B1A782E2A1ED00D9A8F
:103240001378683BD9B2122959D88B00B249CB58B0
:103250009F460DA8FFF706FA0B90ECE7189B1A1D86
:1032600018921B68002B04DB0B930D9B01330D930D
:10327000E1E7022214435B420B93F6E78022D2007F
:1032800014435A1C0D925A781300303BDBB2092BC1
:103290000BD92A2AD3D1189B1A1D18921E68002E0A
:1032A00008DB0D9B01330D93C9E70DA8FFF7DAF991
:1032B0000600C4E70026F4E780235B002343511C8B
:1032C0000D9151786C2901D01C0018E0C0239B009F
:1032D0001C4302320D9212E080232343511C0D91B6
:1032E0005178682901D01C0009E0C0231C43023238
:1032F0000D9204E080235B001C4301320D920D9B74
:10330000187865284AD8462830D8252800D15BE2AD
:10331000242839D9452861D0462835D1462800D1FE
:1033200093E1189B0733072293431A00083218923F
:1033300004940B9A039202960CCB0092019343469D
:103340002A0049463800FFF77DFD05000D9B01333B
:103350000D9330E780239B001C4301320D92CEE792
:1033600080235B001C4301320D92C8E70200473AFC
:10337000D2B201239340694A134255D1684A13429D
:103380002CD1632800D163E16C1C43462A004946D6
:10339000B8470D9B01330D9325000CE77828F3D82F
:1033A000682817D90200693AD2B2012393405D4AD6
:1033B000134239D1702800D1ECE17328E4D1189B75
:1033C0001A1D18921B689B46002E00D17AE132002C
:1033D0005B467CE16628A1D06728D5D1672801D05B
:1033E000472802D180231B011C43452801D04728D0
:1033F00001D120231C43189B0733072293431A0053
:103400000832189204940B9A039202960CCB009205
:10341000019343462A0049463800FFF7EFFA0500BA
:103420000D9B01330D93C6E66F280ED006D85828A1
:103430003DD0622804D102239A4608E0782839D08A
:1034400010239C43063B9A4601E008239A465828DD
:1034500033D0692803D0642801D00C239C43630532
:1034600001D501239C4369282AD0642828D0A305CC
:1034700000D5ACE0E30500D5C4E0630600D4D6E097
:10348000189B1A1D18921A68FF23134005940B9A73
:103490000492039652460292002201920093434600
:1034A0002A0049463800FFF7D1F905002DE0102326
:1034B0009A46CCE710239A46C9E720231C43C8E765
:1034C000A3053DD5189B0733072293431A00083202
:1034D00018921A6894465B689B46002B24DD62466E
:1034E0005B4608940B99079106965146049100217A
:1034F00005915946C90F02910092019343462A0053
:1035000049463800FFF7FEF905000D9B01330D9386
:1035100051E6C04694890010D889001000000228A6
:103520000100004041900000002B01D1002AD6D1BB
:1035300063465A4618001100002342428B41D0E7EF
:10354000E30519D5189B1A1D18921B68002B11DD75
:103550001A0005940B990491039651460291DB0FD2
:103560000193009243462A0049463800FFF76EF95E
:103570000500CAE75A42ECE7630619D5189B1A1DE5
:1035800018921A68FF231340002B1EDD1A000594C1
:103590000B990491039651460291DB0F019300921F
:1035A00043462A0049463800FFF750F90500ACE7CA
:1035B000230605D5189B1A1D189200229B5EE3E78F
:1035C000189B1A1D18921B68DEE75A42DFE7189B0A
:1035D0000733072293431A000832189208940B9A73
:1035E00007920696524604920022059202920CCB54
:1035F0000092019343462A0049463800FFF782F9BA
:10360000050082E7189B1A1D189205940B9A0492E4
:10361000039652460292002201921B680093434691
:103620002A0049463800FFF711F905006DE7230627
:1036300006D5189B1A1D18921B681B041B0C25E746
:10364000189B1A1D18921B6820E720231C4368E66C
:1036500002231E00264023421ED00124189B1A1D5F
:1036600018926A1C9346187843462A004946B84780
:10367000002E16D10D9B01330D935D469BE5551C25
:10368000434649462020B84723002A005C1C9E423E
:10369000F5D856461500E1E70123B2460B9E2A00F5
:1036A000F4E75A46BA460B9F06E0561C4346494685
:1036B0002020D0472C003200651CA742F5D8934645
:1036C0005746D7E70122524282E601330A001978B1
:1036D000002902D0511E002AF7D15A469B1A802297
:1036E000D200210011408A46144202D0B34200D9D0
:1036F00033000222110021400C91224207D02A00FF
:1037000035005C469B463B0057469A4621E02A001E
:103710004946B1460E005C1C0B99994207D9551CCD
:10372000434631002020B84723002A00F3E7330046
:103730004E469946230035005C469B463B00574663
:103740009A4606E01D000134561C43464946D047C0
:1037500032002078002804D0002FF4D06B1E002DFA
:10376000F0D115005B4657460C9A002A03D10D9BF9
:1037700001330D931FE50B9E2A005C1C9E4207D966
:10378000551C434649462020B84723002A00F4E749
:103790001500ECE721231C43189B1A1D18921B6887
:1037A00005940822049203960832029200220192A4
:1037B000009343462A0049463800FFF747F80500C2
:1037C0000D9B01330D93F6E46C1C43462A004946D9
:1037D000B8470D9B01330D932500ECE4094FDFE45E
:1037E00045450DD343465A1E434649460020B84737
:1037F00028000FB0F0BCBB46B246A946A046F0BDBB
:103800002A00F1E75526001000B585B08C4602A9C4
:1038100002906046486001208446044800931300EB
:1038200062465242FFF7AEFC05B000BD57260010BD
:1038300000BEFDE7704710B5FFF7FAFF10B582B084
:1038400084460C001900002A0AD0074B0748019251
:1038500000932300624600F05FF90120FFF7E8FFC4
:10386000034B1A00F2E7C046F881001008820010EE
:103870001088001010B5EFF30583002B00D000BEB8
:10388000FEF70CFA034C01E008CC9847024B9C422F
:10389000FAD310BD087800100C78001010B50300A2
:1038A000080011001B68984710BD0000F8B507001C
:1038B0000D001600437D002B02D0002400200CE0F8
:1038C00003681100280098472BE03B7D0FE03B6820
:1038D000144802219847601C0134B44213DA002CCA
:1038E000F3DD631EEB5C0D3B5A425341DBB22A5DB4
:1038F0000A2AF1D1002BEFD1A042E8DA3B68211A65
:1039000028189847E3E7B04203DA3B68311A2818D1
:103910009847002E05DD013EAB5D0D3B5A425341F9
:103920003B75F8BD788A001070B505000368002B60
:1039300016D00C4B1C6805E0290004C92000FFF7D5
:10394000B5FF2469002C09D02368002BF9D0064B61
:103950001B68002BF0D0A342F3D1EDE700232B60CE
:1039600070BDC046546401205C64012010B50B6832
:103970005A1C0A60CB181871802A00D010BD0800AC
:10398000FFF7D2FFFAE7000010B5FDF7C1FE074AC6
:10399000002312184B41002B03DB054803F0C8FE3F
:1039A00010BD01225242034BF7E7C04640420F00D0
:1039B000F80C0020FFFFFF7F10B5024803F0E8FE7F
:1039C00010BDC046F80C0020F0B5CE46474680B585
:1039D00083B080460D0016001C00FFF7D5FF81461E
:1039E0006B1C05D0002C08D0184F194B1C6807E041
:1039F000404603F04DFE0500F4E7164FF5E7246955
:103A0000002C16D02368002BF9D0134B1B68002B19
:103A100001D0A342F3D12A0041462000B847002E2E
:103A2000EDD06B46D91D0A230B7001222000B84748
:103A3000E5E74B46002B05D1280003B0C0BCB946D2
:103A4000B046F0BDFFF7B8FFF6E7C046AD3800104E
:103A5000546401209D3800105C6401200A4A1368F8
:103A600002E01A0010321B69002B08D08342F8D103
:103A7000002907D1036913600023036102E00029D4
:103A800000D010607047C0465464012010B5064B4A
:103A90001C6800E02469002C04D06368002BF9D076
:103AA0009847F7E710BDC0465464012010B500F0F8
:103AB00047F900F05BFA012010BD70B5050003F076
:103AC000E7FD04000123012201002800FFF77CFF2D
:103AD000FFF7DCFF200070BDF0B5A3B007000E00BB
:103AE000FFF752FF050001AC0023019309483300A2
:103AF0003A002100FFF788FE06002000FFF714FFC0
:103B0000FFF7C4FF002D02D1300023B0F0BDFFF756
:103B100053FFF9E76D3900100FB400B583B004A965
:103B200001C90191FFF7D8FF03B008BC04B01847E2
:103B300082B08C46144BC3185A425341134A5B005F
:103B40009B5E8B4205D06B46DA1D634613700021E5
:103B500015E06B46DA1D0D23137000210029F2D108
:103B600083699B06FCD41378036001310132F5E7C9
:103B700083699B06FCD4137803600131013200296C
:103B8000F6D002B07047C0460080FCBF9C6901209F
:103B900082B000226B46D91D06E08369DB06FCD4A7
:103BA00003680B7001320131002AF6D06B46D879D8
:103BB00002B0704770B506000D00002405E0315DCD
:103BC000034B1868FFF7B4FF0134AC42F7DB70BD5C
:103BD000A0690120F8B506000D00002705E07C1C57
:103BE000F719FFF7D5FF38702700AF4204DA0D4A06
:103BF00010688269D206F2D50B4A1268002A0AD0F0
:103C0000084A126850219163506B18390140074BE4
:103C10009C4662441160002F01D03800F8BD033F7C
:103C2000FBE7C046A0690120EC63012034100000CE
:103C300010B5064B1B68002B06D0054A1268002100
:103C40009163044A1068984710BDC046EC63012098
:103C5000A0690120F4630120024B1A6893691B07D5
:103C6000FCD47047A069012070B51E4B1B681E4A2A
:103C7000934208D01422150000281FD01B4B1B684C
:103C8000002B03D070BD15221500F5E7174B186007
:103C9000174B196017492800FCF70CFE012128007A
:103CA000FCF7E0FD0F4B1B6850229A63596B183AE2
:103CB0000A4011498C4663441A60E3E70B4A1268D4
:103CC000002ADFD000249C6300212800FCF7CAFDF5
:103CD00008492800FCF726FF044B1C60044B1C60BD
:103CE000D0E7C046A069012000800340EC630120BA
:103CF000F4630120313C00103410000070B50C005A
:103D00001D000D4B1860002A0BDA002D0EDA0A4B4D
:103D100018682100FDF7A8FD08480121FFF79EFE65
:103D200070BD02211000FCF7DFFBEEE70221280046
:103D3000FCF7DAFBEBE7C046A0690120A00C0020ED
:103D400010B5074B1B78074B1B78074B1B78E121FD
:103D50000123002249020548FFF7D0FF10BDC046ED
:103D60000C910010089100100491001000400340D5
:103D7000024B1860024B19607047C046F063012087
:103D8000F863012010B5FDF7C3FC0E4A002312189A
:103D90004B41002B12DB0C4803F0CAFC00280CD06E
:103DA00001200021404201F03BFA002001F0D8FC44
:103DB0000028F5D1044803F0EBFC10BD012252426B
:103DC000024BE8E740420F0094690120FFFFFF7FAC
:103DD00010B5024B1878FCF74FFD10BDBB690120F0
:103DE00070B51A4B1B68002B24D0EFF3108272B60B
:103DF000100019680029FCD0BFF35F8F13494A6097
:103E0000134B00221A700B68BFF35F8F1A6080F3A8
:103E100010880022002314001D000E4B1878FCF7B8
:103E200007FD00280CD10022002314001D002000F3
:103E3000290070BDFA229200002314001D00ECE757
:103E4000044B1878FCF718FDF1E7C04668680120BC
:103E5000BC690120BB690120F0B585B007001500E1
:103E60001E000CAB1C78FDF753FC2A00330012181F
:103E70004B41002B09DB02940B9901910A990091A7
:103E80003800FDF75DFA05B0F0BD01225242014B4A
:103E9000F1E7C046FFFFFF7FF0B5C64600B584B02E
:103EA00080460F0016001D000AAB1C78FDF7DEF9F6
:103EB00002940195009642463B00FFF7CDFF04B007
:103EC00080BCB846F0BD000010B582B0214800218A
:103ED00003F04EFC00281DD11F4B1B68002B17D090
:103EE000EFF3108272B6100019680029FCD0BFF3FE
:103EF0005F8F194B5A60194A1178012414701B689E
:103F0000BFF35F8F00221A6080F31088002917D05A
:103F100002B010BD01200021404201F081F90020D3
:103F200001F0F6FB04000B4803F032FC002CEFD04C
:103F30000B4B1B68002BEBD00A4A10689847E7E749
:103F4000094A012300930023FA2080000021FFF793
:103F5000A3FFDDE79469012068680120BC690120A6
:103F6000F0630120F8630120E13D001010B582B03C
:103F7000D0231B061C68FDF779F9FDF759FAA0421A
:103F800030D1274B1B780021002001F0BDFE254BCE
:103F90001B68002B2CD00120FCF706FF224C207060
:103FA0002249FF231840FCF785FC20780121FCF70B
:103FB00059FC0520FCF770FC041E1DD00120FCF705
:103FC00095FB01001A4B1800FCF74CFF1949002221
:103FD0000520FCF79BFC18480121FFF73FFD20005E
:103FE00002B010BD154B164A1648C821FFF726FC33
:103FF0000C48FCF7F5FECEE70D4808220021FEF73D
:104000001DFB114A012300930023FA2080000021A8
:10401000FFF742FFC443E40F0028E0DBDBE7C046C4
:104020001091001094690120BB690120C93E001065
:1040300068680120D13D0010B80C0020807D001080
:10404000A48A001064820010E13D001010B5002029
:1040500001F044FB10BD000070B504000D00FFF737
:10406000F5FF00282BD0002001F052FB002826D0BD
:10407000FDF74EFB194A002312184B41002B1ADBA7
:10408000174803F055FB002819D0FFF7DFFF002881
:1040900004D0002001F03CFB002814D101200021B5
:1040A000404201F0BDF803235B421C000C4803F0C2
:1040B0006FFB200070BD012252420A4BE0E7032350
:1040C0005B421C00F5E72A002100002001F02CFBD8
:1040D000041EEBD103235B421C00E7E740420F00C4
:1040E00094690120FFFFFF7FF0B583B005000C004D
:1040F000FDF70EFB314A002312184B41002B06DB63
:104100002F4803F015FB002805D103B0F0BD0122B4
:1041100052422C4BF4E7FFF799FF00284BD12A4B72
:104120000020002118605960254803F031FBECE7BE
:1041300001200021404201F073F8002001F010FB43
:10414000FFF784FF0028EFD0002001F07FFB00285C
:104150001FD0A642E8DAA71B002001F077FB02007F
:10416000874200DC3A00002AE2D0A919002001F0C1
:1041700049FB070001200021404201F051F80020D6
:1041800001F0EEFAF619FDF7C3FA0F4B186059600B
:10419000DFE7FDF7BDFA01900F000B4B1868596877
:1041A0000A4A002312184B419F42BDD8D1D1019930
:1041B0009142CED9B8E70026CBE7C04640420F0077
:1041C00094690120FFFFFF7F800E002020A10700DF
:1041D00000487047208B001000487047CC8A0010C0
:1041E00010B50400154B1B78002B0ED0002C11D1FC
:1041F000134B144A5A80012301335B009BB21048D1
:10420000C02292001343038010BD0C48112100F01E
:1042100025F8EBE7052C0ED80B4BA400E45800233F
:10422000122BE9D8E15C0029E6D00133044A58009A
:104230008152DBB2F4E70020E6E7C046A469012022
:104240002C64012009040000B48A001010B5024853
:1042500000F030F810BDC0468068012010B50C1E7B
:1042600001D0002308E00F4B0F4A10483B21FFF715
:10427000E5FA3732C2540133621E9A420ED90F2B2F
:104280000CD85A080A49895C01229A4392001141CC
:104290000F220A40092AECDC3032EBE7C018002379
:1042A000037010BDFC820010348B001004830010DA
:1042B0008068012070B588B0040004AD0D22002193
:1042C0002800FEF7BBF90D2200216846FEF7B6F97B
:1042D0004B232B7000230D226946280003F008FAB7
:1042E000002304E05A1D69468A5CE2540133072B1F
:1042F000F8DD08B070BD7047014B00221A7070479E
:10430000BA6901204B79FF2B0CD18B79002B09D195
:10431000CB79012B06D1082A04D98A78024B1A706E
:10432000092000E000207047BA6901200120704791
:1043300010B5012901D0012010BD117953791B025C
:104340000B43114909788B4201D00020F4E75378E0
:10435000012B07D0022BF8D1642200210020FDF7A9
:104360000FFCE8E79178D3781B021943DB0506D5EB
:104370000A06D20F480A03231940FDF759FC002210
:1043800001204042F7E7C046BA6901200048704763
:104390000C8C001010B504001000012911D15378C5
:1043A000012B05D1127943791B021343072B01D04E
:1043B000002007E0044AA6230100200001F066F86F
:1043C00000E0012010BDC046648B00100123037083
:1043D00000487047308C001010B50A784B781B02EB
:1043E00013438A7812041A43CB781B061343962290
:1043F000D200934200D010BD0120002211004042A3
:10440000FDF716FC70B50E0015007F230340C109AF
:104410002B4A5C00A4468C4464466401A446624472
:104420009070C043C0B2C00950700020D070168395
:10443000D57601291ED0DA00224884469444204AC9
:104440005800401840011218604690601C4A5800FD
:10445000401840011218926800201060002B15D1FE
:10446000174A5B005B185B01D31800225A60164A9A
:10447000DA6070BDDA00154884469444104A58004A
:1044800040184001121860469060DFE701290BD008
:10449000581EC0000E4A94466044094A5B005B18EF
:1044A0005B01D2185060E4E7581EC000094A9446E8
:1044B0006044034A5B005B185B01D2185060D8E788
:1044C00060640120840010500001105080001050E2
:1044D0000C0010500800105010B5038B3F339B099F
:1044E0009901C27E022A08D0084A1368C3605B188B
:1044F0001360074A934202D810BDD901F4E7054B77
:10450000054A06485221FFF799F9C0466468012020
:10451000FF0F10506C850010808C0010B0850010CB
:10452000F8B57F240440C50963005B195B010F4E99
:10453000B44663441E00FFF765FF002C00D1F8BDB0
:104540000A4B6400641964011C19218B3000FFF7C9
:10455000C3FFE37E9B06E168054A4A40134380227D
:104560001206134362681360E9E7C04660640120E5
:104570000000105010B503007F201840DB099C4656
:10458000400060444001024BC01800F02FF910BDFC
:104590006064012010B5002804D101210520FCF73A
:1045A00061F910BD034B044A98210448FF31FFF71D
:1045B00045F9C0462C860010708C0010B0850010A4
:1045C00010B5002805D1002200218020FFF7D2FF7E
:1045D00010BD034B034AA2210348FF31FFF72EF918
:1045E0002C860010608C0010B0850010024B8022D9
:1045F0005202DA647047C0460020115070B5041EA4
:1046000027D100F0D1F8164D0C23AB671549FF22D6
:104610000520FCF77BF9144840220021FEF70EF834
:10462000002240210020FFF77BFF00224021802054
:10463000FFF776FF03F074F801232B6480239B05BA
:10464000EB649023094AEA502000FFF7CFFF0120D6
:1046500070BD074B074A64210748FF31FFF7EEF8AA
:1046600000001150A10400206064012010D001005E
:104670002C860010948C0010B0850010044B19702B
:10468000002904D0034A902380218902D150704729
:10469000B6690120002011500B78DA0605D160229E
:1046A0001A4202D14B78052B00D070478A78CB781C
:1046B0001B021343FF221340014A1360F5E7C04673
:1046C0000000115010B5CA789207920F012A0AD043
:1046D00088780B794979090219434905490DFFF793
:1046E0001FFF012010BD0020FCE710B503F018F8F3
:1046F00010BD000010B58446080011001A00634682
:10470000002B03D1FFF736FF012010BD034B044AF5
:10471000812104488900FFF791F8C0462C860010DB
:10472000508C0010B085001010B57F231800084091
:104730000B4205D1CB09012B0ED00222074B9A6602
:10474000C909400040184001054BC01880221201E1
:10475000002103F025F810BD0122EFE700201150E1
:104760006064012010B57F22100008400A4200D189
:1047700010BDC909400040184001044BC018002377
:10478000C3700022024903F00BF8F1E760640120D6
:10479000FFF7FFFF04E00A780270013101301A00D0
:1047A000531E002AF7D1704710B580235B040A4AD4
:1047B00013600A4A13600A4B1A6880235B04934310
:1047C000F9D18022520100210648FDF737FF064B40
:1047D00009225A6710BDC04600E0004000F00040CA
:1047E00008C00040000010500000115070B50400D7
:1047F0000D001600837E002B17D1A6820023E382D2
:104800000133A3762561200002F0DAFF002804D0EE
:104810000C4A902380218902D150200002F0B0FF81
:1048200000280AD00123237770BD81780648FFF75E
:1048300073F9200002F064FFDFE7200002F0B8FF08
:10484000F2E7C046002011502887001070B505001F
:10485000002408E0E31A5B01144A9B18DB68280077
:1048600098470134E4B2124B1B78A3420CD3F1D920
:10487000104B1B6862019B18002BEFD10E490F48AB
:104880000F4AFFF749F910E00E4C54220021200096
:10489000FDF7D4FE201D1022FF21FDF7CFFE2000E2
:1048A00014302022FF21FDF7C9FE70BD108E0010CC
:1048B000B569012020600120DC8D001060870010A8
:1048C00025020000D061012010B5FFF7BFFF00F006
:1048D00029FE10BD70B506000C001500486900F0F7
:1048E0002BFE63692A0001213000984770BD00004B
:1048F000F0B5DE4657464E464546E0B583B08146A4
:104900000139C8B2FFF768FC002803D043789B4602
:10491000022B0CD04C494D484D4AFFF7FDF80020C2
:1049200003B0F0BCBB46B246A946A046F0BDC5796F
:104930006C110122474B1440240119781026B14311
:1049400021431970AD112A405201C9B22024A1435C
:104950000A431A70060009368278C3781B02134393
:10496000C3189A4658E0F37898463378F6185AE018
:1049700035493648384AFFF7CFF8D0E72C1B640199
:10498000364BE41823693A003100484698470190B5
:10499000082801D9874212D20135EDB2304B1C787C
:1049A000AC4235D3EAD92F4B1C686B01E418002CBC
:1049B000E8D1254925482C4AFFF7AEF8AFE7434632
:1049C000012B10D00022904519D9B3789B18DBB287
:1049D0002049C9180979FF290BD11E49CB181D712F
:1049E0000132D2B2EFE72269204B9A42EAD1D8468F
:1049F000E8E7154915481E4AFFF78EF88FE71D486E
:104A00002B00019C2200310001F052FAA4466644BA
:104A1000134B1B78AB420ED3564513D273780B2B36
:104A2000A1D0012398467378042BA1D153469F1B34
:104A3000BFB20025B2E7852203490448D200FFF740
:104A40006BF86CE701206BE7B08D001060870010F9
:104A5000D6030000D0610120F1030000108E001089
:104A6000B569012020600120FA030000C55900103B
:104A700019040000E461012070477047002070476E
:104A80000020704770B505000C008878CB781B02B9
:104A90001A0A13000F2A12D8920029498A589746F9
:104AA000FFF796FB021E05D012232100280000F01C
:104AB000EDFC05E023492448244AFFF72DF80020A7
:104AC00070BDFFF763FC021EF9D08178C3781B022A
:104AD0000B432100280000F0D9FCF1E7022B0CD099
:104AE000FFF7CEFF021EEAD09178D3781B020B436A
:104AF0002100280000F0CAFCE2E7FFF76DFB021E70
:104B0000F2D110491048124AFFF706F8D7E7237987
:104B1000617909021943FFF763FB021ECFD00378C6
:104B20002100280000F0B2FCCAE7FFF7A7FF021E31
:104B3000C5D003782100280000F0A8FCC0E7C046DB
:104B4000B08C0010988D0010608700103A040000AF
:104B5000610400007047704770477047024B5878F7
:104B6000431E9841C0B27047D0610120024B1878B3
:104B70004007C00F7047C046D0610120034B187832
:104B8000FF38431E9841C0B27047C046EC0C00206D
:104B9000F8B506000C000F00FFF7F0FF051E45D129
:104BA000002C21D02C4854220021FDF747FD2B4B2F
:104BB00000221A702A4C2000FCF712F9294B1C60C5
:104BC000294C2000FCF758F9143C200001F0DBFBD5
:104BD000264B1C60264B002B04D02648FFF7F6FB23
:104BE000254B1860002410E0E92224492448520093
:104BF000FEF792FF1AE0E31A5B01224A9B185B68FA
:104C0000002B0DD098470134E4B21A4B1B78A34215
:104C10000ED3F0D9184B1B6862019B18002BEED104
:104C2000F822164916485200FEF776FF2800F8BD14
:104C3000154B1E7039003000FFF7E0FC051E03D055
:104C40003000FFF7A7FCF1E7FC220C490C485200AA
:104C5000FEF762FFEAE7C046D0610120B769012094
:104C6000C861012024620120E40C00202862012098
:104C7000CD430010B569012020600120008E001096
:104C800060870010108E0010EC0C002070B50C0036
:104C9000114B1B781E008B7870221A420DD10F4BDE
:104CA0009978200001F0BAF8051E0ED021003000DE
:104CB000FFF708FD0500280070BD094909480A4AA8
:104CC000FEF72AFF00231D00F5E705490548074ABE
:104CD000FEF722FFEFE7C046EC0C0020D061012078
:104CE000688D0010608700100B0500000C050000A7
:104CF000F8B5CE46474680B580460C00160099466A
:104D0000002516E017491848184AFEF705FF002746
:104D10003800C0BCB946B046F8BD9D2211491248C2
:104D2000D200FEF7F9FEF3E7099A13702378E4182E
:104D30000135AE4214DD6378052BE3D1E1788907B4
:104D4000890F4945DED121004046FFF79FFF071E2E
:104D5000E3D0A378DA09012AE6D0089A1370E5E7D0
:104D60000127D5E7788D001060870010E704000068
:104D700010B57F200840C909400040183030044B6E
:104D8000C0180430034B196800F0FCFF10BDC0468A
:104D9000D06101202462012010B57F200840C9099C
:104DA000400040183030044BC0180430034B1968E1
:104DB00001F013F810BDC046D0610120246201202B
:104DC000F0B583B00193194B18787F240C40CD09BE
:104DD000174B6600B44663445B1930331B79DB071D
:104DE0001CD4134B6600B44663445B1930331E7900
:104DF00001273E431E71019BFFF77CFC002813D165
:104E00000B4B64001B195B1930331A7901218A435B
:104E10001A711A7903318A431A7105E00549064867
:104E2000064AFEF779FE002003B0F0BDEC0C00202E
:104E3000D0610120588D00106087001039050000F6
:104E400070B50A4B18787F240C40CD09FFF76CFC35
:104E5000074A640013195B1930331A7902210A4397
:104E60001A711A7901210A431A7170BDEC0C0020E5
:104E7000D061012070B50A4B18787F240C40CD0911
:104E8000FFF770FC074A640013195B1930331A7975
:104E900002218A431A711A7901398A431A7170BD45
:104EA000EC0C0020D06101207F220A40C909044B8C
:104EB00052009B185B18303318798007C00F704779
:104EC000D0610120F0B5C64600B584B001900C0059
:104ED000002000F031FB237860221A40602A17D0AE
:104EE000402A22D02378DB06DB0E012B00D1D1E053
:104EF000022B00D113E1002B10D1202A1FD0002A51
:104F00000CD16378092B09D89B00BC4AD3589F4623
:104F10005532BB49BB489200FEF7FEFD00231D0041
:104F2000280004B080BCB846F0BDB74800F004FBD0
:104F3000220001210198FFF72DFA0500F0E7227900
:104F400063791B0213430F2AE8D8B04AFF210B40B4
:104F5000D2181379AE4A1278934206D2AD4A11683C
:104F60005B01C918002906D1D8E79342D6D89B1A0D
:104F70005B01A949591822000198FFF7ABFC050015
:104F8000CEE7200000F0DEFAA1780198FFF718FBC9
:104F90009E4A137802210B43137006E19B4B5B780A
:104FA00002AA0632137001232100019800F06EFA64
:104FB000FBE0A2789046954B5B7893422BD0934BC5
:104FC0005B78002B0CD1914B41465970002920D0C1
:104FD0000198FFF78DFC051E11D0FFF7BBFD1AE00D
:104FE0000021019D2800FFF749FB2800FFF77DFB0A
:104FF000864EB7782800FFF729FCB770E3E7C9228F
:105000007F4980489200FEF787FD804B00225A704E
:1050100086E7FFF7A0FD2100019800F023FAC4E025
:1050200021000198FFF72EFD050079E7A278E378CB
:105030001B021343012B00D070E7744A1378082138
:105040000B4313702100019800F00CFAADE0A27838
:10505000E3781B021343012B00D05FE76B4A137800
:1050600008218B4313702100019800F0FBF99CE0AC
:10507000664B1A78510992080223134001220A4014
:10508000134302AA0632138002232100019800F084
:10509000FDF98AE0227963791B0213430F2A00D9B4
:1050A0003CE75A4AFF210B40D2181379584A12782C
:1050B000934222D2574A11685B01C918002900D1D6
:1050C0002CE722000198FFF705FC051E00D027E71A
:1050D000237860221A4200D022E763780A3B012B32
:1050E00000D91DE7002000F027FA63780A2B0CD0C6
:1050F0002100019800F0B6F957E0934200D90DE77E
:105100009B1A5B0144495918DBE702AB9A1D002347
:10511000137001332100019800F0B8F945E02179BE
:105120007F200840CB099C4670230B4218D1374B97
:1051300040001B1863441B7D35480078834215D21C
:10514000344800685B01C3181D00002A19D0291ECD
:1051500000D1E3E622000198FFF7BCFB0500DFE683
:10516000274928482D4AFEF7D7FCD7E6834205D8C1
:105170001B1A5B0128481B181D00E6E700231D00D1
:10518000E3E76378012B13D0032B11D0002B00D061
:10519000C4E6019D2800FFF787FE02AB9A1D108030
:1051A00002232100280000F071F901231D00B7E659
:1051B000A078E2781202024304D1012B1AD00198A0
:1051C000FFF73EFE002DF0D0220029000198FFF7E6
:1051D00081FB002000F0B0F90C4B35229B5CDB0713
:1051E000DA0F1500002B00D09AE62100019800F09C
:1051F00039F9DAE70198FFF73DFEE3E70C8D00107F
:10520000C48D00106087001095430010D06101200C
:10521000B569012020600120108E00109503000068
:1052200030B585B0FFF7AAFC002808D105B030BD25
:1052300001AC2078FFF748FB2279624B9A70624BF1
:105240001C686269EFF3108172B61368002BFCD002
:10525000BFF35F8FA16101A9200001F03AF86269F4
:10526000A369BFF35F8F0021116083F310880028CA
:10527000DCD001AB5B78082BE1D89B00534AD358B4
:105280009F4601AB1878FFF71FFBFFF764FCD6E7DA
:105290004F4B1B78002B2CD04D4B1A78013A1A70CB
:1052A0001B78002BCBD1474B1A78012401210A43EC
:1052B0001A703422995CA1439954995C042081436B
:1052C00099540132995CA1439954995C8143995452
:1052D00001AB187802A9FFF7F5FD0028AFD101ACAA
:1052E00020780021FFF720FA20788021FFF71CFAB0
:1052F000A5E738493848394AFEF70EFC96E701AB76
:1053000019797F220A40CC092E4B50001B181B191B
:10531000303318790125A843187118790335A8434B
:105320001871002A15D0274B52009B181B191B7DA2
:105330002B4A1278934213D22A4A12685B01D3187F
:10534000002B14D09C6901A84279039B0078A047E8
:1053500075E701A84279039B007800F001F96EE738
:10536000934204D89B1A5B011F4A9B18EAE7A422C8
:10537000184919489200FEF7CFFB57E7114B1B78ED
:10538000DB0700D45BE70F4B18780007C00FFFF76F
:10539000E3FB54E70B4B1B78DB0700D44FE7FFF729
:1053A000DCFB4CE7029B002B00D148E703989847B1
:1053B00045E7044BDB78DB0700D440E70298FFF7B2
:1053C0005CFB3CE7D061012028620120348D001095
:1053D000B7690120F08D00106087001065020000A1
:1053E000B569012020600120108E001010B5002347
:1053F000CB56002B05DB802100230022FFF7E0FCC9
:1054000010BD0021F8E70000F8B50700134B9E8996
:10541000DD89731B9BB21C1C402B00D94024A4B215
:105420000E4B1B785BB2002B08DB0021AE4211D083
:105430000B4A23003800FFF7C3FCF8BDAE4207D08B
:10544000064B9968402C07D805482200FDF7FCF868
:105450008021EBE70022ECE70020EEE7B0610120BD
:105460007061012070B506000D00074C0822200075
:10547000FDF7EAF80023A360E381A381290030004F
:10548000FFF7B4FF70BDC046B0610120F0B5C6465D
:1054900000B580460C0017001E001F4D0822280092
:1054A000FDF7D2F8AF600023EB81A379E17909021F
:1054B00019430B1CB14200D9331C99B2164A93818F
:1054C000A279E3791B02134319D0002901D0002FE0
:1054D00008D04046FFF798FF041E0AD0200080BC89
:1054E000B846F0BD0D490E487222FEF715FB0024A8
:1054F000F4E70A490A487422FEF70EFBEEE72100A2
:105500004046FFF773FF041EE8D1044904487622A1
:10551000FEF702FBE2E7C046B0610120488E0010B2
:105520006087001010B5034814220021FDF786F8AB
:1055300010BDC046B0610120014B18617047C046E4
:10554000B061012010B50100044C08222000FDF7D5
:105550007BF80023A360E381A38110BDB06101202B
:1055600070B505001A001C00C909324B1B78DB0915
:105570008B4219D0002A08D02F4930489D22FEF7CF
:10558000CBFA00231C00200070BD2A4B1C00190020
:10559000FFF782F82369002B03D0264A0321280055
:1055A000984701231C00EEE7224B1B785BB2002BCF
:1055B00006DB204B98680028E3D02149FDF744F82A
:1055C0001C4AD389A1B25B189BB2D3819168A446CF
:1055D00061449160D288934201D03F2C1ED8154B74
:1055E0001B69002B05D0134A022128009847002888
:1055F0000BD010492800FFF7F9FE041EC3D10E4955
:105600000E48C522FEF788FABDE700212800FFF703
:105610008BF880212800FFF787F8C2E72800FFF702
:10562000F3FE041EAFD104490448CD22FEF774FAFC
:10563000A9E7C046B0610120308E001060870010DD
:105640007061012070B50500FFF788FA041E01D1D2
:10565000200070BDFFF78AFA041E38D11D4BC82206
:105660006A439B18DB78002BF2D013001033194AE1
:105670009B181E00180000F018FE3F28E8D9154BB3
:10568000C8226A439B18D9780020FFF771FB0028D5
:1056900001D10400DCE7300000F007FE3F280DD9FF
:1056A000EA010D4BD2180B4BC82169435B18D9781E
:1056B00040230020FFF784FB0400C9E7054BC82204
:1056C0006A439B18D9780020FFF766FBC0E70024E7
:1056D000BEE7C046A86001202460012010B5040088
:1056E000FFF73CFA002801D1002010BDFFF73EFA79
:1056F0000028F9D1054BC82262439B181B79DB07B0
:1057000001D50120F1E70020EFE7C046A8600120A5
:1057100010B5C823434310330248181800F099FD10
:1057200010BDC046A860012070B50400C8206043C9
:105730000300103307481818074B9A4208D892B252
:1057400000F0E5FD05002000FFF77CFF280070BD9C
:10575000024AF5E7A8600120FEFF0000FFFF0000FD
:1057600070B50400FFF7FAF9002801D1002070BDE0
:10577000FFF7FCF90028F9D1C823634320331D4A01
:105780009B1804331D00180000F063FD0028EDD0C5
:10579000184BC82262439B1899780020FFF7E8FA5B
:1057A0000028E3D0E3014033134A9A181600402240
:1057B0003100280000F0ABFD051E13D00D4BC822B0
:1057C00062439B189978030032000020FFF7F8FA33
:1057D000002801D02800CAE708490948D522FEF769
:1057E0009BF9C3E7034BC82262439B189978FFF7E4
:1057F000D3FABBE7A860012024600120788E001056
:105800006087001070B50600C824444320340C4B58
:10581000E41804340B4B9A420BD892B2200000F0EB
:10582000ADFD0500200000F014FD3F2803D828003E
:1058300070BD054AF2E73000FFF792FFF7E7C04678
:10584000A8600120FEFF0000FFFF000010B5C82384
:1058500058432030024BC018043000F026FD10BD24
:10586000A8600120F0B5C64600B582B02448C82221
:105870000021FCF7E3FE234B00221A700027002FC3
:1058800003D002B080BCB846F0BD1D4EC8247C4396
:105890003519FF236B71E1235B02AB6000222A7391
:1058A0006A730823AB732100383189192000103046
:1058B00080190092073B403200F08CFC21007831C7
:1058C00089192000203080190430012300934022E0
:1058D00000F080FC2300B8339B1998461800FBF7B2
:1058E0007FFAC034A4192000FBF77AFA0022EA619B
:1058F00043462B622C636A630137FFB2BFE7C046A1
:10590000A8600120A46001200023002B01D0012009
:10591000704719000E4AC82058431218106A126BBB
:105920009446002806D00A4AC8205843121800207E
:10593000D06110626246002A06D0054AC820414361
:1059400052180021116351630133DBB2DDE7C04619
:10595000A860012070B50024002C00D070BD250087
:10596000C8206043154BC01805220021FCF766FED5
:10597000134B1B78DB070FD5114B1B789B0713D5F7
:10598000C820684320300D4BC0180430012100F0BE
:1059900019FD0134E4B2DFE7C82060431030074B43
:1059A000C01800F0F0FCE7E7C82068432030034B44
:1059B000C018043000F0E7FCE2E7C046A860012010
:1059C000A4600120F0B5C64600B582B007004B794F
:1059D000022B02D18B79022B12D00025280002B0B5
:1059E00080BCB846F0BDC823734331481B189846A5
:1059F0009B78002B08D033000133DBB21E0001E09E
:105A000000231E00002EEED0002E06D18B784046DB
:105A100003700C780C1909250AE042222549264812
:105A2000FF32FEF779F8D8E723785D19ADB2E418B4
:105A30006378242B01D19542F6D9052B09D06378E0
:105A4000042B02D163790A2B18D03000FFF7FAFD3E
:105A5000C4E721003800FFF719F9002807D0A37820
:105A60004246537023785D19ADB2E418E7E754223B
:105A700010491148FF32FEF74FF8AEE721784D1973
:105A8000ADB261184246931C0193D31C00930223CC
:105A900002223800FFF72CF9002802D00E35ADB2F3
:105AA000D3E7B122034904485200FEF735F894E7E2
:105AB000A86001206C8E00106087001070B5060091
:105AC0000D001100127860231340202B10D000200D
:105AD00070BDC82363433A4A98188446D25C08795B
