:020000041000EA
:1000000000B5324B212058609868022188439860DF
:10001000D860186158612E4B002199600221596106
:100020000121F02299502B49196001219960352056
:1000300000F044F80222904214D00621196600F024
:1000400034F8196E01211966002018661A6600F04E
:100050002CF8196E196E196E052000F02FF8012189
:100060000842F9D1002199601B49196000215960AB
:100070001A491B48016001219960EB211966A021F2
:10008000196600F012F800219960164914480160C1
:100090000121996001BC002800D000471248134993
:1000A000086003C880F30888084703B5996A0420EC
:1000B0000142FBD001200142F8D103BD02B5186610
:1000C0001866FFF7F2FF186E186E02BD00000240BE
:1000D000000000180000070000035F00212200005C
:1000E000F4000018222000A00001001008ED00E03C
:1000F00000000000000000000000000074B24E7A12
:1001000000200420F7010010CB010010CD010010E9
:10011000C9010010C9010010C9010010C901001077
:10012000C9010010C9010010C9010010CF01001061
:10013000C9010010C9010010D1010010D301001045
:10014000C1010010C1010010C1010010C101001067
:10015000C1010010C1010010C1010010C101001057
:10016000C1010010C1010010C1010010C101001047
:10017000C1010010C1010010C1010010C101001037
:10018000C1010010C1010010C1010010C101001027
:10019000C1010010C1010010C1010010C101001017
:1001A000C1010010C1010010C1010010C101001007
:1001B000C1010010C1010010C1010010C1010010F7
:1001C000EFF30580103800BE00BE00BE00BE00BECA
:1001D00000BE00BEF2EB8871B08E0010DC8E001005
:1001E0003802001090A31AE700201E49086006C8D4
:1001F00081F3088810471C480068002801D00020BF
:10020000F3E70DA40ECC002902D000F012F8F9E7B4
:100210001649174A002000E001C19142FCD115495E
:100220008847154988471549884700BEFDE701C939
:1002300001C29A42FBD37047DC8E0010C000002040
:100240001817002034A5001000000420000004202E
:1002500034A500100010042000100420000000004D
:100260007047000008ED00E0000000D018170020E3
:10027000DC240020413D001039030010393D0010FE
:10028000F0B54746CE4680B5A1B001AB9846424690
:10029000224B80265360002200250327002420499A
:1002A000814601931F48049105931F490A931F4BF0
:1002B000039206910792089009910B920C93760293
:1002C00043460D936B463A001F873C331C70184B16
:1002D0002A405A431392AA08534301350DA8EDB2A0
:1002E00010961194129414941596169417931894CA
:1002F00019941A961B941C941D941E941F9607F033
:10030000A7FA102DDCD1484607F01EF9094807F07E
:100310002BFD21B0C0BCB946B046F0BDCD4CFFFFAF
:10032000D93F2400692F230066A6FFFF3423310044
:100330009A59000040420F0030B583B007F04EFDDF
:1003400000282DD11B4D06F065FA280007F0CEF8E5
:10035000642007F025FDE120400202F03DF8041E74
:1003600021D0154B5A8819880023009507F008F909
:10037000412007F02FF9280007F000FA200007F0CD
:10038000E3F8FA20800007F0EFFC2000FFF778FF89
:10039000200002F033F807F0B5FD002003B030BDB7
:1003A00001204042FAE7054803F0C2FE200003F0B6
:1003B000C3FCC046FFFF0000681A0020E888001058
:1003C00043468C464021084A08B483009A58C0002E
:1003D0005140C0220A4005495A50054BC018634697
:1003E000436008BC9846704704C0014004D00140F7
:1003F00000400140054B8000C358C90092000A43E9
:100400005A400C231340024A8350704704C00140F5
:1004100004D001408000002904D0054BC0184023BF
:1004200003607047034BC01840230360F9E7C046E0
:1004300004E0014004F001400123D0228340120671
:1004400093629361074A8300995840225140803259
:100450000A400549C0005A50044BC01805234360A8
:100460007047C04604C0014004D001400040014034
:100470008023DB051868000F7047C0460FB400B535
:10048000084883B003F0D2FD049B002B07D005A9D8
:100490001800019103F01AFC034803F0C7FD012086
:1004A00003F02CFC18890010148B001070B58C46DA
:1004B0001600EFF3108472B60F490B68002BFCD0C6
:1004C000BFF35F8F6346DB08C5180722C05C634635
:1004D0001A40012393401A000240034207D11843F7
:1004E0002870BFF35F8F0A6084F3108870BD614687
:1004F0003000FFF7C3FFC0462C0100D0F8B5CE4650
:1005000047468C4680B51C00EFF3108872B61C4934
:100510000B68002BFCD0BFF35F8FA24221D80723CA
:10052000994602E00132944218D34946012611400F
:100530008E40D308C718C35C1E42F3D1100033436A
:100540003B70BFF35F8F00220D4B1A6088F3108859
:1005500000280EDBC0BCB946B046F8BD01204042C1
:10056000EFE7BFF35F8F00230B6088F31088012053
:1005700040426346002BEDD00898FFF77FFFC0464E
:100580002C0100D0044A1078431CDBB2172B00D991
:10059000102313707047C046D010002000B5054BE3
:1005A00083B00100009318221F230348FFF7A6FF22
:1005B00003B000BD288900100C1F00200021044B4F
:1005C000044ABFF35F8F02C39342FAD17047C0461B
:1005D000000100D0800100D0084B094A1360094A8D
:1005E0001360094A1360094A1360094A1360094AF3
:1005F0001360094A1360094A136070478080808045
:1006000000E400E004E400E008E400E00CE400E0C2
:1006100010E400E014E400E018E400E01CE400E072
:100620001F2318401E3B8340002905D0C021044AE7
:100630004900535013607047802201498B50FAE7FC
:1006400000E100E001228240034B1B6813405A1E68
:100650009341D8B27047C04600E100E001238340D7
:10066000014A13607047C04600E200E0054B1030BD
:100670009B688000C358044A00209B1A47229A4274
:100680004041704700ED00E0D410002010B5EFF3BA
:10069000108C72B60F4A1368002BFCD0BFF35F8F2B
:1006A0000D4B10309B6880001B580C4A934201D0C0
:1006B00099420CD1084B9B681950BFF35F8FBFF371
:1006C0005F8F0022034B1A608CF3108810BD01F07D
:1006D00067F9C046240100D000ED00E0C101001020
:1006E000F0B5DE4657464E464546E0B58B4685B0EA
:1006F000EFF3108872B616005B4A1368002BFCD02B
:10070000B246BFF35F8F002558494D57002D00DAE0
:10071000A8E06B00564A01935B199B00D418A77997
:1007200010300F7053498000896884460F58B91AF9
:10073000472933D8012039008143CE79564500D866
:100740006AE0A1465646039307E05800C0188000AF
:100750001018C479B4424DD901000623CB56002BA2
:10076000F3DAB24602930B1D4C469946424B4E4675
:10077000043CA41B2405414E640D34438C808D71D0
:1007800001994919890052189380029B3C49937141
:100790005346D3715B461160936017E039498F422D
:1007A00060D139490127D15238490233D31804396D
:1007B000CB1A324A1B055B0D13436380344BE67141
:1007C000A380FF23A3715B462743A3606246294BA6
:1007D0009B689F50BFF35F8FBFF35F8F0022224B58
:1007E0001A6088F3108805B0F0BCBB46B246A94633
:1007F000A046F0BDB2460E1D4C46B1468888029315
:10080000039B4005001504334844D318C31A1B0545
:100810001A485B0D0343AAE79E1CB14691444E461D
:100820000F001C4DBF1A7F417D432D0D164FA57142
:10083000D752164F0433043FD318BF1BCB1A3F05C2
:10084000043B7E0D1B050D4F5B0D3E431F4353467E
:10085000E3715B46A3600A4BA780668004432700D0
:100860000B60B3E701F09CF8240100D0D5240020F0
:10087000D410002000ED00E001BD000000E0FFFF0B
:1008800001488047C101001000A1FFFF1C1100209A
:1008900001BDFFFFAAAA0000F0B5DE4657464E464E
:1008A0004546E0B583B0EFF3108972B65D4A136830
:1008B000002BFCD0BFF35F8F5B4B5C4E9A6803004C
:1008C00010339C0012599846B2423BD08A424CD019
:1008D000574FBC46D71B472F34D8564B1F271D6890
:1008E0000740AA460125BD4080270195DD51BFF391
:1008F0005F8FEFF30585AB46002D38D101231D0036
:100900008540280055460540100098438768AA4650
:10091000B94208D17CE073009B199B0063449F6837
:10092000B9422DD0180006268657002EF3DAB942B8
:100930004CD05346002B1ED0C0213E4B019849009D
:1009400058501860384B9B681A51BFF35F8FBFF344
:100950005F8F0022334B1A6089F3108803B0F0BC1C
:10096000BB46B246A946A046F0BD3200EAE7A8451C
:10097000C4D001F015F880232E490198C850E1E752
:100980000627DF57002F22DB7900C81985002E00CB
:100990006644B0689860F079D87106203056987136
:1009A000002826DB6046B688C01A7605361576190B
:1009B00080190005204E400D30439880CB191F4907
:1009C0009B000878634498710F70B2E703005946A2
:1009D000002910D1FF31817119498180174865467E
:1009E0000178997117495B1B5B415943090D0170EF
:1009F0009FE71348E1E714491448C91A08394E0221
:100A0000760D30439880124849080143D98090E719
:100A10000627C7570300002FB6DA59460029EAD146
:100A20003200DBE7240100D000ED00E0C10100103E
:100A3000D410002000E100E000E0FFFFD5240020FA
:100A400001BDFFFFAAAA00002611002000F0FFFF51
:100A500000F8FFFF0123034370B59C46EFF30581C7
:100A6000EFF3108572B6274A1368002BFCD0BFF352
:100A70005F8F254A0400254BA41A644163431B0D74
:100A8000234C8900A6685BB27658664524D00621BF
:100A90005156994224D01221515699422AD01E21F2
:100AA0005156994228D02A215156994226D03621B2
:100AB0005156994224D0422151560524994210D0D2
:100AC000144A117813708171BFF35F8F00220D4BB0
:100AD0001A6085F3108870BDA2680F4C5450EFE780
:100AE00000246100091989005218FF2191710B49F6
:100AF0009180E5E70124F4E70224F2E70324F0E71C
:100B00000424EEE7240100D0D4100020AAAA00009B
:100B100000ED00E0D5240020C101001001BDFFFF61
:100B200000B5074B83B00100009300220523054860
:100B3000FFF7E4FC002801DB1F23181A03B000BDF7
:100B400044890010D9240020024BC9188900016093
:100B50007047C04640000034F8B5144C144EB442FF
:100B600023D2013E361B0025FF27F6080EE0FFF7D3
:100B700009FD01002000FFF7E7FF002327716371E3
:100B8000BFF35F8F0834B5420FD001352368002BC7
:100B9000EDD1FFF7F7FC01002000FFF7D5FF27712B
:100BA000BFF35F8F0834B542EFD1F8BD10170020B6
:100BB0001817002010B50400FFF7E4FC0100200026
:100BC000FFF7C2FFFF232371BFF35F8F10BDC04645
:100BD00010B504000120FFF7E1FC034BC0188000B2
:100BE0002060BFF35F8F10BD40000034034BC91875
:100BF00089000160BFF35F8F7047C046400000343A
:100C00000A4B1968EFF3108072B60A68002AFCD00C
:100C1000BFF35F8F1B68BFF35F8F00221A6080F302
:100C2000108840BF002000217047C046A824002043
:100C3000F0B5DE4657464E464546E0B585B0EFF383
:100C4000058303221A40B84B91005F58012393405B
:100C50009B4602925A468846B44B1A60B44B0393A3
:100C60005B46B44843630823FE5E002E37DA042255
:100C7000BB5E002B00DBA4E0BB79002B00D0E4E0DE
:100C80000823F95E002920DB4B007A695B18DB0042
:100C9000D3189D68DC686B1C00D10AE1A5480100EF
:100CA0004144826A0B69AE1A9B1A9E4215D30123F6
:100CB000026A029883401A420FD09E4800F0A4FBBB
:100CC0008C4202DCCCD18542CAD940BF05B0F0BC11
:100CD000BB46B246A946A046F0BD0D61EDE77A6974
:100CE000730091469B19DB0099444B469C68DD6874
:100CF00000F08AFB8D42BADC00D104E1002D00DA5D
:100D0000E9E04A464B4652691B699246039A934270
:100D100000D1DAE04A460821785E52880004514644
:100D200010439847009001910099019A0B001343DA
:100D300000D1D0E013000A00002B00DBE7E0200028
:100D40002900801A99414B469860D96000229B5E29
:100D5000002B00DA8BE75D007C69EA18D200A2184C
:100D600000949468D268A2468A4200DD7FE702D1EF
:100D7000844200D97BE70824A4463B81BC44009C04
:100D800000972F006546B4463E0006E05E00F2186C
:100D9000D200A2189768D268BA468A4207DC00D10E
:100DA000CAE0F318DB00E518E35E002BEEDA4A46F2
:100DB0006646009F13802E800422BB5E002B00DA63
:100DC0005AE73A69EFF3108172B61368002BFCD032
:100DD000BFF35F8F0423FE5E01235B42BB803B6950
:100DE000BFF35F8F00221A6081F31088002E00DAB3
:100DF00042E708239946BC467D69B94463467400BE
:100E0000A41908229A5EE4002C19002A55DBA76871
:100E10004946E068009706E087423ED0190000236B
:100E2000CA5E002A06DB53009B18DB00EB18DF6864
:100E30008742F1DD0E800023E65E2280002EDDDA9F
:100E40006746BB79002B00D11AE70023BB7108224B
:100E5000BB5E5A1C00D138E73D0008352E0078698A
:100E600003E00E005A1C00D10AE71A005B009B1831
:100E7000DB00C118C35E02254C5F002CF1DA0124AF
:100E80006442E5178C60CD6008257C5F9442E9D010
:100E900033803C890C803A81E4E79F68BA46009F22
:100EA000BA45BBD90E800023E65E2280002EA5DA6B
:100EB000C6E7631C00D0F1E6FFE649460E8000233A
:100EC000E65E2280002E99DABAE7534650461B6947
:100ED0009847002823D14B461B883A693B81EFF3A2
:100EE000108372B611680029FCD0BFF35F8F4946AA
:100EF0007A880A803A697E80BFF35F8F0021116093
:100F000083F31088B3E6844200D8F7E6AFE60948D9
:100F100000F07AFA009B019CC018614113E7534628
:100F20000CCB00920193FFE68C2300203C7005401F
:100F3000310C001000400540824500D831E736E70B
:100F400070B52D4C2569002D04D00A212B48FFF7E0
:100F5000FBFD70BD2A4E0321294800F04BFAE660E4
:100F6000FFF710FB274B0322C018D02322701B066B
:100F70001B6801216370244B8000A3600F23206154
:100F80000220638063694942A18019800231198679
:100F900047311D83585218315A5275325C39995273
:100FA00018320131995218320131995218320131F7
:100FB0009952083518329D5202311832995218321E
:100FC0000131995218320131995218320131995236
:100FD0001832013199521832013199520B4B0C4998
:100FE000DC6001303562FFF751FB01210320FFF780
:100FF00017FB084B1D60A8E740110020A824002023
:101000000040054040000034FFFF10008C2300200A
:10101000310C001038600540004870474011002036
:10102000F8B51F0008AB1B7804001600002B07D191
:1010300000F0F2F932003B00121A8B41002B51DB19
:101040002269EFF3108C72B61368002BFCD0BFF34B
:101050005F8F0223E15E256900293ADB4B0060695E
:101060005B18DB00C218C35A6380BFF35F8F002395
:101070002B608CF31088069B9660D7601361079BEA
:101080005361538801335B045B0C181C002B1ED08A
:1010900083B25080080418432569EFF3108672B6B6
:1010A0002B68002BFCD0BFF35F8F0425635F138098
:1010B000A1802369BFF35F8F00221A6086F3108836
:1010C000237801329A400849E3685A50F8BD01205C
:1010D000DEE7BFF35F8F00232B608CF310880120C5
:1010E0004042F3E70020F1E73C20000070B582B0F9
:1010F0000092019301000269EFF3108472B6136845
:10110000002BFCD0BFF35F8F0223C85E0D6900285F
:101110003FDB4A69430016001B18DB00D218F35A64
:101120004B80BFF35F8F00232B6084F31088069BF6
:101130001361079B5361009B019C9360D4605388AB
:1011400001335B045B0C1D1C002B20D0ACB20304EC
:10115000558023430D69EFF3108C72B62C68002C78
:10116000FCD0BFF35F8F04254C5F148088800A6930
:10117000BFF35F8F002010608CF310880A78013075
:101180009040CA6807495050180002B070BD012550
:10119000DCE7BFF35F8F00232B6084F31088013BF3
:1011A000F2E7C0463C20000010B543890A14934280
:1011B00019DD53009B184269DB00D3180469EFF373
:1011C000108C72B62268002AFCD0BFF35F8F5A8859
:1011D0000904090C914208D00369BFF35F8F002214
:1011E0001A608CF31088002010BD094A0A435A8007
:1011F000012302698371BFF35F8F002111608CF3BB
:101200001088027803499340C26801205350EBE7ED
:101210000080FFFF3C20000040787047F0B583B0AD
:10122000040000F0F9F8FA2206000F002000002365
:101230000021920001F080F88019794104000D1E10
:1012400002DA01242C4D644206267642F71736193D
:101250006F41AF4212D80FD000F0DEF832003B00F1
:10126000121A8B41002B13DC002B41D020002900E7
:1012700000F012F903B0F0BDA642EDD90026002718
:1012800000F0CAF832003B00121A8B41002BEBDD54
:1012900000F0C2F832003B00121A8B41002B0ADB2F
:1012A00000230193154B3200009315483B00FFF7D4
:1012B0001DFF0130DAD03900124A1348536A9942AF
:1012C00004D8976AB742D1D29942CFD10768EFF3D9
:1012D000108C72B63B68002BFCD0BFF35F8F0368A5
:1012E000BFF35F8F00271F608CF3108820BFE5E7F6
:1012F000002ABBD0CCE7C046FFFFFF7F010C0010E7
:101300004011002000400540A8240020F0B5CE4642
:10131000474680B504000D0085B0EFF3058389468C
:10132000002B32D12F4E336883422AD02E4FFB68D8
:101330003A7898461800039200F066F8039A131D55
:1013400042469B009B5822001B1A9C462B00121AF7
:101350008B411900002310008B421EDC1BD020BFE4
:10136000224B586A484514D3401B9A6A431E984141
:101370000023A2425B41184305B0C0BCB946B04649
:10138000F0BD73688B42D1D1E9E7184B586A8842A7
:10139000EAD20020F0E78445E1D900F03DF82200D0
:1013A0002B00121A8B41002BDADB00230193104B28
:1013B0002200009338002B00FFF798FE0028CFDDB5
:1013C0000A4B30C65A6A4A4509D39B6AA34204D3E2
:1013D00001003800FFF7E8FEC2E74A45F8D120BF18
:1013E000F6E7C046381100204011002000400540BB
:1013F000010C001010B5024A0248FFF757F810BD63
:1014000060890010101F00200300416A0A00986ADA
:10141000596A8A42FAD17047034B596A0A00986A9E
:10142000596A9142FAD170470040054070B50500F5
:101430000E00184A536A1900946A536A8B42FAD113
:10144000200019002C00350024184D41AB4216D85D
:1014500013D0104B2A005B6A9D4203D90D494B6A99
:101460009342FCD3934207D10A4A02E0516A99425F
:1014700002D1916AA142F9D370BDA042E9D9054BCE
:101480005B6A1C005A1CEFD0012201246442E5175C
:101490005242E3E700400540064A536A9942FCD8AD
:1014A00007D1044B02E05A6A914202D19A6A824201
:1014B000F9D3704700400540F8B5040006200D0040
:1014C00000F064F9002843D0354B3649E3185A1E22
:1014D000934180225B429B0D12049B059B18324A6C
:1014E0001360324A136018000A689043FBD12C4BFA
:1014F0002F4AE31859424B4180215B0049000620E6
:10150000995200F043F92900C00000F09BFB013024
:10151000C3091ED1402701226262A362266BF30732
:1015200022D4E36A234B0620E51800232B602663B0
:1015300000F02CF93900800000F084FB7023E26A8F
:101540005A400E3313402B601B4B23630323A364C9
:10155000F8BD1A4A93421CD90023194A194F6262F6
:10156000A362266BF307DCD5134A174B0620E25023
:10157000656AA36AAD01ED1800F008F9134900F09F
:1015800061FB0100A80200F05DFB0021FFF74EFFA8
:10159000C7E740069A01800E17181A000300BBE740
:1015A0000080FCBF08C0004000E0004000F00040A8
:1015B000B82400202C10000001030000FEFF0000F2
:1015C000FFFF0000C0FF3F00303000004E0E000063
:1015D000F8B5DE464E4645465746E0B505008B4613
:1015E00018000A99914600F02DFB0A9B6C001E0220
:1015F00064192E4BA400E418636880469E4200D90B
:101600006660C0232F1FFAB29B019246E318012A9D
:101610002BD98022264FAD00795912011A6000297A
:101620001AD14B4622685B015340E02213408022CE
:101630005201A21813605346012B2BD9802380221C
:101640009B011201E250434666607B51F0BCBB46F1
:10165000B246A946A046F8BD786900F0F3FA013019
:1016600043001B18033BFDD2DBE75A46012AD0D1C9
:1016700002321A60023AA3681A42FCD04A46236832
:1016800052015A40E023134080225201A218084F11
:101690001360AD0058460323216841400B4013609E
:1016A00001228240A3681A42FCD0C7E700800040B4
:1016B000141F0020F0B5D6464F46464644009846D3
:1016C0002418304BA400E41863688A469146C0B5DC
:1016D000FF2B02D880235B006360C023061F9B01A1
:1016E000F6B2E318012E2BD98022274F85007959B5
:1016F00012011A6000291AD14B4622685B0153403F
:10170000E022134080225201A2181360012E2CD92E
:10171000802380229B011201E25080235B006360E2
:1017200043467B51E0BCBA46B146A846F0BD786955
:1017300000F088FA013043001B18033BFDD2DBE7C1
:101740005246012AD0D102321A60023AA3681A42E4
:10175000FCD04A46236852015A40E02313408022BD
:101760005201A218084F13608500504603232168D8
:1017700041400B40136001228240A3681A42FCD012
:10178000C6E7C04600800040141F0020014B8000C7
:10179000C0587047141F0020F0B5C646040000B5BD
:1017A000224890461E000D0000F04CFA0100404611
:1017B00000F048FA069B84461A032368300410435D
:1017C000002B22DB1A4BE218531E9A41802352420F
:1017D000120B9B011203D218164B1A60164B1A609B
:1017E000164B160019688E43FBD1634621222560F3
:1017F000A360134BE3181A602268002AFCDA08225F
:10180000E0601A6080BCB846F0BD3F2322681340F8
:10181000AB42D7D1A3681B051B0D6345D2D1EE2285
:10182000E368D20213408342CCD1EBE7001BB70040
:101830000040FDBF00E0004000F0004008C0004054
:10184000043000008C4680211B4BC905196000281C
:101850001BD0012319491843194BD961194941403B
:1018600019626146596298628021134BC90519605B
:10187000154816490860E021C9041960002A07D1FB
:101880008022134B12061A6070470D4BD861EBE7AC
:1018900053019B1A9B009A180E4B12019A4209D8C9
:1018A00013000D490B60064B5A608022084BD2058D
:1018B0001A60E9E71A00F4E700B00540D3C007B0AA
:1018C000008005402D3FF84FFCFF0100082001403B
:1018D00000A00540FFFFFF007C2300208023024A78
:1018E0009B000B43D362704700800540002310B576
:1018F0000100988A1B8B984710BDC046002310B585
:101900000100D88A1B8B984710BDC046F8B54746E2
:10191000CE4680B50F1E18D0142399460433040018
:101920000025012698464B461888434621681B88A7
:10193000984701C4431E984101350640AF42F2D199
:101940003000C0BCB946B046F8BD0126F8E7C04635
:10195000002370B504000D00988A05491B8B984739
:1019600003000020002C01DB0130A0402900984733
:1019700055420000AA23064A1B0113608D235B0019
:10198000D3600449044B19605368002BFCDA70479C
:101990000040024000B0FA00006002407047C046BC
:1019A00010B50148FEF76AFD8489001070B5074D37
:1019B000074EB54209D20024013E761BB608013617
:1019C00008CD01349847B442FAD170BDA888001000
:1019D000E4880010054B064A06491A60064A074B80
:1019E0001A6010000B689843FBD1704700E000407C
:1019F000BFCDFBFE08C00040FE7F3C0000F0004071
:101A0000044BDB6C002B03D18022034BD2021A6003
:101A10007047C046000011504C201150044A054B3D
:101A20001A60054A1368DB018033FBD17047C0465A
:101A3000FFFFFF0100F0004008C000404022034BC0
:101A40009A675A671A67DA667047C04600F0014025
:101A500010B5FEF7B3FD10BD70B52749274D284ED0
:101A60006D1AAC082200302C00D9302230009200D0
:101A700000F0D6FC2F2C3CD823002A3B214A052B12
:101A80001CD9302075196D07A446001BEB0F002DE3
:101A900003DAA1007250611C8C46C01AE318450895
:101AA0009B00F318E900C9181A605A6008338B428A
:101AB000FAD16D00A8421CD02C006444A300F2505F
:101AC000631C2F2C15D09B00F250A31C2E2C10D081
:101AD0009B00F250E31C2D2C0BD09B00F250231DD9
:101AE0002C2C06D09B00F250631D2B2C01D09B00A8
:101AF000F250054B9E6070BD00010010C001001047
:101B000000000020C101001000ED00E0002310B52E
:101B1000294C82B0A367FFF72DFF0122274B1A60E3
:101B2000636C012BFCD10322254B1A60224A936B74
:101B3000012BFCD1013300930121224A22480433B6
:101B4000FFF72AFE052301210093204A2048FFF7D2
:101B500023FE0022022104201E4BFFF7ABFD0022D2
:101B6000012105201C4BFFF7A5FD002200210720C5
:101B70001A4BFFF79FFD002200210820174BFFF7AB
:101B800099FD8023DB000093002200210920134BE4
:101B9000FFF71EFD0022104B00210620FFF78AFDF3
:101BA0000420FFF7F3FD0E4900F04CF8010000207F
:101BB000FFF794FE02B010BD008000403CB0004032
:101BC00030B00040002F685900800240008C8647EA
:101BD00000C00240001BB70040597307006CDC02D4
:101BE00040420F0001480421014B184760110020BA
:101BF0000D190010124A936F9B0815D29066D1669A
:101C0000002905D0FFE7FFE7FFE7516F106F70472E
:101C100004B580210906C2175140002800D0C843EE
:101C200006F0EAFD002104BDF0B5146E556E576F45
:101C3000166FFFF7E3FF1466556657671667F0BD2A
:101C4000000000D0114A936F9B0813D210665166B2
:101C5000002905D0FFE7FFE7FFE7516F106F7047DE
:101C600004B5002801D00020C04306F0C5FD0021C6
:101C700004BDC046F0B5146E556E576F166FFFF772
:101C8000E5FF1466556657671667F0BD000000D083
:101C900094464A4A926F9208624601D228E0C046B2
:101CA000F0B5464E346E756E776F366F00F020F8E3
:101CB0009446424A14665566576716676246F0BDF9
:101CC00094463E4A926F9208624601D254E0C04662
:101CD000F0B53A4E346E756E776F366F00F04CF893
:101CE0009446364A14665566576716676246F0BDD5
:101CF000002B24DB11D000293EDA00B5C943404255
:101D000000D1013100F038F8C943404200D101311F
:101D1000DB43524200D1013300BD002AEBD1002841
:101D200001D1002905D00020C90FC90701D1C04346
:101D3000410800B506F078FD0022002300BD00B583
:101D400000290ADBDB43524200D1013300F014F8D2
:101D5000C943404200D1013100BDC943404200D1D6
:101D60000131DB43524200D1013300F005F8DB437F
:101D7000524200D1013300BD002923D1002B18D1DC
:101D8000002A0CD0BC460D4F38667A66002100232D
:101D9000FFE7FFE7FFE77A6F386F67467047002875
:101DA00001D00748010000B506F03EFD00220023E7
:101DB00000BD02000B00002000217047000000D091
:101DC000FFFFFFFF002B00D0BFE0130C28D1002A3B
:101DD000E7D080B4114F39667A66FFE7FFE730B489
:101DE000040C7B6F396F1B0423433B667A66FFE765
:101DF000FFE7FFE7C04684B27B6F3D6F1B042343C0
:101E00003B667A66FFE7FFE7C04600232C042D0CF3
:101E10007A6F386F00196941B0BC7047000000D07C
:101E2000F0B594460025140E01D112020835140FA6
:101E300001D112010435940F01D192000235D40F63
:101E400001D152000135D40B0134254F7C66254C5D
:101E50003C660E0C93B2FFE7FFE7FFE73C6F66437B
:101E6000360C7703BE467343DF0B5B04C01AB941DF
:101E7000130C7343DB18C91ACE086643360CB644FC
:101E800093B273431F0F1B01C01AB941130C734364
:101E90001F0B1B05C01AB941860D8F023E436643D6
:101EA000360C092D24DB520A7243801A7703460A46
:101EB0006643360C16235B1BDE40DF40BF196446C9
:101EC0006643821B7046043506330100D940A840A2
:101ED000C01900D30131A24206D20023F0BD000098
:101EE000000000D0FFFFFFFF121B0130F3D3F1E72A
:101EF00009277F1BFE406446A2B27243801A00D2BB
:101F00000139220C7243130C1204821A99410B00FE
:101F10007046043513370100F940A840801900D3FA
:101F20000131002B02D1A2420AD2F0BD013000D310
:101F30000131121BFAD2013BF8D1A24200D2F0BD0E
:101F4000013000D30131121BF7E7F0B51C0C00D0B3
:101F500080E00CB400251C0A04D11B02160E33438A
:101F6000120208351C0B04D11B01160F334312015A
:101F700004359C0B04D19B00960F3343920002352D
:101F8000DC0B02D192185B4101351C0097186441AB
:101F90000134464F7C66464C3C660E0CFFE7FFE77B
:101FA000FFE7C0463C6F6643360C7703BE4697B2E8
:101FB0007743C01B00D20139C01B00D201399FB248
:101FC0007743C91BC91B170C77437E04FF0B801B8B
:101FD000B941CE086643360C0C2D33DBB644120BE8
:101FE0001F053A431B0B97B27743C01B00D2013940
:101FF0009FB27743C91B170C77433E043F0C801BED
:10200000B941860D8F023E43664329277F1BFE4060
:102010000C3D7746AF40BF1930BCA2B2ABB27243A1
:102020007343801A9941220C7243130C1204801AD4
:10203000994102000B000137001BA941F9D2781E1B
:102040000021F0BD0C277F1BFE4077467F0BAF4081
:10205000FF19E0E700245D1C07D0144F7D66396648
:10206000FFE7FFE7FFE7FFE73C6F95B29EB26543EE
:102070006643401BB141150C1E0C65436643360494
:102080002F0C3E432D04401BB141994204D2020063
:102090000B0020000021F0BD01D19042F7D3801A3F
:1020A000994101349942F2D3F6E70000000000D0D4
:1020B000FFFFFFFF48404140484018B4134B5B68A6
:1020C000019308BD18B4114B1B68019308BD9446D9
:1020D0000F4A926F920805D2624618B40B4BDB6828
:1020E000019308BD0A4AF0B5146E556E576F166F0E
:1020F0006246FFF7F2FF064A146655665767166791
:10210000F0BD18B4014B9B68019308BD681900200D
:10211000000000D0FFB550404240504059404B4075
:10212000594000E0FFB5154F4C00640D03D0BC4290
:1021300004D10C0314D80020090D09055C00640DBE
:1021400003D0BC4204D11C030AD800221B0D1B057E
:1021500001264B4009D44B4003D58B4200D182422B
:10216000FFBD9942FCD19042FFBD0B43DB180343F6
:102170001343F5D0C9434918FFBD0000FF07000015
:1021800000B5FFF7CFFF804100BDC04600B5FFF7A7
:10219000C9FF01D9002000BD012000BD00B5FFF737
:1021A000B9FF01D9002000BD012000BD00B5FFF737
:1021B000B1FF804100BD012040054A00121804D83B
:1021C0005A00121801D80020704701207047000003
:1021D0000021002805D17047C1174840401AFAD0A5
:1021E000C90713B5064B1B6898470CBC441CA2409A
:1021F0001005120B0349091B09051943114310BDB2
:10220000A42300201F04000010B54C00620D8023A1
:10221000D218DB00D21A5B057E2A10DD9E3A13DA53
:10222000CC170903490819435242D14064000134D4
:102230001532202A05DAD0400843604310BD002043
:1022400010BD0846604310BDC80FC018013810BD4E
:1022500018B4024B5B6A019308BD000068190020A6
:1022600010B50148FEF70AF990890010002370B5F7
:10227000DD7C012D19D014DD1D48FFF73FFB060062
:102280001C48FFF73BFB1C4C80223100200000F073
:10229000C7F8022D06D01948FFF728FB184B186025
:1022A00070BD154C174BA364F5E7174B124C236018
:1022B0006360A360E36023616361A361E361236200
:1022C0006362A362E36223636363A363E3632364E0
:1022D0006364A364E36423656365A365E3652366C0
:1022E0006366A366E36623676367A367E367D9E76B
:1022F0005344000053460000681900204C3300008E
:10230000A42300200D2300106122001007B56046B1
:1023100001880A0A0230DF2AFAD1C9B2820804D33E
:10232000028840880004104300E00068014A5050D1
:10233000039007BD6819002051434343C9188C46D8
:10234000110C83B24B4310B4040C614392B280B2BF
:10235000504362431C041B0C001910BC5941130468
:10236000120CC018514161447047000010B501487B
:10237000FEF784F8148B0010002310B5DC7C1148A4
:10238000FFF7BCFA012C0BD004DD010080220E48BF
:1023900000F046F80D48FFF7A9FA0D4B186010BD84
:1023A000094C01005422200000F03AF822002000DD
:1023B000084980320368002B00D10160043090424C
:1023C000F8D1E7E753460000A82300204C33000073
:1023D000A42300206D23001010B5040005F094FD27
:1023E000002804D0034B04199C4200D810BD0248B9
:1023F000FEF744F800000420A889001010B505F08D
:102400008DFD10BD01480421014B184770110020BB
:102410000D190010014B1B681847000070110020B7
:10242000014B5B6818470000701100207047C046E0
:10243000F8B5DE4657464E464546E0B599460D9BF3
:102440000700884693469B0728D00B9B002B3CD067
:102450005E460B9C0A9D3619321B013C4B46414699
:10246000285DB847002CF7D135000D9B9B070ED592
:102470005B46EC1A0C9BA34209D91E002A004B466E
:10248000414620200134B8470135B442F6D3280034
:10249000F0BCBB46B246A946A046F8BD0B9B0C9AC1
:1024A000934214D213005D460C000B9A9E1A7619C3
:1024B0002A004B46013521002020B847B542F7D10C
:1024C0000B9BA046002BC4D1E1E71500CDE7002B04
:1024D000BED15D46DBE7C046F0B54F46D646464620
:1024E000C0B584B09C460EAB1F78129B9146BA468D
:1024F0000D9C109E119D9B0752D4002D47D1B442D4
:102500004ED20123129F1F40B8460C9B5F1E302302
:1025100003E001343B55A64201D9202CF9D14346B2
:10252000002B00D183E00C9B5F1E3023A54204D812
:1025300036E001343B55AC4232D0202CF9D1129B0D
:10254000DB0614D5129B5B0553D4A64263D0A5428B
:1025500061D00F9B102B4FD0022B57D0202C06D0D0
:102560002300013430260C9AD654202C2AD1129BF9
:102570004A4603930C9B0295009301946346FFF730
:1025800057FF04B0E0BCBA46B146A846F0BD0123EF
:10259000129A134098460123134223D1B442B4D374
:1025A000129BDB06E1D5129B5B05D2D4002CCCD16B
:1025B0000F9B102B54D00F9B022B6AD03023012489
:1025C0000C9A13705346002B07D1129B5B0736D52C
:1025D0002B230C9A13550134C9E72D230C9A13555C
:1025E0000134C4E7002F32D0013DB44200D28CE761
:1025F00099E70F9B102BBAD1129B9B063AD5202C42
:10260000B5D058230C9A13550134A7E7202CAED02F
:102610002300013407E0631E012CC9D00F9A102A51
:102620003ED0022A9ED162260C9AD65496E7129B7F
:10263000DB069AD5129B5B0500D486E789E7129BDF
:102640001B0794D520230C9A135501348FE70C23D4
:1026500013405F1EBB41ED1AB44200D255E762E75A
:10266000129B9B060ED478230C9A02241370483BCD
:102670005370A7E7202C00D179E778230C9A1355E3
:1026800001346BE758230C9A02241370283B5370D3
:1026900098E70C9A60331370323B0224537091E731
:1026A0000C9AA61E9619129A920602D558223270DA
:1026B00058E77822327055E710B5002800D110BDD8
:1026C00001F06AFCFBE7C04610B5002803D04A6859
:1026D0000B681100984710BDF0B54E46DE465746D0
:1026E0004546E0B595B082468946934698461E9A7F
:1026F0001F9B10001900209EFFF75DFD002800D0F1
:10270000D3E11E981F990122C34B5242FFF738FDB7
:10271000002800D001E11E981F990122BF4B5242B0
:10272000FFF744FD002800D0D6E01E981F99002234
:10273000BB4BFFF73BFD002800D0B5E01E981F996A
:102740000022B84BFFF71CFD002800D0ACE01E981B
:102750001F9900220023FFF713FD002800D0D1E0CD
:1027600000230B93229B5B0500D406260024302314
:1027700006E006AA013417321355013E202C01D081
:10278000092EF6D81E981F99FFF73EFDA64BF200C2
:102790009B180CCB050008920993FFF71DFD020062
:1027A0000B001E981F99FFF788FC089A099BFFF7FA
:1027B000A8FC06900791FFF74BFD0700FFF708FD07
:1027C00002000B0006980799FFF777FC0022974B51
:1027D00006900791FFF7EAFC002800D1E9E00137F5
:1027E0003800FFF7F5FC02000B0008980999FFF785
:1027F000CDFC002801D000270135002E00D1B7E024
:10280000069514E006AB9C4617230A216344380062
:1028100001341D19FFF716FA3031297038000A21EA
:10282000013EFFF70FFA092F00D8E0E00700202C47
:10283000E8D10CAB069D0693172706ABFF180DE0F9
:1028400028000A21FFF7D6F9013430312800395524
:102850000A21FFF7CFF9051E00D1B7E0202CEFD1F8
:102860000323229A1340012B17D1219B002B14D054
:102870000B9B002B00D1E1E0219B013B2193202BFE
:102880000BD93023219A06E006A9013417310B55E4
:10289000944200D3A0E0202CF6D1229B0194039314
:1028A000219B0293069B21E0229B5A460493219B85
:1028B0004946039350461E9B1F9C02960093019429
:1028C000434600F045F90400200015B0F0BCBB46BB
:1028D000B246A946A046F0BD229B5B070FD4032257
:1028E000534B2299019203912199029100935A46E8
:1028F000434649465046FFF79BFD0400E4E70422A7
:102900004C4BEEE71E9A1F9B00200021FFF7D5FBE2
:1029100001231E901F910B9324E70223229A1A4051
:10292000229B06929B0700D1A0E05C462600424D08
:1029300008942F1F3200E87843464946013DD047AE
:102940000136AF42F6D1089C069B0434002BBBD065
:102950005F46219AE31B9A42B6D9150022004346EE
:10296000494620200134D047E31B9D42F6D8ABE70F
:102970002800FFF731FC02000B001E981F99FFF79B
:102980009CFB2A4B002206000F00FFF7F9FB0CAB63
:102990000693002800D04FE7002230003900234B77
:1029A000FFF704FC002800D046E7012301359D43D2
:1029B00042E70022069807991C4BFFF7E1FB00282D
:1029C00000D01AE7002F6BD1013716E70323229AB4
:1029D0001340012B00D1A7E0202C00D15DE70B9B19
:1029E000002B38D02D23069A1355013455E7302398
:1029F000069D3619202C06D135E006AA013417327F
:102A00001355202C2FD0B442F7D12E230CAA013419
:102A10000692935510E7C046FFFFEFFFFFFFEF7FE1
:102A200065CDCD4165CDCDC1008C00100000E03FEB
:102A3000148A00100C8A00101C8A00100C23229AA1
:102A400013426CD0219B013B2193A34200D918E78C
:102A5000202C00D121E7229B5B0718D52B23069A57
:102A60001355013419E70CAB0693E5E6219B042BC3
:102A700000D85AE75D464F462C1FE4182A0043460B
:102A8000013539002020D047A542F7D14EE7229BDF
:102A90001B0700D401E72023069A13550134FCE6F6
:102AA000FB0700D4A9E60137A7E60227229B1F40B7
:102AB0009B0722D05D4606975746244EEC1C2A0001
:102AC000B078434649460135B847013EA542F6D1A4
:102AD000069F002F00D1F7E65F46219AE31B934241
:102AE00000D3F1E615002200434649462020013478
:102AF000D047E31B9D42F6D8E6E6219B032BD9D9AC
:102B00005C4606974F46E51EED1822004346013409
:102B100039002020D047AC42F7D1069FCBE7219B5C
:102B2000A34200D9ADE6B8E6219B002B00D153E7C4
:102B30000B9B002B82D0219B013B21939C4200D216
:102B40009FE6202C00D04DE7A7E6C046188A00106B
:102B5000F0B54E46DE4657464546E0B59BB0249C50
:102B6000259D8346894692461E0022002B002000A8
:102B70002900FFF720FB002800D0C4E0012220003C
:102B800029007F4B5242FFF711FB002800D0BAE02A
:102B90000122200029007B4B5242FFF7F1FA002866
:102BA00000D0B0E00022002320002900FFF7E8FA5F
:102BB000002800D018E20894099508980999802304
:102BC000289ADB001A400F928022289F120117409A
:102BD0003A000E97289F88460A901F4200D0A7E02F
:102BE0000B00034300D0D1E0002A00D024E23A00D9
:102BF000063326930223134098460223134200D142
:102C000011E2002300270E930233984602330C93FF
:102C10000022002320002900FFF7B2FA002800D08C
:102C2000B3E1594B289A134004930E9B0393269BC0
:102C30000293089B099C0093019449463300524635
:102C40005846FFF749FD02002020289B002503403D
:102C500059424B415B421840531C0893494633008C
:102C60004530D847FB17FC185C40FB0F1F270A9321
:102C70000C9B0C96013B0E930AABFF1806E020005C
:102C80000A21FEF7DFFF0400202D08D00A212000D2
:102C9000FEF7D8FF013530317955092CEFD80523DF
:102CA00006930E9B5F460593002304930A33039318
:102CB0000A9B0C9E029312AB0093494633003800E6
:102CC000089A0195FFF708FC4346002B29D053468C
:102CD000C41A279BA34224D980461D005346494667
:102CE0001A19202033000134B847A542F6D84046CF
:102CF0005146279C421A01320023944200D3A9E195
:102D0000013018180DE0289B009401950493279B2F
:102D10000393269B02933300524649465846FFF7D9
:102D2000DBFC1BB0F0BCBB46B246A946A046F0BDDA
:102D300001432DD10E9B3A00002B00D15AE700270A
:102D400000239846269BBB4200DD92E1002200232F
:102D500020002900FFF714FA002800D04CE1289B3E
:102D6000094A1A408023DB0013430493279B0393F3
:102D700043460293089B099C00930194CBE7C0460D
:102D8000FFFFEF7FFFFFEFFFFFF7FFFF0623269315
:102D900043465800BB4B400DC018FFF71DFABA4A16
:102DA000BA4BFFF7AEF9BA4ABA4BFFF78BF9434675
:102DB0001F03B94B3F0B3B430C900D9100220A9827
:102DC0001900B64BFFF779F9B54AB64BFFF799F9F9
:102DD00002000B000C980D99FFF774F9FFF714FA35
:102DE0000700FFF7F9F9B04AB04B0A900B91FFF7D3
:102DF00088F90022AE4BFFF765F9FFF705FAAD4AF7
:102E000080460A980B99AC4BFFF77BF90A900B911F
:102E10004046FFF7E1F9A94AA94BFFF772F9020012
:102E20000B000A980B99FFF748F902000B000A9073
:102E30000B91FFF766F90C900D910A980B9902001F
:102E40000B00FFF73FF90022109011910C980D999B
:102E50009C4BFFF73CF900229B4BFFF733F9020034
:102E60000B000C980D99FFF732F90022974BFFF7F2
:102E700029F902000B000C980D99FFF728F90A9A1E
:102E80000B9B0C900D9180210020C905FFF715F9CF
:102E900002000B000C980D99FFF714F902000B00CB
:102EA00010981199FFF713F900227B4BFFF70AF9ED
:102EB0004346874A0A900B910A980B999B181B0569
:102EC0000022FFF71EF902000B00089809990A92E8
:102ED0000B93FFF755F9002808D00A980B990022A8
:102EE000794BFFF7F4F80A900B91013F0A990B9A7E
:102EF0000B0011003A006332C62A57D802222898E4
:102F000010400E9A8046002A00D198E004220C92CC
:102F10000B4300D114E7089809996E4A6E4BFFF7EE
:102F20003DF9002808D00898099900226B4BFFF75B
:102F300027F9002800D003E7269B002B48D00F9BE1
:102F4000002B45D0269B0C9A013B2693279B93424E
:102F500005D94346002B00D182E002239846002386
:102F60000E93002F00D153E60A9A0B9B08980999FB
:102F7000FFF7ADF8002208900991002320002900F6
:102F8000FFF7FEF8002800D14BE6089C099D289A1F
:102F90008020534B00061340220004930E9B0393A2
:102FA000269B02932B180092019346E60222289852
:102FB00010400E9A8046002A32D1279B052B04D957
:102FC00000285AD1279B053B0E9305230C93CBE792
:102FD000279B0C9A9342C2D94346002B40D0002332
:102FE0000E9302339846BCE780231B069C46AC44F4
:102FF000634608940993E0E5289B394A8020089CA1
:10300000099D1A408023DB0013430493279B220071
:1030100003934346000602932B18009201937AE62D
:1030200005220C9274E7279B042B17D3043B0E93C5
:10303000042300270C93EBE50523984686E6279B9F
:10304000042B04D900280FD1279B043B0E930423A3
:103050000C9386E74B1E1B191B1A51E60423E5E768
:10306000279B9B1A0E937CE704230C93023B984604
:1030700077E7DB1B013B984668E60223984603335B
:103080000C9371E701FCFFFFFB799F501344D33F82
:10309000B3C8608B288AC63F0000F03F0000F83FAD
:1030A00061436F63A787D23F71A379094F930A40A9
:1030B0000000E03F1655B5BBB16B0240EF39FAFE98
:1030C000422EE63F00002C40000024400000184043
:1030D000FF0300002D431CEBE2361A3F80842E4193
:1030E000FFF7FFFFF0B55746DE464E464546E0B5D2
:1030F0009FB01F00289B92460B93C64AC64B8B4637
:103100000A901A60002900D102E20023387899461B
:10311000002800D104E2C14B5D460993C04B5646DE
:103120000D934B4608930BE0089A33009046290014
:103130000A9CA0474346013308933878002876D08C
:1031400001372528F0D110239B46083B9A46043BC3
:103150009946023B9846013B00229C463878791CF0
:103160000300203BDBB2102B03D8099C9B00E358E3
:103170009F460300303B092B00D8E2E0002398462D
:103180002A2800D132E100230C932E2800D1C7E079
:1031900068235B429C4684446346DBB2122B1DD8F5
:1031A0009B001C000D9B1B599F4663460F001A4352
:1031B000D4E743460F001A43D0E74B460F001A43AB
:1031C000CCE75B460F001A43C8E753460F001A438B
:1031D000C4E7802040000243787801310F00652861
:1031E0003ED8462800D9C2E025289DD024289BD966
:1031F000452800D192E2462896D120210A43072093
:103200000B9904924246CB1D8343190003920C9AFA
:103210000A9802920CC9009201930B913300290085
:10322000089AFFF759FA08903878002888D1089B47
:10323000AB469946B2461C00CA4503D801235B42FF
:103240005344994653464A46594600200A9DA8478A
:1032500020001FB0F0BCBB46B246A946A046F0BD58
:10326000782800D960E7682800D85BE101000123D5
:103270006939C9B28B409C4661466A4B1C001940B3
:103280006346234200D06CE1732800D1D0E070285F
:1032900000D049E70B9B01CB84469846002800D01C
:1032A000F1E110201300834311301843520521D45B
:1032B0000EAB62469C461F2363441C000F239C46B2
:1032C000089B834699460C9B9A4602E012092029E6
:1032D0000BD06346134018003730092B01D8303328
:1032E0001800013160540F2AF0D84B46089353461A
:1032F00058460C930C9B082204931023039300233D
:10330000029316AB069005920191009329003300B9
:10331000089A0A98FFF7E0F8434608900B930CE7E9
:103320008020303B9946C0000243787881444B4668
:10333000092B00D888E12A2800D197E10F0001313C
:1033400026E7002394461F00089C00E00131BB00E3
:10335000DB195B001F180878303F0300303B092B56
:10336000F4D9B84662460F00089401310BE701001A
:1033700001234739C9B28B4019002B4B194200D0A9
:10338000AAE22A4B194200D0C2E1632800D0CBE662
:10339000089B013399460B9B04339A46920700D44D
:1033A00068E2089A0B9B93461878290033000A9C20
:1033B000A0475B46434408934346012B00D804E3EF
:1033C0002B004C46B9461F00B046089D0A9E2200BD
:1033D0004346013439002020B047AC42F7D1534670
:1033E000089546463D000B934F46A6E60B9B01CB46
:1033F0008046002804DB0F0008780B930131C2E6F9
:10340000022002434046404280460F0008780B935A
:103410000131B8E6E5300010782300206C8B0010F5
:10342000B08B001041900000000002280100004015
:103430000B9B02CB8A460C999B46002900D120E1C8
:103440005346187851448C465146002800D1E2E397
:103450000C9B089C9946634694461A004B780131B0
:10346000002B01D09142F9D14B460C935346624652
:10347000CB1A08941093510500D407E1109B0C99C6
:103480008B4200D9109102210B0013400E93114280
:1034900000D126E302230E930C9B089A99465346CB
:1034A0009B1A9A464346089353469144BA46A84607
:1034B0001F004D46B1460A9E08E0541C4B4641464B
:1034C000B047385D002800D184E122009542F4D154
:1034D0004E46A946089B454698464B465746089394
:1034E000F1E078786C2800D16EE180277F003A43C4
:1034F000013173E6802080000243013178786DE667
:103500007878682800D15AE1802701313A4365E68E
:10351000D74B38780A9300239946002800D0FAE563
:10352000002489E6662800D169E6672800D0FBE51B
:10353000802109010A4307200B9904924246CB1DC2
:103540008343190003920C9A0A9802920CC90092C4
:1035500001930B9133002900089AFFF7F9FA0890BC
:10356000EBE56F2800D1DCE000D9AAE110211300BF
:103570008B439C46692800D078E380211300C90062
:103580000B409A460A4203D01120824394468A4651
:1035900080216246634689000A400B4200D120E147
:1035A000082399460B9AFA39FF3907328A43914426
:1035B0004B4606CA0B930E910F92002A00DCDEE107
:1035C00000239A46002399460EAB9B461F235B447B
:1035D0009B46634610934346B84611935F46B346F5
:1035E0004E46A9460E9C0F9D03E004000D00202EC0
:1035F0000CD00A22002320002900FEF761FB0136CF
:103600003032BA55002DF0D1092CEED8109B474628
:103610009C46119B4D469846B1465E4663460693CE
:10362000434605930C9B04930A230393534602934A
:103630004B46019316AB009329003300089A0A9871
:10364000FEF74AFF089078E50F000021089C8B00E8
:103650005B185B0001371918387830390300303BAC
:10366000092BF4D90C910894791C91E50B99023738
:1036700008C9D843C01703400B9138780C93791CC4
:1036800086E50139DCE62120104311E602210B001A
:1036900013400E93114200D15CE202230E93534675
:1036A000089CB1461B1B1E00BA462F000A9D220033
:1036B0004B4639000134A847305D0028F7D13D0062
:1036C0004E46574608945B460B930E9B002B00D149
:1036D00033E5089B9946109B984500D8BBE2089CAF
:1036E0004444E21A2B004C461500B9461F00B04670
:1036F0000A9E22004346013439002020B047AC42E4
:10370000F7D15B46089546463D000B934F4614E5BE
:10371000472800D00FE7802109010A4320210A43EE
:1037200009E708239C460023109308330E93802159
:103730001000C90008400A4200D1D8E00D218A4398
:10374000110080220B00920013409A46114200D0D3
:1037500041E180220B005200134099460B9B043339
:1037600010930B9B114200D0FAE14A0600D522E1EA
:103770000A0600D461E21B889A465346002B00D00B
:1037800070E110229143002800D16BE1002399469B
:10379000434605930C9B069104930E9B03930023D1
:1037A00002934B46019316AB009329003300089A0D
:1037B0000A98FEF791FE109B08900B93BDE4C02180
:1037C000B8780A43F91C09E5C02189000A43B87892
:1037D000F91C03E5089B4546574698464E46089413
:1037E00071E7802149000B4099460B9B181D0E90F4
:1037F0006046084200D07EE0420600D4F7E10B9B11
:103800001A78002A00D1ECE1924600220EAB9B46CA
:103810001F235B449B46634654460B93AA46109273
:103820004D46B9465F46B34606E020000A21FEF742
:1038300009FA0400202D08D00A212000FEF702FA20
:10384000013530317955092CEFD80B9B4F469C46FA
:10385000A9465E465546109A63460693434605932D
:103860000C9B029204930A2303934B46019379E045
:103870002D2400104346012B00D89FE0089AB14642
:10388000531E43449B462B0014005D46BB461F005D
:103890000A9E22004B46013439002020B047AC423A
:1038A000F7D13D004E46089B2200434408930B9BF2
:1038B000290018780A9C3300A04753465F460B93B3
:1038C0003BE478280CD00A239C4600231021109357
:1038D0000A338A430E932AE7582862D120210A43EB
:1038E00010239C460023109310330E931FE70C21E6
:1038F0008A43110025E71B68994600230B934B462A
:10390000002B00DC80E10EAB9A461F2353449B46FC
:1039100063464C46AA46B94615005F461093B34627
:1039200006E020000A21FEF78DF90400202D08D0C2
:103930000A212000FEF786F9013530317955092C2E
:10394000EFD8109B2A009C464F4655465E4663467C
:103950000693434605930C9B019204930A23039319
:103960000B9B029316AB009329003300089A0A9828
:10397000FEF7B2FD0E9B08900B93FFF7DEFB002ACB
:1039800002D1002900D01BE6114300D079E1534653
:10399000002B00D021E1002300249A460E930F94BF
:1039A00010E6622800D05DE102239C4600231093BC
:1039B00002330E93BBE61B789A46DEE60B9B29008A
:1039C0001878089A33000A9CA04753460B934B463D
:1039D0000893FFF7B2FB07230B9A07329A43013390
:1039E000994691444B460B931368526812931343C4
:1039F00092461A1E05D100231032994691430028A1
:103A000066D18A06D30F119300231C000EAB9B4690
:103A10001F235B449B4643461493109BA94698463C
:103A200063461597129D57461391B246109309E0CD
:103A300030325B4601341A55B8453FD005000F00BF
:103A4000202C3ED0002328003900109AFEF738F9C8
:103A5000D2B2092AECD9119E5723002E00D0372369
:103A6000D218E6E78A06D30F0B930EAB9C461F23B2
:103A700063444C46B9461F002B00B34655460E9E84
:103A80009A46119107E0303101343955B5420FD3D0
:103A90000500202C0CD031002800FEF7D3F80929AE
:103AA000F1D90B9A5723002A00D03723C918EBE726
:103AB0004F465546A1465E46119969E6109BAB42BA
:103AC000BCD9149B4D469846A14656461399159F5E
:103AD000434605930C9B069104930E9B039300238E
:103AE000A5E5109B984500D8D5E08023DB000E9318
:103AF0004346089C1A19109BD31A994653460B93B8
:103B0000434610930C9BBA462F004D469946B0464B
:103B10000A9E22004346013439002020B047AC42BF
:103B2000F7D14B460C930B9B3D0057469A46109B92
:103B300046469846534618780894002800D18AE0F3
:103B40004346013310930E9B002B00D1A7E50023C1
:103B50000E93A1E4109B9845CAD8013310939EE5BB
:103B60001B689946002B03D1F03A9143002829D1D4
:103B70008A06D30F0B930EAB9C461F236344544617
:103B8000B346AA460E9E4D461191B9461F0007E066
:103B9000303101343955B5420FD30500202C0CD0FB
:103BA00031002800FEF74EF80929F1D90B9A572366
:103BB000002A00D03723C918EBE755464F46A246E6
:103BC0005E461199434605930C9B069104930E9B08
:103BD0000393002302935346E4E500239A46994653
:103BE0001CE553460022002B00D035E60EE6020607
:103BF00035D50B9B00229A5E002A00DD04E6F0D04A
:103C000053429A46012201E6002B48D15346002B2D
:103C100000D09CE677E680211300C9000B4010938A
:103C20000A420DD0023003001340109310423BD0E3
:103C3000089B9946002310934DE51B689A469CE526
:103C400002210B0013400E93114200D041E5434680
:103C5000002B00D04CE75B460B93FFF76EFA0B9BF3
:103C60001A68C9E7102113008B439C46642800D1D1
:103C700083E40A2362469C460023109363460E9316
:103C800055E50E9B0F9C00225942A24101230E9143
:103C90000F929A4696E401331093FFF7FDFB5B42C7
:103CA000994601230B932EE60E91D0E700B585B01F
:103CB0000391012102900093034813004A4202A994
:103CC000FFF710FA05B000BDC926001010B5094A6B
:103CD0000300146884B0002C08D00122009106482B
:103CE000524203A9A047012004B010BD00F09EF984
:103CF0000020F9E778230020B926001000BEFDE778
:103D00007047C046094A1368002B06D008491818A6
:103D1000884208D8106018007047064B04491818EC
:103D200013608842F6D901235B42F4E7741F002038
:103D300000000420DC24002010B5FFF7DFFFC046A0
:103D400070B5FDF733FE074D074EB54209D200248A
:103D5000013E761BB608013608CD01349847B442BF
:103D6000FAD170BDE4880010E8880010030010B597
:103D7000080011001B68984710BDC046F8B5437D88
:103D800007000D001600002B2DD0002A1ADD0B783D
:103D90000A2B2DD00020012E09D0012421006B5CBC
:103DA00001340A2B0FD0A642F8DC864203DD311A1B
:103DB0003B6828189847AD19013D2B780D3B5A42B6
:103DC00053413B75F8BD6B1E5B5C0D2BEBD08842FD
:103DD00003DA091A3B68281898470B4802213B6808
:103DE00098472000DFE70368110028009847E9E7BB
:103DF000037D002BCED1022103483B689847012E5A
:103E0000D9D00120C9E7C046508C0010F8B50B6826
:103E10000D005A1CCB180A601871802A00D0F8BD1A
:103E20000E4B1C68002C15D00D4E0F1D02E02469AE
:103E3000002C0FD02368002BF9D03368002B01D061
:103E4000A342F4D1200039002A68FFF797FF2469C4
:103E5000002CEFD100232B60E1E7C046641F002057
:103E6000701F0020F0B54646D6464F46C0B582B01A
:103E700090461C0006000D00FDF7CEFA00232F4AE5
:103E800012184B41002B02DA01222D4B52422D49D0
:103E900008008A4604F0C0FC81466B1C03D1300048
:103EA00004F028FB0500002C27D0274F274B1C6867
:103EB000002C18D04346002B21D1254B984602E018
:103EC0002469002C0FD02368002BF9D043461B68CF
:103ED000002B01D09C42F3D120002A003100B847CA
:103EE0002469002CEFD14B46002B23D1280002B0CF
:103EF000E0BCBA46B146A846F0BD164FD6E7144B13
:103F0000984602E02469002CEDD02368002BF9D0FC
:103F100043461B68002B01D0A342F3D12A00310095
:103F20002000B8476B460A222000DA71D91D093AF1
:103F3000B847E7E7504604F0AFFCD7E740420F0030
:103F4000FFFFFF7F101700207D3D0010641F002041
:103F5000701F00206D3D00100A4A1368002B05D128
:103F60000CE01A001B691032002B07D09842F8D1E0
:103F7000002902D103691360016170470029FCD058
:103F80001060FAE7641F002010B500F0A5F900F0FA
:103F90005BFB012010BDC046F0B5CE46474680B55C
:103FA00083B06B460600DD1D2870FDF735FA00234F
:103FB000194A12184B41002B02DA0122174B5242C8
:103FC00017490800894604F027FC164B80461C68F8
:103FD000002C14D0144F02E02469002C0FD0236869
:103FE000002BF9D03B68002B01D09C42F4D120007B
:103FF00001222900FFF7C2FE2469002CEFD14346BD
:10400000002B05D1300003B0C0BCB946B046F0BDAE
:10401000484604F041FCF5E740420F00FFFFFF7FF8
:1040200010170020641F0020701F002070B50400CE
:1040300004F060FA01230100050001222000FFF7CF
:1040400011FF084B1C68002C06D06368002B05D0BC
:1040500098472469002CF8D1280070BD2469002CF1
:10406000F3D1F9E7641F0020F0B5CE46474680B58E
:10407000A3B004000E00FDF7CFF90023264A121862
:104080004B41002B02DA0122244B5242244804F017
:10409000C3FB00232200019380463300214801A97D
:1040A000FFF704FE204F019B81463C68002B19D08E
:1040B000002C2FD01D4E02E02469002C0FD0236865
:1040C000002BF9D03368002B01D0A342F4D120009B
:1040D000019A02A9FFF752FE2469002CEFD10023B8
:1040E0003C680193002C06D06368002B0CD09847E5
:1040F0002469002CF8D14346002B07D1484623B051
:10410000C0BCB946B046F0BD2469EBE7044804F0F2
:10411000C3FBF3E70194EEE740420F00FFFFFF7F90
:10412000101700200D3E0010641F0020701F00209B
:104130000FB400B583B004A901C90191FFF794FF42
:1041400003B008BC04B01847F0B5002915DD0E4BCC
:104150000D271A680D4B0E4CD3185D426B41451864
:1041600020215B001E5F0478A64207D093691942A4
:10417000FCD101301460A842F5D1F0BD9369194219
:10418000FCD11760F2E7C046BC2400200080FCBFD1
:10419000B82400201E4B30B51B680D1E9C4629DD3F
:1041A000441E102100201B4B1A689369194213D139
:1041B000013093691942FCD1136823548542F4D12C
:1041C0006346002B06D050239363516B183B0B4082
:1041D00011495350280030BD6346002B06D05023B0
:1041E0009363516B183B0B400B4953500028F2D19D
:1041F0000338F0E7002B08D05022064B1B689A6367
:10420000596B183A0A4004495A5003204042E2E7E9
:10421000FC1E0020BC24002034100000064B10B50A
:104220001B68002B06D00021044A12689163044ADF
:104230001068984710BDC046FC1E0020BC2400201A
:10424000041F00200822034B19688B691A42FCD115
:104250007047C046BC24002070B5194E194A336817
:104260000400981842425041174D14302A68002C1F
:1042700002D0002A0FD070BD002AFCD006009C633B
:104280000021FCF7CDF930001049FCF705FB104B7D
:104290002C601C60EFE72C6004000D4B19600B498B
:1042A000FCF7F4F901212000FCF7BAF95022336839
:1042B0009A63596B183A0A4006495A50DBE7C046E0
:1042C000BC2400200080FCBFFC1E00201D4200100A
:1042D000041F0020341000000D4B10B51B780D4B4F
:1042E0000D4C1B780D4B02211B780D4B00202360D9
:1042F000FCF766F802210120FCF762F8E121206852
:104300004902FDF7D9F801210648FFF725FE10BD47
:10431000D48E0010D08E0010BC240020CC8E001053
:104320000040034080110020024B1860024B1960CE
:104330007047C046001F0020081F002010B5024B28
:104340001878FCF78BF910BDD7240020154B70B5F9
:104350001A68002A22D0EFF3108172B61068002884
:10436000FCD0BFF35F8F00200F4A596010701B68AC
:10437000BFF35F8F186081F31088002400250B4E77
:104380003078FCF75FF9002804D1002400252900CB
:10439000200070BD3078FCF761F9F8E7FA240025B9
:1043A000A400ECE784230020D8240020D724002098
:1043B00070B5050000200E0001F076FB002835D016
:1043C000002001F089FB002830D0FDF725F80023FC
:1043D000184A12184B41002B16DB174C200004F032
:1043E0001BFA002822D0002001F05EFB00280FD12C
:1043F000012000210325404200F092FD6D42200083
:1044000004F04AFA280070BD01220C4B5242E4E746
:10441000002001F061FB0028EAD0290032000020D2
:1044200001F064FB051EEAD1033DE8E703256D4278
:10443000E8E7C04640420F00B0240020FFFFFF7FA6
:1044400010B5FCF7E9FF00230D4A12184B41002B71
:1044500002DA01220B4B52420B4804F0DDF900282E
:104460000CD001200021404200F05AFD002001F054
:1044700081FB0028F5D1044804F00EFA10BDC046B7
:1044800040420F00FFFFFF7FB0240020F8B5CE466A
:10449000474680B505000C00FCF7BEFF0023344AF8
:1044A00012184B41002B02DA0122324B52423249A0
:1044B0000800884604F0B0F9002803D1C0BCB94612
:1044C000B046F8BD002001F0EFFA002848D0002CDB
:1044D00042DD2A4B0026994613E0A919002001F07D
:1044E00085FB070001200021404200F019FD00205B
:1044F00001F040FBFCF790FF204BF61903C3B442D8
:104500002ADD002001F090FBA71B0200B84200DD6D
:104510003A00002AE1D101200021404200F000FDD4
:10452000002001F027FB002001F0BEFA002813D084
:10453000002001F079FB0028E1D1FCF76DFF4B462C
:104540000F000CCB002184460D4812184B419F42AE
:1045500002D8D4D19445D2D9404604F09DF9ADE7B4
:1045600000200021054B03C3404604F095F9A5E760
:1045700040420F00FFFFFF7FB024002060190020A1
:1045800020A1070030B5002185B0284804F024F9A7
:1045900000281BD1264B1A68002A15D0EFF3108192
:1045A00072B610680028FCD0BFF35F8F0124214A47
:1045B000596010781B681470BFF35F8F00221A6077
:1045C00081F31088002817D005B030BD01200021EC
:1045D000404200F0A5FC002001F07EFA05001348DF
:1045E00004F05AF9002DEFD0134B1B68002BEBD0D1
:1045F000124A10689847E7E7FCF70EFD0400FCF745
:104600000BFFFA220023920012184B41002B02DA12
:1046100001220B4B524201210291002101910949D3
:1046200020000091FCF7FCFCCEE7C046B02400203F
:1046300084230020D8240020001F0020081F002011
:10464000FFFFFF7F4D430010D02330B51B0685B020
:104650001D68FCF7E1FCFCF7DFFD0024A84202D056
:10466000200005B030BD294B002100201B7801F04F
:1046700097FC27480368002B44D00120FCF750FA30
:10468000FF23244C244920701840FBF7FFFF2078BB
:104690000121FBF7C5FF0520FBF7E8FF041E24D12D
:1046A000082200211D48FDF7B5FEFCF7B5FC05000A
:1046B000FCF7B2FEFA220023920012184B41002BA5
:1046C00002DA0122164B524201210291002101918E
:1046D000144928000091FCF7A3FC0028C0DB01214D
:1046E0001148FFF739FC0124BAE70120FBF756FF18
:1046F00001000A48FCF77AFA002205200B49FBF773
:10470000EFFFECE7FCF756FAB7E7C046D88E00108B
:10471000B0240020D72400208545001084230020E9
:10472000FFFFFF7F4D430010981100203D43001014
:1047300000487047E88C001000487047948C0010C7
:1047400010B5040016480378002B20D0002C06D1A9
:10475000144B15484380063BFF3B038010BD052CDE
:104760001CD8124BA400E4580F480123811C013CC3
:1047700004E001330A800231142B0CD0E25C002AE1
:10478000F7D1C022DBB25B0092001343E5E71121B1
:1047900000F016F8DAE7CA239B00DEE70020DDE729
:1047A000C0240020090400003C1F00207C8C001065
:1047B00010B5024800F0F4F810BDC0469C2300205C
:1047C00030B5012900D1BBE0744B01391A781211C0
:1047D00014003034092A00DDB5E00470012900D14D
:1047E000DAE00F221C78224014003034092A00D964
:1047F000ACE04470022900D1CEE05A789446121100
:1048000014003034092A00DDA3E08470032900D1AC
:10481000C2E064460F22224014003034092A00D935
:104820009AE0C470042900D1B6E09A789446121137
:1048300014003034092A00DD91E00471052900D10B
:10484000AAE064460F22224014003034092A00D91D
:1048500088E04471062900D19EE03025AC46DC7822
:1048600022119444092A00DD7FE062468271072903
:1048700000D191E00F22224014003034092A00D9DF
:1048800077E0C471082900D186E03025AC461C7958
:1048900022119444092A00DD6EE062460272092961
:1048A00000D179E00F22224014003034092A67D861
:1048B00044720A2900D16FE03025AC465C792211A0
:1048C0009444092A5FDC624682720B2964D00F226D
:1048D000224014003034092A59D8C4720C295BD004
:1048E0003025AC469C7922119444092A02DD073513
:1048F000AC469444624602730D294DD00F222240EB
:1049000014003034092A01D93732140044730E29B7
:1049100042D0DA7913111C003034092B01DD373312
:104920001C0084730F2937D00F2313401A0037322D
:10493000092B01D830331A00C27310292CD0103043
:104940000023037030BD3732140046E737321400BD
:104950004FE73732140058E73732140061E7373237
:1049600014006AE73732140073E70735AC46944405
:104970007BE73732140084E70735AC4694448CE774
:104980003732140094E70735AC4694449BE737323E
:104990001400C4720C29A3D14018D1E79C23002035
:1049A00010B588B004000D2200216846FDF732FDE5
:1049B0000D22002104A8FDF72DFD6A464B23684611
:1049C000137004A900230D2203F01EFF15210822F5
:1049D00020006944FDF724FD08B010BD7047C046B3
:1049E0000022014B1A707047D62400204B79FF2B10
:1049F00005D18B79002B02D1CB79012B01D000207E
:104A00007047082AFBD9024B8A7809201A70F7E709
:104A1000D62400200120704710B5012901D00120C3
:104A200010BD14495379107909781B020343994248
:104A300001D00020F4E75378012B07D0022BF8D1E6
:104A4000642200210020FCF7FDFEE8E7D17893788E
:104A50000902194380230A005B001A40194206D05C
:104A60000A06D20F480A03231940FCF771FF012000
:104A70004042F8E7D624002000487047A48D00107B
:104A80009446012310B501290AD15378012B06D190
:104A900013005B7912791B021343072B02D000230A
:104AA000180010BD9F336146024A00F0E7FE030084
:104AB000F6E7C046FC8C00100123037000487047E5
:104AC000C88D00104B780A781B0213438A7810B502
:104AD00012041A43CB781B0613439622D20093424A
:104AE00000D010BD0022012011004042FCF730FF31
:104AF000F8B500F03FF90C23194DFF22AB670520F4
:104B00001849FBF7EDFD184C402200212000FDF76D
:104B100081FC4027002301262121144A6670278347
:104B2000A260136063545F31618445396354104A55
:104B300010496360E2602787A1620B606362E262F2
:104B400003F07AFE80239B052E64EB6490230A4ACF
:104B50000120EA508022094B5202DA64F8BDC046B7
:104B600000001150C9040020781F0020840010505C
:104B7000000110508000105010D001000020115092
:104B800010B501210520FBF74BFD10BD10B500222B
:104B90000021024800F00EF910BDC046981F002009
:104BA000044B1970002904D080219023024A890205
:104BB000D1507047D2240020002011500B785B06A2
:104BC00000D070474B78052BFBD18A78014B1A60D7
:104BD000F7E7C04600001150F8B5CE464746CA7800
:104BE00080B59207930F1A00012B5CD04B790C799A
:104BF0001B0223435B055E0D7F2388782F4D034006
:104C0000C409590089460919490169188870C043C7
:104C1000C0B2C009487000200E83C870CA76370041
:104C2000D900012C2FD0264E89199E01B446AC44E0
:104C30006646B1600860002B2FD0D900214BC918FF
:104C400071603B003F339B09022A33D09B011E4910
:104C500008688C464946091949016D186146C31810
:104C60000B601A49E8608B4226D8194B92064340E4
:104C70001A4380231B0613436A6813600120C0BCDB
:104C8000B946B046F8BD134E89199E01B446AC44EE
:104C90006646B1620860002B07D164012C1963607D
:104CA0000D4BE360EAE70020E9E7D900084BC9189B
:104CB0007162C6E7DB01CAE7FCF772FE781F0020CD
:104CC000840010500400105080230020FF0F10506B
:104CD00000001050800010500001105010B503F07B
:104CE000ABFD10BD7F2010B508404000C909401839
:104CF0001100044A400180181A0000F05BF80120FE
:104D000010BDC046781F00207F23180000B5084062
:104D100083B00B4204D14B424B41084A01339366A6
:104D20008022C9094000064B401840010021C018EC
:104D3000120103F0A9FD03B000BDC04600201150D0
:104D4000781F00207F22130010B50B400A4200D1CB
:104D500010BDC9095B005B1804485B01C018002343
:104D600000220349C37003F08FFDF1E7781F002094
:104D7000FFF7FFFF80220A4B520410B51A60094B5F
:104D800009491A6010000B689843FBD1802200216A
:104D900052010648FDF73EFB0922054B5A6710BD3C
:104DA00000E0004000F0004008C00040000010504B
:104DB00000001150002310B5C38201338282837634
:104DC0000161040003F050FD002804D080219023ED
:104DD000074A8902D150200003F03EFD002802D08E
:104DE0000123237710BD200003F02EFDFAE7C04613
:104DF000002011507047C0467047C04600207047E1
:104E0000002070477047C0467047C0467047C04694
:104E10007047C046024B5878431E9841C0B2704755
:104E2000E01C0020024B18784007C00F7047C046B6
:104E3000E01C0020F0B5D6464F464646C0B52D4B87
:104E4000814698461B788A460124FF2B3ED10029D3
:104E50003BD0002154222848FDF7DCFA0022274CE1
:104E6000274B20001A70FBF7A5FE264B1C60264C32
:104E70002000143CFBF7ACFE200001F05FFB234B4D
:104E8000234D1C60234B002B04D02800FFF714FE99
:104E9000214B186000242B78204F1F4E0DE0336803
:104EA00062019B18002B10D05B68002B0DD0984737
:104EB00001342B78E4B2A3420ED3A342EFD8E31A15
:104EC0005B01DB195B68002BF1D100242000E0BC02
:104ED000BA46B146A846F0BD42464B465146484602
:104EE0001370FFF705FE041EF0D04846FFF748FE9A
:104EF000ECE7C046CC110020E01C0020D81C0020AC
:104F0000D3240020341D0020C4110020381D0020AF
:104F1000D1240020B94A0010F81B0020908E001008
:104F2000F0B5DE4657464E464546E0B5C14B91B01A
:104F300003931B78FF2B00D137E1BF4BBF4E984640
:104F4000BF4B0DAC0293BF4B019335686A69EFF319
:104F5000108172B61368002BFCD0BFF35F8FA9617C
:104F60002800210001F03CF96A69AB69BFF35F8F4B
:104F70000021116083F31088002800D115E16378C7
:104F8000082BE2D842469B00D3589F466368002B0B
:104F9000DBD0A0689847D8E77F222179A84D0A4046
:104FA0005300C809EB181B18180001273030057989
:104FB000BD43057105790337BD430571002A00D152
:104FC000FAE0A14A1B7D1278934200D3EBE09F4A9E
:104FD0005B011568ED18002D00D1E6E0A368627949
:104FE0002078AD69A847B0E7994B1A78002A00D11C
:104FF000DBE01A78013A1A701B78002BA5D1012248
:105000008F4D01212B78042013432B703423EA5C4D
:105010008A43EA54EA5C8243EA540133EA5C8A43F5
:10502000EA54EA5C8243EA54237800209B4600F06D
:105030007FFC602223791A40602A00D1E4E0402AF4
:1050400000D1EAE0DB06DB0E012B00D108E1022BE8
:1050500000D1BEE0002B00D0D6E0202A00D103E230
:105060006379092B00D9CFE07A4A9B00D3589F4639
:10507000734D2B78DB0700D467E7FFF7C9FE64E7C1
:10508000029BDB78DB0700D45FE76068FFF7B4FEC4
:105090005BE76B4D2B78DB0700D456E728780007D9
:1050A000C00FFFF7B3FE50E7664A674F2378934679
:1050B000664A994692463A003B7800254F46B146EB
:1050C00016000EE053461B686A019B18002B00D1A6
:1050D0007AE0DB683800984701353378EDB2AB42AF
:1050E0000CD39D42EED3EB1A5B015B44DB683800C6
:1050F000984701353378EDB2AB42F2D2504D54228D
:1051000000212800FDF786F91022FF21281DFDF758
:1051100081F928002022FF2114304E46FDF77AF94C
:1051200000F0FCFB2379AB700FE72378464F9946DC
:10513000464AB3463B783E00002592464F460DE076
:1051400053461B686A019B18002B3BD0DB68380074
:10515000984701353378EDB2AB420DD39D42EFD382
:10516000019AEB1A5B01D318DB68380098470135C8
:105170003378EDB2AB42F1D2029D542200212800D7
:10518000FDF748F91022FF213348FDF743F92800C5
:105190002022FF2114305E46FDF73CF900F0BEFBF3
:1051A000FFF732FED1E6934211D011B0F0BCBB46FE
:1051B000B246A946A046F0BDA3686279207800F007
:1051C000CBFBC2E65E46E9E74E461D4DA8E71D4D06
:1051D00004E77023217A0B4216D17F27CB099A4628
:1051E0000F407F001848EB1953441B7D0078834221
:1051F0006BD216485B01006881469944002A00D1B1
:1052000054E14B46002B68D120780021FFF77CFD4C
:1052100080212078FFF778FD97E6104800F088FBA2
:10522000012158460EAAFFF72BFC002800D08CE67F
:10523000EAE7C046CC110020E88D0010381D0020A0
:10524000E01C0020908E0010D1240020F81B0020CC
:10525000D32400200C8E0010E41C0020814A001092
:10526000237A22890F2BCFD8FF231340CE4AEB1885
:105270001B791278934221D3C6D1CC4D686900F0D6
:1052800057FB012158466B690EAA9847002800D0A9
:105290005BE66022150023791D401A42B4D1637980
:1052A0000A3B012BB0D800F043FB63790A2B00D1F5
:1052B00084E158460EA900F0CBFA46E6BC4A5B01F1
:1052C0001568ED18002DD9D19EE7834200D0E8E0A3
:1052D000B64B9946002A00D1E8E04B46586900F0E9
:1052E00027FB4B46012158465B690EAA98479CE76D
:1052F000A37999466B789945DBD06B78002B00D069
:105300006DE14B466B70002B00D165E148460138DA
:10531000C0B2FFF711FA002800D1B3E14378079338
:10532000022B00D0AEE10122C179A9468B114911AF
:1053300013400A40302112015B0113432A788A434B
:1053400013432B7009239A4682445546B246C378CC
:1053500082781B021343C3180593934B0493934B1A
:105360000893934B0993934B0A93059BAB4200D848
:105370008BE16B7801220B2B03D12B78EA78ED18A7
:105380006B78042B00D07BE1059B00265B1B9BB256
:105390000693049B0B921F7819E0099A7301176812
:1053A000FF18002F00D16BE1290058463B69069A8F
:1053B00098478446082803D9069A824200D34CE1D4
:1053C000049B01361F78F6B2B74200D258E1BE42C4
:1053D000E3D3089BF71B7F01DF19E5E76B780CAA85
:1053E00002321370584601230EA900F047FAACE5CB
:1053F000E088030AC0B20F2B00D905E76E499A0076
:105400008A5897460EA800F099FA5846A179FFF7F6
:10541000BDFB02222B7813432B7096E5E388012B0A
:1054200000D0F1E608222B7813432B7041E7E38884
:10543000012B00D0E8E608222B78584693430EA9AA
:105440002B7000F005FA80E5022029780CAB9A1C3D
:105450008B068908DB0F01400B431380584602235B
:105460000EA900F00BFA70E5237A22890F2B00D9E0
:10547000CAE6FF2313404C4AEB181B79127893427B
:1054800027D24B4A5B011568ED18002D00D1BBE611
:10549000686900F04DFA012158466B690EAA9847D9
:1054A000C3E6002A00D0AFE60023994662790220C5
:1054B000130004928343012B10D0002A00D0A3E6EE
:1054C000EB19534430331B790CAA9B07DB0F0232D4
:1054D000C3E7934200D097E6344DD9E7E388002B29
:1054E00011D1039B1878049B012B22D0FFF70CFCF1
:1054F0000221EB19534430331A790A4301211A71FE
:105500001A790A431A714B46002B00D11DE55869E0
:1055100000F00EFA4B4601215B690EAA58469847E7
:10552000002000F005FA3523EB5CDB0700D50CE525
:10553000BFE6FFF707FC0221EB19534430331A7919
:105540008A431A711A7904998A431A71DBE7FFF7C3
:1055500055FC021E00D157E6584613780EA900F0FC
:105560008DF962E62189FFF7EBF8021EF4D14BE6D4
:10557000022B00D1A1E0FFF743FC021E00D143E65D
:10558000D37891781B020B4358460EA900F076F9A8
:105590004BE6FFF7CDF8021E00D135E61223584640
:1055A0000EA900F06BF940E6D1240020908E001087
:1055B000F81B0020F41C0020348E00100CAB9A1C49
:1055C000584601230EA9157000F058F9BDE4FFF705
:1055D00053FA021ED4D117E6FFF716FC69E6002144
:1055E0005846FFF7DDFA5846FFF778FB002292464F
:1055F000364AAB780592364A364F06922A00049313
:1056000055463B7892460DE0069B6A011B689B1845
:10561000002B58D0DB685846984701353B78EDB2EF
:10562000AB4206D39D42EFD3059AEB1A5B01D31828
:10563000F0E75546542200212800FCF7EBFE10222B
:10564000FF21281DFCF7E6FE28002022FF21143050
:10565000FCF7E0FE049BAB7053E60B9A012A26D0C0
:10566000002A16D00023A87804E00133DBB20E71C3
:1056700093420ED2C118C9B249440F79FF2FF4D01A
:1056800056464D4600236B70BEE55646FFF7BAFB03
:105690000FE66746330029003A000A9800F024FD1F
:1056A000049BED191B78B34200D35EE6E8E70A4B92
:1056B00039699942D6D1079AD4E7FFF73DF8021E1F
:1056C00000D05DE7A0E55546C4E7C046908E0010C7
:1056D000F81B0020D1240020195D0010F0B54F46C2
:1056E0004646D646C0B50C0016001F0082B0002A00
:1056F0003CD0702398461E4B002599461D4B9A4678
:105700006378052B18D1E3789B079B0FBB4213D11D
:105710004246A3781A420FD14B461B7820000193D2
:105720005346997800F0A6FC002807D102B0E0BCEF
:10573000BA46B146A846F0BD0020F7E7210001981F
:10574000FFF74AFA0028F1D0A378DA09012A07D036
:105750000A9A01351370B542E8DA2378E418CFE7E6
:105760000B9A01351370B542F7DBDFE70120DDE767
:10577000CC110020E01C0020702270B58B780C004A
:1057800000201A4200D070BD064B20001D78064B49
:10579000997800F06FFC0028F5D021002800FFF771
:1057A0001BFAF0E7CC110020E01C00207F20074B03
:1057B00010B51A680840CB0934334000C018044BB8
:1057C0001100C01800F012FC10BDC046341D0020AE
:1057D000E01C00207F20074B10B51A680840CB0959
:1057E00034334000C018044B1100C01800F026FCF0
:1057F00010BDC046341D0020E01C002070B57F2481
:10580000C80984460C4010486400041964443034CC
:10581000207905000020ED0700D570BD0B4801255B
:10582000007884462079284320716046FFF75AFAB1
:105830000028F2D101222379934323712379033283
:1058400093432371E9E7C046E01C0020CC110020FF
:1058500070B5094C0600082220000D00FCF7E0FDA1
:1058600000238021E360A3602B783000994300225D
:105870000023FFF7C3FF70BDC01C0020F0B5C64673
:10588000244C170080460822200000B50D001E00A1
:10589000FCF7C6FD0023A760E381EB79AA791B0220
:1058A00013431A1CB34200D9321C96B2A281002BBA
:1058B0000CD0002E15D0002F2AD0402E1AD82378D5
:1058C00096B27F2B1BD80021134A0EE080212B7843
:1058D0000022994340460023FFF790FF80BCB84662
:1058E000F0BD7F2300222178994333004046FFF723
:1058F00085FFF3E74022237896B27F2BE3D9064C4D
:10590000320039002000FCF78BFD80212200ECE7FB
:105910000020E3E7C01C0020801C002010B51422EA
:1059200000210248FCF776FD10BDC046C01C0020D7
:10593000014B18617047C046C01C002010B5054CD3
:10594000010008222000FCF76BFD0023A360E36048
:1059500010BDC046C01C002070B5364C1D00237819
:105960000600DA09C9098A420FD0002D01D00020B3
:1059700070BD2100FFF722F92369002B03D022001C
:105980000321300098470120F2E77F2B06D8A0685A
:105990000028ECD02A002849FCF742FDE289A168E2
:1059A0005219E38892B24919E281A160934214D05E
:1059B0003F2D12D9A389981A051C80B2402828D8F7
:1059C0002078ADB27F2826D800219A4230D01A4ADA
:1059D0002B003000FFF712FFCAE72369002B05D028
:1059E0002200022130009847002808D08021237827
:1059F0000022994330000023FFF700FFB8E70021A1
:105A00003000FFF781F930008021FFF77DF9012098
:105A1000AEE74025D4E79A4207D0074C2A00200081
:105A2000FCF7FEFC80212200D2E780210022CFE794
:105A30000022CDE7C01C0020801C002070B50400AF
:105A4000FFF7E8F9002800D170BDFFF7EBF9002857
:105A5000FAD1C8236343124A2500D418E1780029FB
:105A6000F2D010339E18300000F0A8FB3F28EBD98D
:105A70000020E178FFF79AFE0028E5D0300000F022
:105A80009DFBE1783F2807D9064BEA01D218002098
:105A90004023FFF7B3FED7E70020FFF79BFED3E7D5
:105AA00018170020FC1B002010B50400FFF7B2F906
:105AB000002800D110BDFFF7B5F903000020002B2E
:105AC000F8D1C8226243034B01309B181B79184060
:105AD000F0E7C04618170020C82310B5434302481A
